{
  "_format": "hh-sol-artifact-1",
  "contractName": "JustGovernanceUpgradeable",
  "sourceName": "contracts/JustGovernanceUpgradeable.sol",
  "abi": [
    {
      "inputs": [],
      "name": "AlreadyRefunded",
      "type": "error"
    },
    {
      "inputs": [],
      "name": "AlreadyVoted",
      "type": "error"
    },
    {
      "inputs": [],
      "name": "CallFailed",
      "type": "error"
    },
    {
      "inputs": [
        {
          "internalType": "uint256",
          "name": "available",
          "type": "uint256"
        },
        {
          "internalType": "uint256",
          "name": "required",
          "type": "uint256"
        }
      ],
      "name": "InsufficientBalance",
      "type": "error"
    },
    {
      "inputs": [],
      "name": "InvalidAmount",
      "type": "error"
    },
    {
      "inputs": [],
      "name": "InvalidCalldata",
      "type": "error"
    },
    {
      "inputs": [
        {
          "internalType": "uint256",
          "name": "provided",
          "type": "uint256"
        },
        {
          "internalType": "uint256",
          "name": "min",
          "type": "uint256"
        },
        {
          "internalType": "uint256",
          "name": "max",
          "type": "uint256"
        }
      ],
      "name": "InvalidDuration",
      "type": "error"
    },
    {
      "inputs": [],
      "name": "InvalidLockIndex",
      "type": "error"
    },
    {
      "inputs": [],
      "name": "InvalidPercentage",
      "type": "error"
    },
    {
      "inputs": [],
      "name": "InvalidProposalId",
      "type": "error"
    },
    {
      "inputs": [],
      "name": "InvalidSelector",
      "type": "error"
    },
    {
      "inputs": [],
      "name": "InvalidVoteType",
      "type": "error"
    },
    {
      "inputs": [],
      "name": "LastAdminRole",
      "type": "error"
    },
    {
      "inputs": [],
      "name": "NoTxHash",
      "type": "error"
    },
    {
      "inputs": [],
      "name": "NoValidChange",
      "type": "error"
    },
    {
      "inputs": [],
      "name": "NoVotingPower",
      "type": "error"
    },
    {
      "inputs": [],
      "name": "NotAuthorized",
      "type": "error"
    },
    {
      "inputs": [],
      "name": "NotDefeated",
      "type": "error"
    },
    {
      "inputs": [],
      "name": "NotInTimelock",
      "type": "error"
    },
    {
      "inputs": [],
      "name": "NotProposer",
      "type": "error"
    },
    {
      "inputs": [],
      "name": "NotQueued",
      "type": "error"
    },
    {
      "inputs": [],
      "name": "NotSucceeded",
      "type": "error"
    },
    {
      "inputs": [],
      "name": "ProposalCanceled",
      "type": "error"
    },
    {
      "inputs": [],
      "name": "ProposalExecuted",
      "type": "error"
    },
    {
      "inputs": [],
      "name": "ProposalNotExpired",
      "type": "error"
    },
    {
      "inputs": [],
      "name": "TimelockExecutionFailed",
      "type": "error"
    },
    {
      "inputs": [],
      "name": "TransferFailed",
      "type": "error"
    },
    {
      "inputs": [],
      "name": "VotingEnded",
      "type": "error"
    },
    {
      "inputs": [],
      "name": "ZeroAddress",
      "type": "error"
    },
    {
      "anonymous": false,
      "inputs": [
        {
          "indexed": false,
          "internalType": "address",
          "name": "previousAdmin",
          "type": "address"
        },
        {
          "indexed": false,
          "internalType": "address",
          "name": "newAdmin",
          "type": "address"
        }
      ],
      "name": "AdminChanged",
      "type": "event"
    },
    {
      "anonymous": false,
      "inputs": [
        {
          "indexed": true,
          "internalType": "address",
          "name": "beacon",
          "type": "address"
        }
      ],
      "name": "BeaconUpgraded",
      "type": "event"
    },
    {
      "anonymous": false,
      "inputs": [
        {
          "indexed": true,
          "internalType": "address",
          "name": "token",
          "type": "address"
        },
        {
          "indexed": true,
          "internalType": "address",
          "name": "timelock",
          "type": "address"
        },
        {
          "indexed": true,
          "internalType": "address",
          "name": "admin",
          "type": "address"
        }
      ],
      "name": "ContractInitialized",
      "type": "event"
    },
    {
      "anonymous": false,
      "inputs": [
        {
          "indexed": true,
          "internalType": "address",
          "name": "pauser",
          "type": "address"
        }
      ],
      "name": "ContractPaused",
      "type": "event"
    },
    {
      "anonymous": false,
      "inputs": [
        {
          "indexed": true,
          "internalType": "address",
          "name": "unpauser",
          "type": "address"
        }
      ],
      "name": "ContractUnpaused",
      "type": "event"
    },
    {
      "anonymous": false,
      "inputs": [
        {
          "indexed": true,
          "internalType": "address",
          "name": "token",
          "type": "address"
        },
        {
          "indexed": true,
          "internalType": "address",
          "name": "recipient",
          "type": "address"
        },
        {
          "indexed": false,
          "internalType": "uint256",
          "name": "amount",
          "type": "uint256"
        }
      ],
      "name": "ERC20Rescued",
      "type": "event"
    },
    {
      "anonymous": false,
      "inputs": [
        {
          "indexed": true,
          "internalType": "address",
          "name": "recipient",
          "type": "address"
        },
        {
          "indexed": false,
          "internalType": "uint256",
          "name": "amount",
          "type": "uint256"
        }
      ],
      "name": "ETHRescued",
      "type": "event"
    },
    {
      "anonymous": false,
      "inputs": [
        {
          "indexed": false,
          "internalType": "uint8",
          "name": "pType",
          "type": "uint8"
        },
        {
          "indexed": false,
          "internalType": "uint256",
          "name": "oldVal",
          "type": "uint256"
        },
        {
          "indexed": false,
          "internalType": "uint256",
          "name": "newVal",
          "type": "uint256"
        }
      ],
      "name": "GovParamChange",
      "type": "event"
    },
    {
      "anonymous": false,
      "inputs": [
        {
          "indexed": false,
          "internalType": "uint8",
          "name": "version",
          "type": "uint8"
        }
      ],
      "name": "Initialized",
      "type": "event"
    },
    {
      "anonymous": false,
      "inputs": [
        {
          "indexed": false,
          "internalType": "address",
          "name": "account",
          "type": "address"
        }
      ],
      "name": "Paused",
      "type": "event"
    },
    {
      "anonymous": false,
      "inputs": [
        {
          "indexed": true,
          "internalType": "uint256",
          "name": "proposalId",
          "type": "uint256"
        },
        {
          "indexed": true,
          "internalType": "uint8",
          "name": "eventType",
          "type": "uint8"
        },
        {
          "indexed": true,
          "internalType": "address",
          "name": "actor",
          "type": "address"
        },
        {
          "indexed": false,
          "internalType": "bytes",
          "name": "data",
          "type": "bytes"
        }
      ],
      "name": "ProposalEvent",
      "type": "event"
    },
    {
      "anonymous": false,
      "inputs": [
        {
          "indexed": true,
          "internalType": "bytes32",
          "name": "role",
          "type": "bytes32"
        },
        {
          "indexed": true,
          "internalType": "bytes32",
          "name": "previousAdminRole",
          "type": "bytes32"
        },
        {
          "indexed": true,
          "internalType": "bytes32",
          "name": "newAdminRole",
          "type": "bytes32"
        }
      ],
      "name": "RoleAdminChanged",
      "type": "event"
    },
    {
      "anonymous": false,
      "inputs": [
        {
          "indexed": true,
          "internalType": "bytes32",
          "name": "role",
          "type": "bytes32"
        },
        {
          "indexed": true,
          "internalType": "address",
          "name": "account",
          "type": "address"
        },
        {
          "indexed": false,
          "internalType": "bool",
          "name": "isGranted",
          "type": "bool"
        }
      ],
      "name": "RoleChange",
      "type": "event"
    },
    {
      "anonymous": false,
      "inputs": [
        {
          "indexed": true,
          "internalType": "bytes32",
          "name": "role",
          "type": "bytes32"
        },
        {
          "indexed": true,
          "internalType": "address",
          "name": "account",
          "type": "address"
        },
        {
          "indexed": true,
          "internalType": "address",
          "name": "sender",
          "type": "address"
        }
      ],
      "name": "RoleGranted",
      "type": "event"
    },
    {
      "anonymous": false,
      "inputs": [
        {
          "indexed": true,
          "internalType": "bytes32",
          "name": "role",
          "type": "bytes32"
        },
        {
          "indexed": true,
          "internalType": "address",
          "name": "account",
          "type": "address"
        },
        {
          "indexed": true,
          "internalType": "address",
          "name": "sender",
          "type": "address"
        }
      ],
      "name": "RoleRevoked",
      "type": "event"
    },
    {
      "anonymous": false,
      "inputs": [
        {
          "indexed": false,
          "internalType": "bytes4",
          "name": "selector",
          "type": "bytes4"
        },
        {
          "indexed": false,
          "internalType": "bool",
          "name": "selectorAllowed",
          "type": "bool"
        },
        {
          "indexed": false,
          "internalType": "address",
          "name": "target",
          "type": "address"
        },
        {
          "indexed": false,
          "internalType": "bool",
          "name": "targetAllowed",
          "type": "bool"
        }
      ],
      "name": "SecuritySettingUpdated",
      "type": "event"
    },
    {
      "anonymous": false,
      "inputs": [
        {
          "indexed": true,
          "internalType": "uint256",
          "name": "proposalId",
          "type": "uint256"
        },
        {
          "indexed": true,
          "internalType": "bytes32",
          "name": "txHash",
          "type": "bytes32"
        }
      ],
      "name": "TimelockTransactionSubmitted",
      "type": "event"
    },
    {
      "anonymous": false,
      "inputs": [
        {
          "indexed": false,
          "internalType": "address",
          "name": "account",
          "type": "address"
        }
      ],
      "name": "Unpaused",
      "type": "event"
    },
    {
      "anonymous": false,
      "inputs": [
        {
          "indexed": true,
          "internalType": "address",
          "name": "implementation",
          "type": "address"
        }
      ],
      "name": "Upgraded",
      "type": "event"
    },
    {
      "anonymous": false,
      "inputs": [
        {
          "indexed": true,
          "internalType": "uint256",
          "name": "proposalId",
          "type": "uint256"
        },
        {
          "indexed": true,
          "internalType": "address",
          "name": "voter",
          "type": "address"
        },
        {
          "indexed": false,
          "internalType": "uint8",
          "name": "support",
          "type": "uint8"
        },
        {
          "indexed": false,
          "internalType": "uint256",
          "name": "votingPower",
          "type": "uint256"
        }
      ],
      "name": "VoteCast",
      "type": "event"
    },
    {
      "inputs": [],
      "name": "ADMIN_ROLE",
      "outputs": [
        {
          "internalType": "bytes32",
          "name": "",
          "type": "bytes32"
        }
      ],
      "stateMutability": "view",
      "type": "function"
    },
    {
      "inputs": [],
      "name": "DEFAULT_ADMIN_ROLE",
      "outputs": [
        {
          "internalType": "bytes32",
          "name": "",
          "type": "bytes32"
        }
      ],
      "stateMutability": "view",
      "type": "function"
    },
    {
      "inputs": [],
      "name": "GUARDIAN_ROLE",
      "outputs": [
        {
          "internalType": "bytes32",
          "name": "",
          "type": "bytes32"
        }
      ],
      "stateMutability": "view",
      "type": "function"
    },
    {
      "inputs": [
        {
          "internalType": "bytes4",
          "name": "",
          "type": "bytes4"
        }
      ],
      "name": "allowedFunctionSelectors",
      "outputs": [
        {
          "internalType": "bool",
          "name": "",
          "type": "bool"
        }
      ],
      "stateMutability": "view",
      "type": "function"
    },
    {
      "inputs": [
        {
          "internalType": "address",
          "name": "",
          "type": "address"
        }
      ],
      "name": "allowedTargets",
      "outputs": [
        {
          "internalType": "bool",
          "name": "",
          "type": "bool"
        }
      ],
      "stateMutability": "view",
      "type": "function"
    },
    {
      "inputs": [
        {
          "internalType": "uint256",
          "name": "proposalId",
          "type": "uint256"
        }
      ],
      "name": "cancelProposal",
      "outputs": [],
      "stateMutability": "nonpayable",
      "type": "function"
    },
    {
      "inputs": [
        {
          "internalType": "uint256",
          "name": "proposalId",
          "type": "uint256"
        },
        {
          "internalType": "uint8",
          "name": "support",
          "type": "uint8"
        }
      ],
      "name": "castVote",
      "outputs": [
        {
          "internalType": "uint256",
          "name": "",
          "type": "uint256"
        }
      ],
      "stateMutability": "nonpayable",
      "type": "function"
    },
    {
      "inputs": [
        {
          "internalType": "uint256",
          "name": "proposalId",
          "type": "uint256"
        }
      ],
      "name": "claimPartialStakeRefund",
      "outputs": [],
      "stateMutability": "nonpayable",
      "type": "function"
    },
    {
      "inputs": [
        {
          "internalType": "string",
          "name": "description",
          "type": "string"
        },
        {
          "internalType": "enum JustGovernanceUpgradeable.ProposalType",
          "name": "proposalType",
          "type": "uint8"
        },
        {
          "internalType": "address",
          "name": "target",
          "type": "address"
        },
        {
          "internalType": "bytes",
          "name": "callData",
          "type": "bytes"
        },
        {
          "internalType": "uint256",
          "name": "amount",
          "type": "uint256"
        },
        {
          "internalType": "address payable",
          "name": "recipient",
          "type": "address"
        },
        {
          "internalType": "address",
          "name": "externalToken",
          "type": "address"
        },
        {
          "internalType": "uint256",
          "name": "newThreshold",
          "type": "uint256"
        },
        {
          "internalType": "uint256",
          "name": "newQuorum",
          "type": "uint256"
        },
        {
          "internalType": "uint256",
          "name": "newVotingDuration",
          "type": "uint256"
        },
        {
          "internalType": "uint256",
          "name": "newTimelockDelay",
          "type": "uint256"
        }
      ],
      "name": "createProposal",
      "outputs": [
        {
          "internalType": "uint256",
          "name": "",
          "type": "uint256"
        }
      ],
      "stateMutability": "nonpayable",
      "type": "function"
    },
    {
      "inputs": [
        {
          "internalType": "uint256",
          "name": "proposalId",
          "type": "uint256"
        }
      ],
      "name": "executeProposal",
      "outputs": [],
      "stateMutability": "nonpayable",
      "type": "function"
    },
    {
      "inputs": [
        {
          "internalType": "uint256",
          "name": "proposalId",
          "type": "uint256"
        }
      ],
      "name": "executeProposalLogic",
      "outputs": [],
      "stateMutability": "nonpayable",
      "type": "function"
    },
    {
      "inputs": [
        {
          "internalType": "uint256",
          "name": "proposalId",
          "type": "uint256"
        }
      ],
      "name": "getProposalState",
      "outputs": [
        {
          "internalType": "enum JustGovernanceUpgradeable.ProposalState",
          "name": "",
          "type": "uint8"
        }
      ],
      "stateMutability": "view",
      "type": "function"
    },
    {
      "inputs": [
        {
          "internalType": "bytes32",
          "name": "role",
          "type": "bytes32"
        }
      ],
      "name": "getRoleAdmin",
      "outputs": [
        {
          "internalType": "bytes32",
          "name": "",
          "type": "bytes32"
        }
      ],
      "stateMutability": "view",
      "type": "function"
    },
    {
      "inputs": [
        {
          "internalType": "bytes32",
          "name": "role",
          "type": "bytes32"
        },
        {
          "internalType": "uint256",
          "name": "index",
          "type": "uint256"
        }
      ],
      "name": "getRoleMember",
      "outputs": [
        {
          "internalType": "address",
          "name": "",
          "type": "address"
        }
      ],
      "stateMutability": "view",
      "type": "function"
    },
    {
      "inputs": [
        {
          "internalType": "bytes32",
          "name": "role",
          "type": "bytes32"
        }
      ],
      "name": "getRoleMemberCount",
      "outputs": [
        {
          "internalType": "uint256",
          "name": "",
          "type": "uint256"
        }
      ],
      "stateMutability": "view",
      "type": "function"
    },
    {
      "inputs": [],
      "name": "govParams",
      "outputs": [
        {
          "internalType": "uint256",
          "name": "votingDuration",
          "type": "uint256"
        },
        {
          "internalType": "uint256",
          "name": "quorum",
          "type": "uint256"
        },
        {
          "internalType": "uint256",
          "name": "timelockDelay",
          "type": "uint256"
        },
        {
          "internalType": "uint256",
          "name": "proposalCreationThreshold",
          "type": "uint256"
        },
        {
          "internalType": "uint256",
          "name": "proposalStake",
          "type": "uint256"
        },
        {
          "internalType": "uint256",
          "name": "defeatedRefundPercentage",
          "type": "uint256"
        },
        {
          "internalType": "uint256",
          "name": "canceledRefundPercentage",
          "type": "uint256"
        },
        {
          "internalType": "uint256",
          "name": "expiredRefundPercentage",
          "type": "uint256"
        }
      ],
      "stateMutability": "view",
      "type": "function"
    },
    {
      "inputs": [
        {
          "internalType": "bytes32",
          "name": "role",
          "type": "bytes32"
        },
        {
          "internalType": "address",
          "name": "account",
          "type": "address"
        }
      ],
      "name": "grantContractRole",
      "outputs": [],
      "stateMutability": "nonpayable",
      "type": "function"
    },
    {
      "inputs": [
        {
          "internalType": "bytes32",
          "name": "role",
          "type": "bytes32"
        },
        {
          "internalType": "address",
          "name": "account",
          "type": "address"
        }
      ],
      "name": "grantRole",
      "outputs": [],
      "stateMutability": "nonpayable",
      "type": "function"
    },
    {
      "inputs": [
        {
          "internalType": "bytes32",
          "name": "role",
          "type": "bytes32"
        },
        {
          "internalType": "address",
          "name": "account",
          "type": "address"
        }
      ],
      "name": "hasRole",
      "outputs": [
        {
          "internalType": "bool",
          "name": "",
          "type": "bool"
        }
      ],
      "stateMutability": "view",
      "type": "function"
    },
    {
      "inputs": [
        {
          "internalType": "string",
          "name": "name",
          "type": "string"
        },
        {
          "internalType": "address",
          "name": "tokenAddress",
          "type": "address"
        },
        {
          "internalType": "address",
          "name": "timelockAddress",
          "type": "address"
        },
        {
          "internalType": "address",
          "name": "admin",
          "type": "address"
        },
        {
          "internalType": "uint256",
          "name": "proposalThreshold",
          "type": "uint256"
        },
        {
          "internalType": "uint256",
          "name": "votingDelay",
          "type": "uint256"
        },
        {
          "internalType": "uint256",
          "name": "votingPeriod",
          "type": "uint256"
        },
        {
          "internalType": "uint256",
          "name": "quorumNumerator",
          "type": "uint256"
        },
        {
          "internalType": "uint256",
          "name": "successfulRefund",
          "type": "uint256"
        },
        {
          "internalType": "uint256",
          "name": "cancelledRefund",
          "type": "uint256"
        },
        {
          "internalType": "uint256",
          "name": "defeatedRefund",
          "type": "uint256"
        },
        {
          "internalType": "uint256",
          "name": "expiredRefund",
          "type": "uint256"
        }
      ],
      "name": "initialize",
      "outputs": [],
      "stateMutability": "nonpayable",
      "type": "function"
    },
    {
      "inputs": [],
      "name": "justToken",
      "outputs": [
        {
          "internalType": "contract JustTokenUpgradeable",
          "name": "",
          "type": "address"
        }
      ],
      "stateMutability": "view",
      "type": "function"
    },
    {
      "inputs": [],
      "name": "maxVotingDuration",
      "outputs": [
        {
          "internalType": "uint256",
          "name": "",
          "type": "uint256"
        }
      ],
      "stateMutability": "view",
      "type": "function"
    },
    {
      "inputs": [],
      "name": "minVotingDuration",
      "outputs": [
        {
          "internalType": "uint256",
          "name": "",
          "type": "uint256"
        }
      ],
      "stateMutability": "view",
      "type": "function"
    },
    {
      "inputs": [],
      "name": "pause",
      "outputs": [],
      "stateMutability": "nonpayable",
      "type": "function"
    },
    {
      "inputs": [],
      "name": "paused",
      "outputs": [
        {
          "internalType": "bool",
          "name": "",
          "type": "bool"
        }
      ],
      "stateMutability": "view",
      "type": "function"
    },
    {
      "inputs": [
        {
          "internalType": "uint256",
          "name": "",
          "type": "uint256"
        },
        {
          "internalType": "address",
          "name": "",
          "type": "address"
        }
      ],
      "name": "proposalVoterInfo",
      "outputs": [
        {
          "internalType": "uint256",
          "name": "",
          "type": "uint256"
        }
      ],
      "stateMutability": "view",
      "type": "function"
    },
    {
      "inputs": [],
      "name": "proxiableUUID",
      "outputs": [
        {
          "internalType": "bytes32",
          "name": "",
          "type": "bytes32"
        }
      ],
      "stateMutability": "view",
      "type": "function"
    },
    {
      "inputs": [
        {
          "internalType": "uint256",
          "name": "proposalId",
          "type": "uint256"
        }
      ],
      "name": "queueProposal",
      "outputs": [],
      "stateMutability": "nonpayable",
      "type": "function"
    },
    {
      "inputs": [
        {
          "internalType": "bytes32",
          "name": "role",
          "type": "bytes32"
        },
        {
          "internalType": "address",
          "name": "account",
          "type": "address"
        }
      ],
      "name": "renounceRole",
      "outputs": [],
      "stateMutability": "nonpayable",
      "type": "function"
    },
    {
      "inputs": [
        {
          "internalType": "address",
          "name": "tokenAddress",
          "type": "address"
        }
      ],
      "name": "rescueERC20",
      "outputs": [],
      "stateMutability": "nonpayable",
      "type": "function"
    },
    {
      "inputs": [],
      "name": "rescueETH",
      "outputs": [],
      "stateMutability": "nonpayable",
      "type": "function"
    },
    {
      "inputs": [
        {
          "internalType": "bytes32",
          "name": "role",
          "type": "bytes32"
        },
        {
          "internalType": "address",
          "name": "account",
          "type": "address"
        }
      ],
      "name": "revokeContractRole",
      "outputs": [],
      "stateMutability": "nonpayable",
      "type": "function"
    },
    {
      "inputs": [
        {
          "internalType": "bytes32",
          "name": "role",
          "type": "bytes32"
        },
        {
          "internalType": "address",
          "name": "account",
          "type": "address"
        }
      ],
      "name": "revokeRole",
      "outputs": [],
      "stateMutability": "nonpayable",
      "type": "function"
    },
    {
      "inputs": [
        {
          "internalType": "bytes4",
          "name": "interfaceId",
          "type": "bytes4"
        }
      ],
      "name": "supportsInterface",
      "outputs": [
        {
          "internalType": "bool",
          "name": "",
          "type": "bool"
        }
      ],
      "stateMutability": "view",
      "type": "function"
    },
    {
      "inputs": [],
      "name": "timelock",
      "outputs": [
        {
          "internalType": "contract JustTimelockUpgradeable",
          "name": "",
          "type": "address"
        }
      ],
      "stateMutability": "view",
      "type": "function"
    },
    {
      "inputs": [],
      "name": "unpause",
      "outputs": [],
      "stateMutability": "nonpayable",
      "type": "function"
    },
    {
      "inputs": [
        {
          "internalType": "uint8",
          "name": "paramType",
          "type": "uint8"
        },
        {
          "internalType": "uint256",
          "name": "newValue",
          "type": "uint256"
        }
      ],
      "name": "updateGovParam",
      "outputs": [],
      "stateMutability": "nonpayable",
      "type": "function"
    },
    {
      "inputs": [
        {
          "internalType": "address",
          "name": "guardian",
          "type": "address"
        },
        {
          "internalType": "bool",
          "name": "isAdding",
          "type": "bool"
        }
      ],
      "name": "updateGuardian",
      "outputs": [],
      "stateMutability": "nonpayable",
      "type": "function"
    },
    {
      "inputs": [
        {
          "internalType": "bytes4",
          "name": "selector",
          "type": "bytes4"
        },
        {
          "internalType": "bool",
          "name": "selectorAllowed",
          "type": "bool"
        },
        {
          "internalType": "address",
          "name": "target",
          "type": "address"
        },
        {
          "internalType": "bool",
          "name": "targetAllowed",
          "type": "bool"
        }
      ],
      "name": "updateSecurity",
      "outputs": [],
      "stateMutability": "nonpayable",
      "type": "function"
    },
    {
      "inputs": [
        {
          "internalType": "address",
          "name": "newImplementation",
          "type": "address"
        }
      ],
      "name": "upgradeTo",
      "outputs": [],
      "stateMutability": "nonpayable",
      "type": "function"
    },
    {
      "inputs": [
        {
          "internalType": "address",
          "name": "newImplementation",
          "type": "address"
        },
        {
          "internalType": "bytes",
          "name": "data",
          "type": "bytes"
        }
      ],
      "name": "upgradeToAndCall",
      "outputs": [],
      "stateMutability": "payable",
      "type": "function"
    },
    {
      "stateMutability": "payable",
      "type": "receive"
    }
  ],
  "bytecode": "0x60a0604052346200003657620000146200003b565b604051615d9662000093823960805181818161139001526114dc0152615d9690f35b600080fd5b6200004562000082565b565b6200005d9062000060906001600160a01b031682565b90565b6001600160a01b031690565b6200005d9062000047565b6200005d906200006c565b6200008d3062000077565b60805256fe6080604052600436101561001b575b361561001957600080fd5b005b60003560e01c806301ffc9a7146102ab57806309729350146102a65780630d61b519146102a15780631b9ad0e41461029c57806320800a0014610297578063248a9ca31461029257806324ea54f41461028d5780632f2ff15d14610288578063338a035a1461028357806336568abe1461027e5780633659cfe6146102795780633f4ba83a146102745780634f1ef2861461026f57806352d1902d1461026a5780635612a6f01461026557806356781388146102605780635714936c1461025b5780635c975abb14610256578063643aa8b3146102515780636df7bab31461024c5780636e5ce0501461024757806370d26de51461024257806375b238fc1461023d5780638456cb591461023857806388f4950f146102335780639010d07c1461022e5780639080936f1461022957806391d148541461022457806394a14a341461021f5780639d49257c1461021a578063a01fc1c614610215578063a217fddf14610210578063b860f7f31461020b578063b8fe8d5f14610206578063ca15c87314610201578063ccec3716146101fc578063d33219b4146101f7578063d547741f146101f2578063dbd62506146101ed578063e0a8f6f5146101e85763f21c00ba0361000e57610e5f565b610e47565b610e2c565b610e06565b610ddf565b610d89565b610d6e565b610d53565b610cd5565b610c42565b610c18565b610bfd565b610bd8565b610bbc565b610b95565b610b0d565b610ada565b610a9f565b610a78565b610a5f565b610a34565b610904565b6108db565b610843565b610827565b6107ba565b61076f565b61068e565b61067a565b610564565b61054c565b61051f565b610504565b610492565b610420565b6103f5565b6103dd565b6103b9565b610368565b61034b565b6102f2565b6001600160e01b031981165b036102c357565b600080fd5b905035906102d5826102b0565b565b906020828203126102c3576102eb916102c8565b90565b9052565b346102c35761032061030d6103083660046102d7565b610e78565b6040515b91829182901515815260200190565b0390f35b806102bc565b905035906102d582610324565b906020828203126102c3576102eb9161032a565b346102c35761036361035e366004610337565b615d20565b604051005b346102c35761036361037b366004610337565b615089565b60ff81166102bc565b905035906102d582610380565b91906040838203126102c3576102eb906103b08185610389565b9360200161032a565b346102c3576103636103cc366004610396565b90613341565b60009103126102c357565b346102c3576103ed3660046103d2565b610363612969565b346102c35761032061041061040b366004610337565b610f53565b6040519182918290815260200190565b346102c3576104303660046103d2565b610320600080516020615d6a833981519152610410565b6001600160a01b031690565b6001600160a01b0381166102bc565b905035906102d582610453565b91906040838203126102c3576102eb90610489818561032a565b93602001610462565b346102c3576103636104a536600461046f565b90610f8a565b6001600160e01b03191690565b906001600160e01b0319165b600052602052604060002090565b6102eb916008021c5b60ff1690565b906102eb91546104d2565b6102eb906104ff61019f916000926104b8565b6104e1565b346102c35761032061030d61051a3660046102d7565b6104ec565b346102c35761036361053236600461046f565b906111e0565b906020828203126102c3576102eb91610462565b346102c35761036361055f366004610538565b61159d565b346102c3576105743660046103d2565b6103636126d4565b634e487b7160e01b600052604160045260246000fd5b90601f01601f1916810190811067ffffffffffffffff8211176105b457604052565b61057c565b906102d56105c660405190565b9283610592565b67ffffffffffffffff81116105b457602090601f01601f19160190565b0190565b90826000939282370152565b9092919261060f61060a826105cd565b6105b9565b938185526020850190828401116102c3576102d5926105ee565b9080601f830112156102c3578160206102eb933591016105fa565b9190916040818403126102c35761065b8382610462565b92602082013567ffffffffffffffff81116102c3576102eb9201610629565b610363610688366004610644565b906118f6565b346102c35761069e3660046103d2565b6103206104106113fb565b9091610180828403126102c357813567ffffffffffffffff81116102c357836106d3918401610629565b926106e18160208501610462565b926106ef8260408301610462565b926106fd8360608401610462565b9261070b816080850161032a565b926107198260a0830161032a565b926107278360c0840161032a565b926107358160e0850161032a565b9261074482610100830161032a565b926102eb61075684610120850161032a565b9361076581610140860161032a565b936101600161032a565b346102c3576103636107823660046106a9565b9a999099989198979297969396959495612433565b91906040838203126102c3576102eb906107b1818561032a565b93602001610389565b346102c3576103206104106107d0366004610797565b90614bff565b8015156102bc565b905035906102d5826107d6565b6080818303126102c3576107ff82826102c8565b926102eb61081084602085016107de565b9361081e8160408601610462565b936060016107de565b346102c35761036361083a3660046107eb565b92919091613188565b346102c3576108533660046103d2565b61032061030d611900565b6102eb6102eb6102eb9290565b906104c49061085e565b6102eb90610447906001600160a01b031682565b6102eb90610875565b6102eb90610889565b906104c490610892565b6102eb916008021c81565b906102eb91546108a5565b6108d66102eb926108d16101949360009461086b565b61089b565b6108b0565b346102c3576103206104106108f136600461046f565b906108bb565b6102eb600061019d6108b0565b346102c3576109143660046103d2565b6103206104106108f7565b909182601f830112156102c35781359167ffffffffffffffff83116102c35760200192600183028401116102c357565b600711156102c357565b905035906102d58261094f565b9190610160838203126102c357823567ffffffffffffffff81116102c3578161099091850161091f565b9290936109a08360208301610959565b926109ae8160408401610462565b92606083013567ffffffffffffffff81116102c357826109cf91850161091f565b9290936109df826080830161032a565b926109ed8360a08401610462565b926109fb8160c08501610462565b92610a098260e0830161032a565b926102eb610a1b84610100850161032a565b93610a2a81610120860161032a565b936101400161032a565b346102c357610320610410610a4a366004610966565b9b9a909a99919998929897939796949661467f565b346102c357610363610a7236600461046f565b90612f9f565b346102c357610a883660046103d2565b610320600080516020615d4a833981519152610410565b346102c357610aaf3660046103d2565b61036361257f565b91906040838203126102c3576102eb90610ad18185610462565b936020016107de565b346102c357610363610aed366004610ab7565b90613064565b91906040838203126102c3576102eb906103b0818561032a565b346102c357610320610b29610b23366004610af3565b90610ea7565b6040515b918291826001600160a01b03909116815260200190565b634e487b7160e01b600052602160045260246000fd5b60071115610b6457565b610b44565b906102d582610b5a565b6102eb90610b69565b6102ee90610b73565b6020810192916102d59190610b7c565b346102c357610320610bb0610bab366004610337565b613603565b60405191829182610b85565b346102c35761032061030d610bd236600461046f565b90610f2b565b346102c357610363610beb366004610337565b614e89565b6102eb600061019e6108b0565b346102c357610c0d3660046103d2565b610320610410610bf0565b346102c357610363610c2b366004610337565b615109565b6102eb600061085e565b6102eb610c30565b346102c357610c523660046103d2565b610320610410610c3a565b6102eb9081565b6102eb9054610c5d565b61019590610c7b82610c64565b91610c8860018201610c64565b91610c9560028301610c64565b91610ca260038201610c64565b91610caf60048301610c64565b91610cbc60058201610c64565b916102eb6007610cce60068501610c64565b9301610c64565b346102c357610ce53660046103d2565b610320610cf0610c6e565b94610d0398969894919493929360405190565b98899889908152610100810198979690959094909390929091602087015260408601526060850152608084015260a083015260c082015260e00152565b6102eb906104ff6101a09160009261089b565b346102c35761032061030d610d69366004610538565b610d40565b346102c357610320610410610d84366004610337565b610ec7565b346102c357610363610d9c366004610538565b612b81565b6102eb916008021c610447565b906102eb9154610da1565b6102eb6000610192610dae565b6102ee90610892565b6020810192916102d59190610dc6565b346102c357610def3660046103d2565b610320610dfa610db9565b60405191829182610dcf565b346102c357610363610e1936600461046f565b90611158565b6102eb6000610191610dae565b346102c357610e3c3660046103d2565b610320610dfa610e1f565b346102c357610363610e5a366004610337565b61493d565b346102c357610363610e7236600461046f565b90612eed565b635a05180f60e01b6001600160e01b0319821614908115610e97575090565b6102eb9150610ede565b906104c4565b90610ec26102eb6102eb93610eba600090565b506097610ea1565b611f9d565b610ed96102eb6102eb92610eba600090565b611f66565b637965db0b60e01b6001600160e01b0319821614908115610efd575090565b6102eb91506001600160e01b0319166301ffc9a760e01b1490565b6102eb906104db565b6102eb9054610f18565b6102eb916000610f48610f4e93610f40600090565b506065610ea1565b0161089b565b610f21565b6001610f646102eb92610f40600090565b01610c64565b906102d591610f80610f7b82610f53565b610fb8565b906102d591610f94565b906102d591610f6a565b90610fb06102eb610fb593610fa98482611230565b6097610ea1565b611cd8565b50565b6102d59033906110b0565b6102eb9061085e565b60005b838110610fdf5750506000910152565b8181015183820152602001610fcf565b6105ea61100792602092611001815190565b94859290565b93849101610fcc565b61104e6102eb9392611048611048937f416363657373436f6e74726f6c3a206163636f756e7420000000000000000000815260170190565b90610fef565b7001034b99036b4b9b9b4b733903937b6329607d1b815260110190565b61108c6110956020936105ea93611080815190565b80835293849260200190565b95869101610fcc565b601f01601f191690565b60208082526102eb9291019061106b565b906110c26110be8284610f2b565b1590565b6110ca575050565b611139916102eb6110e66110e061112094611cab565b92610fc3565b6110fb6020916110f58361085e565b90611b61565b9261111461110860405190565b94859384019283611010565b90810382520382610592565b6040515b62461bcd60e51b81529182916004830161109f565b0390fd5b906102d59161114e610f7b82610f53565b906102d591611162565b906102d59161113d565b906111776102eb610fb593610fa984826112a9565b611e13565b1561118357565b60405162461bcd60e51b815260206004820152602f60248201527f416363657373436f6e74726f6c3a2063616e206f6e6c792072656e6f756e636560448201526e103937b632b9903337b91039b2b63360891b6064820152608490fd5b6102d591906112016111f133610447565b6001600160a01b0384161461117c565b611162565b9060ff905b9181191691161790565b906112256102eb61122c92151590565b8254611206565b9055565b9061123e6110be8284610f2b565b611246575050565b611261600161125c836000610f48876065610ea1565b611215565b33906112976112916112917f2f8788117e7eff1d82e926ec794901d17c78024a50270940304540a733656f0d9590565b92610892565b926112a160405190565b80805b0390a4565b906112b48183610f2b565b6112bc575050565b6112d1600061125c8382610f48876065610ea1565b33906112976112916112917ff6391f5c32d9c69d2a47ea670b442974b53935d1edc7fd64eb21e047a839171b9590565b1561130857565b60405162461bcd60e51b815260206004820152603860248201527f555550535570677261646561626c653a206d757374206e6f742062652063616c60448201527f6c6564207468726f7567682064656c656761746563616c6c00000000000000006064820152608490fd5b6102eb906113c461138330610892565b6113be6001600160a01b037f0000000000000000000000000000000000000000000000000000000000000000165b916001600160a01b031690565b14611301565b6113f2565b6102eb7f360894a13ba1a3210667c828492db98dca3e2076cc3735a920a3ca505d382bbc61085e565b506102eb6113c9565b6102eb6000611373565b1561140c57565b60405162461bcd60e51b815260206004820152602c60248201527f46756e6374696f6e206d7573742062652063616c6c6564207468726f7567682060448201526b19195b1959d85d1958d85b1b60a21b6064820152608490fd5b1561146d57565b60405162461bcd60e51b815260206004820152602c60248201527f46756e6374696f6e206d7573742062652063616c6c6564207468726f7567682060448201526b6163746976652070726f787960a01b6064820152608490fd5b6102d5906115376114d730610892565b6115167f00000000000000000000000000000000000000000000000000000000000000009161150f6113b1846001600160a01b031690565b1415611405565b6115316113b16115246115b9565b926001600160a01b031690565b14611466565b611576565b9061154961060a836105cd565b918252565b369037565b906102d56115696115638461153c565b936105cd565b601f19016020840161154e565b6102d59061158381612576565b6000906115976115928361085e565b611553565b90611683565b6102d5906114c7565b6102eb90610447565b6102eb90546115a6565b6102eb60006115c96102eb6113c9565b016115af565b6102eb7f4910fdfa16fed3260ed0e7147f7cc6da11a60208b5b9406d12a635614ffd914361085e565b905051906102d582610324565b906020828203126102c3576102eb916115f8565b6040513d6000823e3d90fd5b1561162c57565b60405162461bcd60e51b815260206004820152602960248201527f45524331393637557067726164653a20756e737570706f727465642070726f786044820152681a58589b195555525160ba1b6064820152608490fd5b919061169b60006116956102eb6115cf565b01610f21565b156116ab5750506102d590611829565b8260206116c26116bd6116da96610892565b610892565b6352d1902d906116d160405190565b96879260e01b90565b825260049082905afa60009481611771575b5061174d5760405162461bcd60e51b815260206004820152602e60248201527f45524331393637557067726164653a206e657720696d706c656d656e7461746960448201526d6f6e206973206e6f74205555505360901b6064820152608490fd5b61176c6102d5946117666117626102eb6113c9565b9190565b14611625565b611851565b61179391955060203d811161179a575b61178b8183610592565b810190611605565b93386116ec565b503d611781565b156117a857565b60405162461bcd60e51b815260206004820152602d60248201527f455243313936373a206e657720696d706c656d656e746174696f6e206973206e60448201526c1bdd08184818dbdb9d1c9858dd609a1b6064820152608490fd5b906001600160a01b039061120b565b906118226102eb61122c92610892565b8254611803565b6102d59061183e6118398261190a565b6117a1565b600061184b6102eb6113c9565b01611812565b9161185b8361188d565b815161186a611762600061085e565b11908115611885575b5061187c575050565b610fb591611967565b905038611873565b61189681611829565b6118c07fbc7cd75a20ee27fd9adebab32041f755214dbc6bffa90cc0225b39da2e5c2d3b91610892565b906118ca60405190565b600090a2565b906102d5916118e16114d730610892565b6102d5916118ee82612576565b600191611683565b906102d5916118d0565b6102eb60fb610f21565b3b611918611762600061085e565b1190565b611926602761153c565b7f416464726573733a206c6f772d6c6576656c2064656c65676174652063616c6c6020820152660819985a5b195960ca1b604082015290565b6102eb61191c565b6102eb9161197361195f565b91611998565b3d15611993576119883d61153c565b903d6000602084013e565b606090565b6000806102eb94936119a8606090565b50805190602001845af46119ba611979565b91611a0c565b156119c757565b60405162461bcd60e51b815260206004820152601d60248201527f416464726573733a2063616c6c20746f206e6f6e2d636f6e74726163740000006044820152606490fd5b91929015611a3e57508151611a24611762600061085e565b14611a2d575090565b611a396102eb9161190a565b6119c0565b8290611a48825190565b611a55611762600061085e565b1115611a645750805190602001fd5b6111399061112460405190565b634e487b7160e01b600052601160045260246000fd5b81810292918115918404141715611a9a57565b611a71565b91908201809211611a9a57565b634e487b7160e01b600052603260045260246000fd5b90611acb825190565b811015611ad9570160200190565b611aac565b8015611a9a576000190190565b6104db6102eb6102eb9290565b6102eb90611b0c6117626102eb9460ff1690565b901c90565b15611b1857565b60405162461bcd60e51b815280611139600482016020808252818101527f537472696e67733a20686578206c656e67746820696e73756666696369656e74604082015260600190565b9190600292611b8d611592611b7e84611b798861085e565b611a87565b611b878761085e565b90611a9f565b916000906030611ba5611b9f8461085e565b86611ac2565b53611bdd611bd4600f60fb1b92611b796001998a95871a611bce611bc88861085e565b8b611ac2565b5361085e565b611b878361085e565b905b611c01575b506102eb93945090611bfb6117626102eb9361085e565b14611b11565b91611c0b8661085e565b831115611c79576f181899199a1a9b1b9c1cb0b131b232b360811b611c30600f61085e565b8216906010821015611ad9578792611c50611c6d92611c73941a60f81b90565b851a611c5c8789611ac2565b53611c676004611aeb565b90611af8565b93611ade565b90611bdf565b91611be4565b6102eb9081906001600160a01b031681565b6102eb6014611aeb565b6102eb6102eb6102eb9260ff1690565b611cc8611cc36102eb92611cbd606090565b50610889565b611c7f565b6110f5611cd3611c91565b611c9b565b90611d00611762611cfb611cc360006102eb96611cf3600090565b500194610889565b61085e565b611d9d565b8054821015611ad957611d1f600191600052602060002090565b91020190600090565b9160001960089290920291821b911b61120b565b9190611d4b6102eb61122c9390565b908354611d28565b90815491600160401b8310156105b45782611d769160016102d595018155611d05565b90611d3c565b906000199061120b565b90611d966102eb61122c9261085e565b8254611d7c565b611daa6110be8383611de3565b15611ddc57611dd791611dd2906001611dcb84611dc78482611d53565b5490565b9301610ea1565b611d86565b600190565b5050600090565b611e01916001611dfc92611df5600090565b5001610ea1565b610c64565b611e0e611762600061085e565b141590565b90611e2e611762611cfb611cc360006102eb96611cf3600090565b611ea7565b91908203918211611a9a57565b634e487b7160e01b600052603160045260246000fd5b6102d591600091611d3c565b80548015611e85576000190190611e82611e7c8383611d05565b90611e56565b55565b611e40565b9190611d4b6102eb61122c9361085e565b6102d591600091611e8a565b90611eb8611dfc8260018501610ea1565b600092611ec48461085e565b8214611f17576102eb92611f1d9492611f2892611f226001978893611ef1611eeb8661085e565b82611e33565b88850191611f0f611f00845490565b611f098961085e565b90611e33565b828103611f2d575b50505090565b611e62565b01610ea1565b611e9b565b611d76611f56611f5e94611f4d611f47611dd29589611d05565b906108b0565b92839188611d05565b888801610ea1565b388080611f17565b611f7c60006102eb92611f77600090565b500190565b60006102eb91611f8a600090565b50015490565b6104476102eb6102eb9290565b611fc2611fbd6102eb93611fb86000611fc795611f77600090565b611fcc565b610fc3565b611f90565b610889565b6102eb916000611f4792611fde600090565b5001611d05565b6102eb9060081c6104db565b6102eb9054611fe5565b1561200257565b60405162461bcd60e51b815260206004820152602e60248201527f496e697469616c697a61626c653a20636f6e747261637420697320616c72656160448201526d191e481a5b9a5d1a585b1a5e995960921b6064820152608490fd5b6104db6102eb6102eb9260ff1690565b906112256102eb61122c9261205e565b9061ff009060081b61120b565b9061209b6102eb61122c92151590565b825461207e565b6102ee90611aeb565b6020810192916102d591906120a2565b999693909a979491926121149996936120d76110be6000611ff1565b9c8d9c8d806121b8575b8015612173575b6120f190611ffb565b60019e8f9061210961210283611aeb565b600061206e565b612162575b50612204565b61211b5750565b61212660008061208b565b61215d7f7f26b83ff96e1f2b6a682f133852f6798a09c465da95921460cefb38474024989161215460405190565b918291826120ab565b0390a1565b61216d90600061208b565b8e61210e565b506121886110be61218330610892565b61190a565b80156120e857506120f161219c6000610f21565b6121b06121a96001611aeb565b9160ff1690565b1490506120e8565b506121c36000610f21565b6121d06121a96001611aeb565b106120e1565b6102eb90611f90565b634e487b7160e01b600052601260045260246000fd5b81156121ff570490565b6121df565b509550969397929098955060009461221b866121d6565b6001600160a01b0381166001600160a01b038c1614908115612416575b81156123fa575b506123e85761224c6124b9565b61225461251d565b61225c6124d9565b6122646124b9565b8961226d610c30565b9061227791610f80565b61228f8a600080516020615d4a833981519152610f80565b6122a78a600080516020615d6a833981519152610f80565b6122b090610892565b966122bd88610191611812565b6122c690610892565b976122d389610192611812565b6122de61025861085e565b6122ea9061019d611d86565b6122f76301e1338061085e565b6123039061019e611d86565b6101959586019061231391611d86565b6123208260018701611d86565b61232d9060028601611d86565b61233a8160038601611d86565b612344606461085e565b61234d916121f5565b61235a9060048501611d86565b6123679060058401611d86565b6123749060068301611d86565b6007019061238191611d86565b600161019f8161239863a9059cbb60e01b836104b8565b906123a291611215565b63095ea7b360e01b6123b3916104b8565b906123bd91611215565b7f4ca662a5f1f012e4d740b256559dce10a6b72cdec96be0142f5e2eb49dd37a6e9261129790610892565b60405163d92e233d60e01b8152600490fd5b6001600160a01b031690506001600160a01b038916143861223f565b90506001600160a01b0381166001600160a01b0383161490612238565b906102d59b9a9998979695949392916120bb565b1561244e57565b60405162461bcd60e51b815260206004820152602b60248201527f496e697469616c697a61626c653a20636f6e7472616374206973206e6f74206960448201526a6e697469616c697a696e6760a81b6064820152608490fd5b6102d56124b46000611ff1565b612447565b6102d56124a7565b6124ce6124b46000611ff1565b6102d56102d56124fd565b6102d56124c1565b6124ee6124b46000611ff1565b6102d56102d5600060fb611215565b6102d56124e1565b6125126124b46000611ff1565b6102d56102d5612556565b6102d5612505565b6125326124b46000611ff1565b6102d5612544565b6102eb600161085e565b6102d561254f61253a565b60c9611d86565b6102d5612525565b506102d5600080516020615d4a833981519152610fb8565b6102d59061255e565b3361259b6110be82600080516020615d6a833981519152610f2b565b80612613575b806125f0575b6125dd576125b361267a565b6118c07f81990fd9a5c552b8e3677917d8a03c07678f0d2cb68f88b634aca2022e9bd19f91610892565b6040515b63ea8e4eb560e01b8152600490fd5b506126026104476116bd6101926115af565b6001600160a01b03821614156125a7565b5061262f6110be82600080516020615d4a833981519152610f2b565b6125a1565b61263c6126c1565b6102d561264b600160fb611215565b3361215d7f62e78cea01bee320cd4e420270b5ea74000d11b0c9f74754ebdbfc544b05a25891610b2d60405190565b6102d5612634565b1561268957565b60405162461bcd60e51b815260206004820152601060248201526f14185d5cd8589b194e881c185d5cd95960821b6044820152606490fd5b6102d56126cf6110be611900565b612682565b336126f06110be82600080516020615d4a833981519152610f2b565b8061272c575b6125dd57612702612795565b6118c07f5b65b0c1363b3003db9bcc5e1fd8805a6d6bf5bf6dc9d3431ee4494cd7d1176691610892565b5061273e6104476116bd6101926115af565b6001600160a01b03821614156126f6565b6127576127e0565b6102d5612766600060fb611215565b3361215d7f5db9ee0a495bf2e6ff9c91a7834c1ba4fdd244a5e8aa4e537bd38aeae4b073aa91610b2d60405190565b6102d561274f565b156127a457565b60405162461bcd60e51b815260206004820152601460248201527314185d5cd8589b194e881b9bdd081c185d5cd95960621b6044820152606490fd5b6102d56127eb611900565b61279d565b612807600080516020615d4a833981519152610fb8565b6102d56128126129c7565b61253261284f565b6040808252600b908201526a11551217d49154d0d5515160aa1b606082015291906102d590602060808501940152565b940152565b61285830610892565b316000906128658261085e565b81146129565761287433610892565b916128ac818061288386610892565b61288e61753061085e565b908661289960405190565b9182800393f16128a7611979565b501590565b61294457827fb3579861130e4da8bb7b87c54d2d139937f23bcd6e4ebed9e75d0f78ab1cc1186128db60405190565b848152602090a260059061290d6128f160405190565b809461290160208301918261281a565b90810382520384610592565b6112a461293161292b600080516020615d2a8339815191529361085e565b93611aeb565b9361293b60405190565b9182918261109f565b6040516312171d8360e31b8152600490fd5b6040515b63162908e360e11b8152600490fd5b6102d56127f0565b6102eb600261085e565b1561298257565b60405162461bcd60e51b815260206004820152601f60248201527f5265656e7472616e637947756172643a207265656e7472616e742063616c6c006044820152606490fd5b6102d56129d460c9610c64565b61254f6129df612971565b9182141561297b565b6102d590612a03600080516020615d4a833981519152610fb8565b61253290612a0f6129c7565b612a59565b6060808252600d908201526c115490cc8c17d49154d0d55151609a1b60808201526001600160a01b03909116602082015260a0810192916102d59160400152565b0152565b600090612a68610447836121d6565b6001600160a01b038216146123e85780612a84612ad092610892565b926020612a9085610892565b6370a0823190612ab9612aa230610892565b92612aac60405190565b9788948593849360e01b90565b83526001600160a01b031660048301526024820190565b03915afa928315612b7c578193612b5c575b50612aec8161085e565b83146129565761290d6129019333612b05828289612bc0565b612b2f7f8bbfbb5d7fcacf6fc74005cdede0635561638507f576c95f7f294c22141be2e591610892565b968791612b3b60405190565b848152602090a3600593612b4e60405190565b958692602084019283612a14565b612b7591935060203d811161179a5761178b8183610592565b9138612ae2565b611619565b6102d5906129e8565b6104ab612b9d6102eb9263ffffffff1690565b60e01b90565b6001600160a01b0390911681526040810192916102d59160200152565b612c03600492612bf46102d595612bda63a9059cbb612b8a565b92612be460405190565b9687946020860190815201612ba3565b60208201810382520383610592565b612cc3565b612c12602061153c565b7f5361666545524332303a206c6f772d6c6576656c2063616c6c206661696c6564602082015290565b6102eb612c08565b905051906102d5826107d6565b906020828203126102c3576102eb91612c43565b15612c6b57565b60405162461bcd60e51b815260206004820152602a60248201527f5361666545524332303a204552433230206f7065726174696f6e20646964206e6044820152691bdd081cdd58d8d9595960b21b6064820152608490fd5b6102d591612cd3612ce292610892565b90612cdc612c3b565b91612d20565b8051612cf1611762600061085e565b14908115612d00575b50612c64565b612d1a91506020612d0f825190565b818301019101612c50565b38612cfa565b6102eb9291612d2f600061085e565b91612d90565b15612d3c57565b60405162461bcd60e51b815260206004820152602660248201527f416464726573733a20696e73756666696369656e742062616c616e636520666f6044820152651c8818d85b1b60d21b6064820152608490fd5b9060006102eb94938192612da2606090565b50612db9612daf30610892565b8390311015612d35565b60208101905191855af16119ba611979565b9033612de86110be82600080516020615d4a833981519152610f2b565b9081612dfd575b506125dd576102d591612e1b565b9050612e136113b16104476116bd6101926115af565b141538612def565b90600091612e2b610447846121d6565b6001600160a01b038316146123e857600080516020615d4a833981519152808214612e9f575b50612e5c8282611158565b612e9a612e90612e8a7f7c979cc3cab9cb8d7e7656686686502286ec685affa74ac6634a2be36cb68a839390565b93610892565b9361031160405190565b0390a3565b612ea890610ec7565b612eb5611762600161085e565b118015612eda575b15612ec85738612e51565b604051636059882f60e11b8152600490fd5b506001600160a01b038216331415612ebd565b906102d591612dcb565b9033612f146110be82600080516020615d4a833981519152610f2b565b9081612f29575b506125dd576102d591612f47565b9050612f3f6113b16104476116bd6101926115af565b141538612f1b565b90612f5561044760006121d6565b6001600160a01b038216146123e857612f6e8183610f8a565b600191612e9a612e90612e8a7f7c979cc3cab9cb8d7e7656686686502286ec685affa74ac6634a2be36cb68a839390565b906102d591612ef7565b9033612fc66110be82600080516020615d4a833981519152610f2b565b9081612fdb575b506125dd576102d591612ff9565b9050612ff16113b16104476116bd6101926115af565b141538612fcd565b61300661044760006121d6565b6001600160a01b038216146123e85781156130475761303381600080516020615d6a833981519152610f8a565b600080516020615d6a833981519152612e5c565b61305f81600080516020615d6a833981519152611158565b613033565b906102d591612fa9565b6102d59392919061308c600080516020615d4a833981519152610fb8565b6130ea565b6104ab612b9d6102eb9290565b6130e26102d5946130d26060949897956130c9608086019a60008701906001600160e01b0319169052565b15156020850152565b6001600160a01b03166040830152565b019015159052565b90919261215d9061311a61044760006131056104ab82613091565b6001600160e01b0319871603613173576121d6565b6001600160a01b0386160361315e575b7fafa2cd5aa57d1ad069bcc204940405dda70a612b4ccb490493786b13a0ee16ad9461315560405190565b9485948561309e565b61316e8161125c876101a061089b565b61312a565b6131838761125c8861019f6104b8565b6121d6565b906102d593929161306e565b90336131b16110be82600080516020615d4a833981519152610f2b565b90816131c6575b506125dd576102d59161322a565b90506131dc6113b16104476116bd6101926115af565b1415386131b8565b6102eb6000611aeb565b6102eb6005611aeb565b6102eb6006611aeb565b6102eb6007611aeb565b9081526060810193926102d5929091604091612a55905b6020830152565b6132356104db6131e4565b60ff8216036132ad5761324c6102eb61019d610c64565b82108015613297575b61326357906102d591613392565b5061326f61019d610c64565b9061113961327e61019e610c64565b60405163206f4e1160e21b81529384936004850161320c565b506132a66102eb61019e610c64565b8211613255565b906132b96104db6131ee565b60ff831614801561332b575b8015613315575b156132fc576132db606461085e565b81116132ea576102d591613392565b604051631f3b85d360e01b8152600490fd5b613306600061085e565b8114612956576102d591613392565b506133216104db613202565b60ff8316146132cc565b506133376104db6131f8565b60ff8316146132c5565b906102d591613194565b6102eb6001611aeb565b6102eb6002611aeb565b6102eb6003611aeb565b6102eb6004611aeb565b60ff90911681526060810193926102d5929091604091612a5590613223565b600061339f6104db6131e4565b60ff8316036133f75750610195906133c0836133ba84610c64565b93611d86565b61215d7f8504164e5e8ef70117aea5f1895915b866f4d269354e88e147062469f1dc483f936133ee60405190565b93849384613373565b6134026104db61334b565b60ff83160361342257506101969061341d836133ba84610c64565b6133c0565b61342d6104db613355565b60ff83160361344857506101979061341d836133ba84610c64565b6134536104db61335f565b60ff83160361346e57506101989061341d836133ba84610c64565b6134796104db613369565b60ff83160361349457506101999061341d836133ba84610c64565b61349f6104db6131ee565b60ff8316036134ba575061019a9061341d836133ba84610c64565b6134c56104db6131f8565b60ff8316036134e0575061019b9061341d836133ba84610c64565b906134ec6104db613202565b60ff82160361341d5761019c915061341d836133ba84610c64565b8054821015611ad957611d1f601291600052602060002090565b6102eb9060101c5b65ffffffffffff1690565b6102eb9054613521565b6102eb6102eb6102eb9265ffffffffffff1690565b905051906102d582610453565b9092919261357061060a826105cd565b938185526020850190828401116102c3576102d592610fcc565b9080601f830112156102c35781516102eb92602001613560565b919060a0838203126102c3576135ba8184613553565b926135c882602083016115f8565b92604082015167ffffffffffffffff81116102c3576135ec846102eb92850161358a565b936135fa81606086016115f8565b93608001612c43565b6101936136116102eb825490565b821015613872576136299161362591613507565b5090565b8061363b61363682610f21565b61389a565b15613647575050600190565b61365861365383610f21565b613884565b15613664575050600590565b429161367761367282613534565b61353e565b83101561368657505050600090565b6001820161369381610c64565b60028401906136a76117626102eb84610c64565b1115918215613832575b5050156136c057505050600290565b6110be6136cf6136d492610f21565b6138ac565b156136e0575050600390565b600701906136ed82610c64565b916000926137006117626102eb8661085e565b0361370e575b505050600490565b82613757916137216116bd6101926115af565b613749613732634aae13ca93610c64565b9261373c60405190565b9586948593849360e01b90565b835260048301526024820190565b03915afa8015612b7c5783918491613807575b50155b9283613788575b50505061378357388080613706565b600690565b6137b791929350602061379f6116bd6101926115af565b63a06db7dc906137ae60405190565b94859260e01b90565b825260049082905afa8015612b7c576137de93611762936102eb93926137e7575b50611a9f565b11388080613774565b61380091925060203d811161179a5761178b8183610592565b90386137d8565b61376d925061382891503d8086833e6138208183610592565b8101906135a4565b935093505061376a565b613859925090611b8761384761384d93610c64565b91610c64565b611b8760038501610c64565b61386a6117626102eb610196610c64565b1038806136b1565b604051630992f7ad60e01b8152600490fd5b61388c61334b565b16611e0e6121a96000611aeb565b61388c613355565b6102eb6008611aeb565b61388c6138a2565b906102eb9d9c9b9a9998979695949392916138cd6126c1565b906138eb9d9c9b9a9998979695949392916138e66129c7565b613f67565b906102d5612544565b909392938483116102c35784116102c3578101920390565b356001600160e01b0319169060048110613924575090565b61393b9063ffffffff60e01b906004036008021b90565b1690565b9081526040810192916102d59160200152565b6001600160a01b039182168152911660208201526060810192916102d59160400152565b6102eb6102a06105b9565b613989613976565b9060008252602082016000815260200160008152602001600081526020016000815260200160008152602001600081526020016000815260200160008152602001600081526020016000815260200160608152602001600081526020016060815260200160008152602001600081526020016000815260200160008152602001600081526020016000815260200160009052565b6102eb613981565b906102ee90610b69565b6135296102eb6102eb9290565b6102eb9136916105fa565b634e487b7160e01b600052600060045260246000fd5b6102eb9051610b69565b9061209b6102eb61122c92610b73565b9067ffffffffffff00009060101b61120b565b6135296102eb6102eb9265ffffffffffff1690565b90613aaf6102eb61122c92613a8a565b8254613a77565b906dffffffffffff00000000000000009060401b61120b565b90613adf6102eb61122c92613a8a565b8254613ab6565b90611d966102eb61122c9290565b634e487b7160e01b600052602260045260246000fd5b9060016002830492168015613b2a575b6020831014613b2557565b613af4565b91607f1691613b1a565b818110613b3f575050565b80613b4d6000600193611e9b565b01613b34565b9190601f8111613b6257505050565b613b746102d593600052602060002090565b906020601f840181900483019310613b96575b6020601f909101040190613b34565b9091508190613b87565b90613ba9815190565b9067ffffffffffffffff82116105b457613bcd82613bc78554613b0a565b85613b53565b602090601f8311600114613c085761122c929160009183613bfd575b5050600019600883021c1916906002021790565b015190503880613be9565b601f19831691613c1d85600052602060002090565b9260005b818110613c5b57509160029391856001969410613c42575b50505002019055565b01516000196008601f8516021c19169055388080613c39565b91936020600181928787015181550195019201613c21565b906102d591613ba0565b90613c86815190565b9067ffffffffffffffff82116105b457613ca482613bc78554613b0a565b602090601f8311600114613cd35761122c929160009183613bfd575050600019600883021c1916906002021790565b601f19831691613ce885600052602060002090565b9260005b818110613d0c57509160029391856001969410613c425750505002019055565b91936020600181928787015181550195019201613cec565b906102d591613c7d565b6102d59190613dac9061028090601190613d9a81613d56613d50885160ff1690565b8261206e565b613d6b613d6560208901613a5d565b82613a67565b613d87613d81604089015165ffffffffffff1690565b82613a9f565b606087015165ffffffffffff1690613acf565b613db260018201613dac608088015190565b90611d86565b613dc460028201613dac60a088015190565b613dd660038201613dac60c088015190565b613df760048201613df160e08801516001600160a01b031690565b90611812565b613e0a60058201613dac61010088015190565b613e1d60068201613dac61012088015190565b613e3660078201613e3061014088015190565b90613ae6565b613e4f60088201613e4961016088015190565b90613c73565b613e6b60098201613df16101808801516001600160a01b031690565b613e84600a8201613e7e6101a088015190565b90613d24565b613ea0600b8201613df16101c08801516001600160a01b031690565b613eb3600c8201613dac6101e088015190565b613ecf600d8201613df16102008801516001600160a01b031690565b613ee2600e8201613dac61022088015190565b613ef5600f8201613dac61024088015190565b613f0860108201613dac61026088015190565b0192015190565b9190613f1e576102d591613d2e565b613a47565b90815491600160401b8310156105b45782613f469160016102d595018155613507565b90613f0f565b9160206102d5929493612a5560408201966000830190610b7c565b9c9395969b949799919c9a9298909a50613f816000610b69565b613f8a8a610b69565b0361447857613f9c61044760006121d6565b6001600160a01b038716146123e857600487613fba6117628361085e565b1061445957613fef6110be610f4e613fe7613fe18d60008e613fdb8961085e565b926138f4565b9061390c565b61019f6104b8565b61443a57505b6140036116bd6101916115af565b602061400e60405190565b6370a0823160e01b815233600482015291829060249082905afa908115612b7c5760009161441c575b506101989061404b6117626102eb84610c64565b10614388575061405f6116bd6101916115af565b602063e4b797c19161407030610892565b9061409b6000614081610199610c64565b956140a761408e60405190565b9788968795869460e01b90565b84523360048501613952565b03925af18015612b7c576140c19160009161436057501590565b61294457610193549c6140d2613a1d565b3360e08201529b6140e68b60208f01613a25565b8c426140f3610195610c64565b6140fd9082611a9f565b61410690613a2f565b65ffffffffffff16604083015261411c90613a2f565b65ffffffffffff166060909101528c614136610199610c64565b614141916101200152565b6101608d019161415091613a3c565b905261415d6101916115af565b61416690610892565b9b631504d8f09c61417660405190565b614181819f60e01b90565b90528d6004815a602094600091f19a8b15612b7c576141b361423f9c6142339f8f9060009261433c575b506101000152565b6141bd6000610b69565b6141c68c610b69565b0361427e5750505050505050906141ed6141f8926101808801906001600160a01b03169052565b6101a0860192613a3c565b90525b61420783610193613f23565b61421b6101006142156131e4565b94015190565b9061422560405190565b948592602084019283613f4c565b90810382520383610592565b600080516020615d2a8339815191529061426161425b8561085e565b9161205e565b9161427861426e33610892565b9461293b60405190565b0390a490565b929598509295509295506142926003610b69565b61429b89610b69565b036142d757505050926142c26142ca926142ba6142d2966102208b0152565b610240890152565b610260870152565b610280850152565b6141fb565b9093506142ef91955061430894506143009250610892565b6001600160a01b03166101c0880152565b6101e0860152565b6143126004610b69565b61431b83610b69565b14614327575b506141fb565b6001600160a01b031661020084015238614321565b6101009192506143599060203d811161179a5761178b8183610592565b91906141ab565b6110be915060203d8111614381575b6143798183610592565b810190612c50565b503d61436f565b6143966116bd6101916115af565b9060206143a260405190565b6370a0823160e01b815233600482015292839060249082905afa918215612b7c576000926143f8575b506143d590610c64565b906111396143e260405190565b63cf47918160e01b81529283926004840161393f565b6143d59192506144159060203d811161179a5761178b8183610592565b91906143cb565b614434915060203d811161179a5761178b8183610592565b38614037565b6111399061444760405190565b631cd4b64760e21b8152918291820190565b6111399061446660405190565b638129bbcd60e01b8152918291820190565b600161448381610b69565b61448c8b610b69565b036144c2575061449f61044760006121d6565b6144a88b610892565b146123e8576144b7600061085e565b8c1461295657613ff5565b6144cc6002610b69565b6144d58b610b69565b036144e8575061449f61044760006121d6565b6144f26004610b69565b6144fb8b610b69565b03614554575061450b60006121d6565b6001600160a01b03811661451e8c610892565b146123e8578c614531611762600061085e565b14612956576001600160a01b03166001600160a01b038216146123e8575b613ff5565b61455e6003610b69565b6145678b610b69565b03614611576145c59060009061457c8261085e565b8511614609575b61458d600061085e565b8611614601575b6145a26102eb61019d610c64565b881015806145ea575b6145e2575b6145ba600061085e565b87116145dc57501590565b15613ff557604051632bac1e9760e11b8152600490fd5b90501590565b9050806145b0565b506145f96102eb61019e610c64565b8811156145ab565b905080614594565b905080614583565b5061461c6005610b69565b6146258a610b69565b148015614665575b1561454f5761463f61044760006121d6565b6146488b610892565b146123e857614657600061085e565b8c0361454f5760405161295a565b506146706006610b69565b6146798a610b69565b1461462d565b6102eb9c9b9a9998979695949392919060006138b4565b6101936146a46102eb825490565b821015613872576146c461363660006146bd8585613507565b5001610f21565b6146f95761365360006146bd846146da94613507565b6146e7576102d59061470b565b60405163cf88c65760e01b8152600490fd5b604051636cdcc09360e11b8152600490fd5b612532906147176129c7565b61472661362582610193613507565b3390614737610447600483016115af565b6001600160a01b038316036149155761475260018201610c64565b6000906147616117628361085e565b141580156148f5575b80156148d5575b6148c35761478761176261367242938501613534565b10156148b1575b8061479b6136cf82610f21565b8061488d575b61480d575b6147c291506147bc6147b782610f21565b614946565b9061206e565b6147ca61334b565b6147ee6112916147e8600080516020615d2a8339815191529561085e565b9261205e565b926147f860405190565b602080825260009082015280604081016112a4565b61481b6116bd6101926115af565b9161482d60076370ba33399201610c64565b833b156102c357614855936137496000809461484860405190565b9788958694859360e01b90565b03925af1918215612b7c576147c29261486f575b506147a6565b61488790600061487f8183610592565b8101906103d2565b38614869565b5061489a60078301610c64565b6148aa6117626102eb600061085e565b14156147a1565b604051637a19ed0560e01b8152600490fd5b604051637c9a1cf960e01b8152600490fd5b506148e260038301610c64565b6148ee6117628361085e565b1415614771565b5061490260028301610c64565b61490e6117628361085e565b141561476a565b6149306110be83600080516020615d6a833981519152610f2b565b1561478e576040516125e1565b6102d590614696565b61494e613355565b1790565b906102eb92916149606126c1565b91906101936149706102eb825490565b8210156138725761498961363660006146bd8585613507565b6146f95761365360006146bd8461499f94613507565b6146e7576102eb926149c3565b60ff90911681526040810192916102d59160200152565b50906002906149d182611aeb565b60ff821611614bed57610194926149e8818561086b565b906149f7611dfc33809461089b565b93600094614a076117628761085e565b036148c357614a1b61362583610193613507565b90614a2542613a2f565b614a42614a36613529898601613534565b9165ffffffffffff1690565b116148b157614a93966020614a5b6116bd6101916115af565b639371672e90614a87614a7060058801610c64565b92614a7a60405190565b9c8d948593849360e01b90565b83528b60048401612ba3565b03915afa978815612b7c578798614bcd575b50614aaf8761085e565b8814614bbb57614b2596614ace89611dd2886108d189614ad39761086b565b611aeb565b60ff861603614b7a57614af39101613dac87614aee83610c64565b611a9f565b614b1d7fb83d25c6a5d258561330739951487acb4bd09ba5190b5d32c4f261817d9067929161085e565b938492610892565b938491614b3160405190565b80614b3d8988836149ac565b0390a36006614b5f614b4e60405190565b8094612901886020840192836149ac565b614278612931600080516020615d2a83398151915292611aeb565b506001614b8681611aeb565b60ff861603614ba657614ba19101613dac87614aee83610c64565b614af3565b506003614ba19101613dac87614aee83610c64565b604051631f05dadd60e21b8152600490fd5b614be691985060203d811161179a5761178b8183610592565b9638614aa5565b604051638eed55d160e01b8152600490fd5b6102eb91906000614952565b6102d590614c176126c1565b610193614c256102eb825490565b82101561387257614c3e61363660006146bd8585613507565b6146f95761365360006146bd84614c5494613507565b6146e7576102d59061253290614c686129c7565b614cb8565b6102ee9061085e565b9493916060916102d594614cab61284a93614ca160808b019460008c01906001600160a01b03169052565b60208a0190614c6d565b878203604089015261106b565b614cc181613603565b614cd4614cce6003610b69565b91610b69565b03614e775780614d89614cee613625600494610193613507565b614d2e614cfe63a01fc1c6612b8a565b614d1f85614d0b60405190565b978893602085019081520190815260200190565b60208201810382520385610592565b6020614d3e6116bd6101926115af565b94638e361cdf95614d7e614d5130610892565b9260009889978892614d67600261019501610c64565b90614d7160405190565b9c8d988997889660e01b90565b865260048601614c76565b03925af1938415612b7c578294614e51575b509081614dae856007614dc09501613ae6565b016147bc614dbb82610f21565b614e92565b614dea7f698a777b9614d463e4ad86ac0dc09595c1ae579ca661dd1cb09391857175404a9161085e565b90818391614df760405190565b600090a3614e03613355565b903391614e2d614e1260405190565b60208101958652948590604082015b90810382520385610592565b6112a461426e614e4b600080516020615d2a8339815191529361205e565b94610892565b614dc092919450614e6f9060203d811161179a5761178b8183610592565b939091614d9b565b6040516354f482db60e11b8152600490fd5b6102d590614c0b565b61494e6138a2565b6102d590614ea66126c1565b610193614eb46102eb825490565b82101561387257614ecd61363660006146bd8585613507565b6146f95761365360006146bd84614ee394613507565b6146e7576102d59061253290614ef76129c7565b614f22565b906020828203126102c357815167ffffffffffffffff81116102c3576102eb920161358a565b614f3a614f3461362583610193613507565b91613603565b90600491614f4a614cce84610b69565b0361506a57600701614f5b81610c64565b91600092614f6e6117626102eb8661085e565b1461504b57614fa66020614f866116bd6101926115af565b63f2b0653790614f9861373287610c64565b835288830190815260200190565b03915afa8015612b7c57614fbf91859161436057501590565b61502c578290614fd36116bd6101926115af565b614ff283614fe563c69ed5f296610c64565b95614fff61408e60405190565b8452830190815260200190565b03925af18015612b7c57615011575050565b610fb5913d8091833e6150248183610592565b810190614efc565b6111399061503960405190565b637c26b93d60e01b8152918291820190565b6111399061505860405190565b63c0ea43e160e01b8152918291820190565b6111398261507760405190565b63ccbc0d7160e01b8152918291820190565b6102d590614e9a565b606080825260149082015273494e53554646494349454e545f42414c414e434560601b60808201529092916102d591604090612a5560a08201966020830152565b6040808252600d908201526c14915195539117d19052531151609a1b60608201526080602082018190526102eb9291019061106b565b3361511b6104476116bd6101926115af565b6001600160a01b038216036125dd576101936151386102eb825490565b831015613872576136258361514c92613507565b8061515961365382610f21565b6146e75761516c6110be6136cf84610f21565b6154475761517984615510565b61519361518d61518884610f21565b615461565b8361206e565b6151a76110be6151a284610f21565b615459565b615202575b506151be6151b861335f565b91611ff1565b926151db6151cb60405190565b8095614e21602083019182610b85565b6112a461426e614e4b6151fc600080516020615d2a8339815191529461085e565b9461205e565b61522e6152136116bd6101916115af565b9160206370a0823161522430610892565b946137ae60405190565b82526001600160a01b038616600483015260249082905afa918215612b7c57600092615427575b5060068101916152676102eb84610c64565b81106153c85750602061527e6116bd6101916115af565b93600463e4b797c19301946152b56000615297886115af565b956152c06152a489610c64565b6040515b9889978896879560e01b90565b855260048501613952565b03925af190816153ac575b5061533357506152d9611979565b906152e56005916115af565b906153026152f260405190565b80946129016020830191826150d3565b600080516020615d2a83398151915261532961426e614e4b6153238a61085e565b94611aeb565b0390a45b386151ac565b6129019161535161534b61534686610f21565b615469565b8561206e565b61538361535f6005926115af565b9261536b6138476131e4565b9061537560405190565b9586926020840192836149ac565b600080516020615d2a8339815191526153a461426e614e4b6153238a61085e565b0390a461532d565b6153c39060203d8111614381576143798183610592565b6152cb565b909350615406919450614e219592506153ee6153e86004600596016115af565b95610c64565b906153f860405190565b968792602084019283615092565b6112a461426e614e4b615323600080516020615d2a8339815191529461085e565b61544091925060203d811161179a5761178b8183610592565b9038615255565b60405163ccbc0d7160e01b8152600490fd5b61388c613369565b61494e61334b565b61494e613369565b8054600093929161548861548483613b0a565b9390565b91600181169081156154d957506001146154a157505050565b6154b49192939450600052602060002090565b6000905b8382106154c55750500190565b6001816020925484860152019101906154b8565b60ff191683525050811515909102019150565b6102eb91615471565b6702330b4b632b21d160c51b81526102eb9190600801611048565b61551f61362582610193613507565b90819061552b82611ff1565b615538614cce6001610b69565b036155d857505090600b82019161554e836115af565b906000916155616113b1610447856121d6565b146123e857600c019261557384610c64565b61557f6117628461085e565b146129565761558d30610892565b803161559e6117626102eb88610c64565b106155ce57506155c892936155b661384784936115af565b60405190818003925af16128a7611979565b61294457565b316143d585610c64565b6155e182611ff1565b6155ee614cce6002610b69565b03615689575050600b8101615602816115af565b916000926156156113b1610447866121d6565b146123e857600c019061562782610c64565b6156336117628561085e565b14612956576020906156496116bd6101916115af565b6152b58563e4b797c16156706152a461566a61566430610892565b976115af565b98610c64565b03925af1908115612b7c576155c8929161436057501590565b91615695829492611ff1565b926004936156a5614cce86610b69565b03615787575090919250600b8101906156bd826115af565b936000916156ca836121d6565b956156dd6001600160a01b0388166113b1565b1461577a57600c8101926156fc6117626156f686610c64565b9261085e565b1461575b57600d01946157146113b1611524886115af565b1461573c57506157366138476157306116bd6102d596976115af565b936115af565b91612bc0565b6111399061574960405190565b63d92e233d60e01b8152918291820190565b6111398261576860405190565b63162908e360e11b8152918291820190565b6111398261574960405190565b919361579290611ff1565b6000906157a1614cce83610b69565b0361588a5760098201916157b4836115af565b926157be836121d6565b936157d16001600160a01b0386166113b1565b1461587d57906157fb83600a6157e782956115af565b93016157f260405190565b928391826154ec565b03925af19161581061580b611979565b931590565b61581a5750505050565b611139945061582761335f565b9061584461583460405190565b8095614e216020830191826154f5565b61586561426e614e4b6151fc600080516020615d2a8339815191529461085e565b0390a4604051633204506f60e01b8152918291820190565b6111398661574960405190565b809250810161589881611ff1565b6158a5614cce6003610b69565b036159ab5750600e919250600f81016158bd81610c64565b6158c96117628661085e565b11615996575b50601081016158dd81610c64565b6158ee6117626102eb61019d610c64565b101580615974575b61595f575b506011810161590981610c64565b6159156117628661085e565b1161594a575b50019061592d6117626156f684610c64565b116159355750565b6102d59061594461384761335f565b90613392565b61595990615944613847613355565b3861591b565b61596e906159446138476131e4565b386158fb565b5061597e81610c64565b61598f6117626102eb61019e610c64565b11156158f6565b6159a59061594461384761334b565b386158cf565b6159b481611ff1565b6159c1614cce6005610b69565b03615aa25750600b8101906159d5826115af565b6159e46113b1610447866121d6565b14615a9557600c016159f581610c64565b615a016117628561085e565b14615a8857602090615a176116bd6101916115af565b615a3f85615a32615a2c63dd329b5c976115af565b94610c64565b95615a4961408e60405190565b84528b8401612ba3565b03925af1908115612b7c57615a62929161436057501590565b615a695750565b61113990615a7660405190565b6312171d8360e31b8152918291820190565b6111398461576860405190565b6111398461574960405190565b615aab90611ff1565b615ab8614cce6006610b69565b14615ac257505050565b600b810190615ad0826115af565b615adf6113b1610447866121d6565b14615a9557600c01615af081610c64565b615afc6117628561085e565b14615a8857602090615b126116bd6101916115af565b615a3f85615a32615a2c63a89ae7d0976115af565b61253290615b336129c7565b610193615b416102eb825490565b8210156138725761362582615b5592613507565b6004810133615b696113b1610447846115af565b03615d0e5781615b7b6151a282610f21565b615cfc57615b8884613603565b615b926002610b69565b615b9b82610b69565b03615c725750615bc4615bb36006615bd49301610c64565b615bbe61019a610c64565b90611a87565b615bce606461085e565b906121f5565b92615bee615be061334b565b935b6147bc61534682610f21565b615bfc6116bd6101916115af565b602063e4b797c191615c0d30610892565b906152b56000615c1c886115af565b95615c2a8b6152a860405190565b03925af18015612b7c57615c449160009161436057501590565b61294457615406614e2194615c5a6005946115af565b94615c6460405190565b9687926020840192836149ac565b615c7c6001610b69565b615c8582610b69565b03615cba5750615bc4615c9d6006615ca89301610c64565b615bbe61019b610c64565b92615bee615cb461334b565b93615be2565b600690615cc9614cce83610b69565b03615cea57615cdf615bc491615ca89301610c64565b615bbe61019c610c64565b60405163170d50bf60e31b8152600490fd5b60405163542f378d60e11b8152600490fd5b604051637d1b73b960e01b8152600490fd5b6102d590615b2756fe54b806ba9fbc09bfb093dba20b75f7df5ed2e3d53fa9c33bb73ca923d4314869a49807205ce4d355092ef5a8a18f56e8913cf4a201fbe287825b095693c2177555435dd261a4b9b3364963f7738a7a662ad9c84396d64be3365284bb7f0a5041a164736f6c6343000814000a",
  "linkReferences": {},
  "deployedLinkReferences": {}
}