{
  "_format": "hh-sol-artifact-1",
  "contractName": "JustGovernanceUpgradeable",
  "sourceName": "contracts/JustGovernanceUpgradeable.sol",
  "abi": [
    {
      "inputs": [],
      "name": "AlreadyRefunded",
      "type": "error"
    },
    {
      "inputs": [],
      "name": "AlreadyVoted",
      "type": "error"
    },
    {
      "inputs": [],
      "name": "CallFailed",
      "type": "error"
    },
    {
      "inputs": [
        {
          "internalType": "uint256",
          "name": "available",
          "type": "uint256"
        },
        {
          "internalType": "uint256",
          "name": "required",
          "type": "uint256"
        }
      ],
      "name": "InsufficientBalance",
      "type": "error"
    },
    {
      "inputs": [],
      "name": "InvalidAmount",
      "type": "error"
    },
    {
      "inputs": [],
      "name": "InvalidCalldata",
      "type": "error"
    },
    {
      "inputs": [
        {
          "internalType": "uint256",
          "name": "provided",
          "type": "uint256"
        },
        {
          "internalType": "uint256",
          "name": "min",
          "type": "uint256"
        },
        {
          "internalType": "uint256",
          "name": "max",
          "type": "uint256"
        }
      ],
      "name": "InvalidDuration",
      "type": "error"
    },
    {
      "inputs": [],
      "name": "InvalidLockIndex",
      "type": "error"
    },
    {
      "inputs": [],
      "name": "InvalidPercentage",
      "type": "error"
    },
    {
      "inputs": [],
      "name": "InvalidProposalId",
      "type": "error"
    },
    {
      "inputs": [],
      "name": "InvalidSelector",
      "type": "error"
    },
    {
      "inputs": [],
      "name": "InvalidVoteType",
      "type": "error"
    },
    {
      "inputs": [],
      "name": "LastAdminRole",
      "type": "error"
    },
    {
      "inputs": [],
      "name": "NoTxHash",
      "type": "error"
    },
    {
      "inputs": [],
      "name": "NoValidChange",
      "type": "error"
    },
    {
      "inputs": [],
      "name": "NoVotingPower",
      "type": "error"
    },
    {
      "inputs": [],
      "name": "NotAuthorized",
      "type": "error"
    },
    {
      "inputs": [],
      "name": "NotDefeated",
      "type": "error"
    },
    {
      "inputs": [],
      "name": "NotInTimelock",
      "type": "error"
    },
    {
      "inputs": [],
      "name": "NotProposer",
      "type": "error"
    },
    {
      "inputs": [],
      "name": "NotQueued",
      "type": "error"
    },
    {
      "inputs": [],
      "name": "NotSucceeded",
      "type": "error"
    },
    {
      "inputs": [],
      "name": "ProposalCanceled",
      "type": "error"
    },
    {
      "inputs": [],
      "name": "ProposalExecuted",
      "type": "error"
    },
    {
      "inputs": [],
      "name": "ProposalNotExpired",
      "type": "error"
    },
    {
      "inputs": [],
      "name": "TimelockExecutionFailed",
      "type": "error"
    },
    {
      "inputs": [],
      "name": "TransferFailed",
      "type": "error"
    },
    {
      "inputs": [],
      "name": "VotingEnded",
      "type": "error"
    },
    {
      "inputs": [],
      "name": "ZeroAddress",
      "type": "error"
    },
    {
      "anonymous": false,
      "inputs": [
        {
          "indexed": false,
          "internalType": "address",
          "name": "previousAdmin",
          "type": "address"
        },
        {
          "indexed": false,
          "internalType": "address",
          "name": "newAdmin",
          "type": "address"
        }
      ],
      "name": "AdminChanged",
      "type": "event"
    },
    {
      "anonymous": false,
      "inputs": [
        {
          "indexed": true,
          "internalType": "address",
          "name": "beacon",
          "type": "address"
        }
      ],
      "name": "BeaconUpgraded",
      "type": "event"
    },
    {
      "anonymous": false,
      "inputs": [
        {
          "indexed": true,
          "internalType": "address",
          "name": "token",
          "type": "address"
        },
        {
          "indexed": true,
          "internalType": "address",
          "name": "timelock",
          "type": "address"
        },
        {
          "indexed": true,
          "internalType": "address",
          "name": "admin",
          "type": "address"
        }
      ],
      "name": "ContractInitialized",
      "type": "event"
    },
    {
      "anonymous": false,
      "inputs": [
        {
          "indexed": true,
          "internalType": "address",
          "name": "pauser",
          "type": "address"
        }
      ],
      "name": "ContractPaused",
      "type": "event"
    },
    {
      "anonymous": false,
      "inputs": [
        {
          "indexed": true,
          "internalType": "address",
          "name": "unpauser",
          "type": "address"
        }
      ],
      "name": "ContractUnpaused",
      "type": "event"
    },
    {
      "anonymous": false,
      "inputs": [
        {
          "indexed": true,
          "internalType": "address",
          "name": "token",
          "type": "address"
        },
        {
          "indexed": true,
          "internalType": "address",
          "name": "recipient",
          "type": "address"
        },
        {
          "indexed": false,
          "internalType": "uint256",
          "name": "amount",
          "type": "uint256"
        }
      ],
      "name": "ERC20Rescued",
      "type": "event"
    },
    {
      "anonymous": false,
      "inputs": [
        {
          "indexed": true,
          "internalType": "address",
          "name": "recipient",
          "type": "address"
        },
        {
          "indexed": false,
          "internalType": "uint256",
          "name": "amount",
          "type": "uint256"
        }
      ],
      "name": "ETHRescued",
      "type": "event"
    },
    {
      "anonymous": false,
      "inputs": [
        {
          "indexed": false,
          "internalType": "uint8",
          "name": "pType",
          "type": "uint8"
        },
        {
          "indexed": false,
          "internalType": "uint256",
          "name": "oldVal",
          "type": "uint256"
        },
        {
          "indexed": false,
          "internalType": "uint256",
          "name": "newVal",
          "type": "uint256"
        }
      ],
      "name": "GovParamChange",
      "type": "event"
    },
    {
      "anonymous": false,
      "inputs": [
        {
          "indexed": false,
          "internalType": "uint8",
          "name": "version",
          "type": "uint8"
        }
      ],
      "name": "Initialized",
      "type": "event"
    },
    {
      "anonymous": false,
      "inputs": [
        {
          "indexed": false,
          "internalType": "address",
          "name": "account",
          "type": "address"
        }
      ],
      "name": "Paused",
      "type": "event"
    },
    {
      "anonymous": false,
      "inputs": [
        {
          "indexed": true,
          "internalType": "uint256",
          "name": "proposalId",
          "type": "uint256"
        },
        {
          "indexed": true,
          "internalType": "uint8",
          "name": "eventType",
          "type": "uint8"
        },
        {
          "indexed": true,
          "internalType": "address",
          "name": "actor",
          "type": "address"
        },
        {
          "indexed": false,
          "internalType": "bytes",
          "name": "data",
          "type": "bytes"
        }
      ],
      "name": "ProposalEvent",
      "type": "event"
    },
    {
      "anonymous": false,
      "inputs": [
        {
          "indexed": true,
          "internalType": "bytes32",
          "name": "role",
          "type": "bytes32"
        },
        {
          "indexed": true,
          "internalType": "bytes32",
          "name": "previousAdminRole",
          "type": "bytes32"
        },
        {
          "indexed": true,
          "internalType": "bytes32",
          "name": "newAdminRole",
          "type": "bytes32"
        }
      ],
      "name": "RoleAdminChanged",
      "type": "event"
    },
    {
      "anonymous": false,
      "inputs": [
        {
          "indexed": true,
          "internalType": "bytes32",
          "name": "role",
          "type": "bytes32"
        },
        {
          "indexed": true,
          "internalType": "address",
          "name": "account",
          "type": "address"
        },
        {
          "indexed": false,
          "internalType": "bool",
          "name": "isGranted",
          "type": "bool"
        }
      ],
      "name": "RoleChange",
      "type": "event"
    },
    {
      "anonymous": false,
      "inputs": [
        {
          "indexed": true,
          "internalType": "bytes32",
          "name": "role",
          "type": "bytes32"
        },
        {
          "indexed": true,
          "internalType": "address",
          "name": "account",
          "type": "address"
        },
        {
          "indexed": true,
          "internalType": "address",
          "name": "sender",
          "type": "address"
        }
      ],
      "name": "RoleGranted",
      "type": "event"
    },
    {
      "anonymous": false,
      "inputs": [
        {
          "indexed": true,
          "internalType": "bytes32",
          "name": "role",
          "type": "bytes32"
        },
        {
          "indexed": true,
          "internalType": "address",
          "name": "account",
          "type": "address"
        },
        {
          "indexed": true,
          "internalType": "address",
          "name": "sender",
          "type": "address"
        }
      ],
      "name": "RoleRevoked",
      "type": "event"
    },
    {
      "anonymous": false,
      "inputs": [
        {
          "indexed": false,
          "internalType": "bytes4",
          "name": "selector",
          "type": "bytes4"
        },
        {
          "indexed": false,
          "internalType": "bool",
          "name": "selectorAllowed",
          "type": "bool"
        },
        {
          "indexed": false,
          "internalType": "address",
          "name": "target",
          "type": "address"
        },
        {
          "indexed": false,
          "internalType": "bool",
          "name": "targetAllowed",
          "type": "bool"
        }
      ],
      "name": "SecuritySettingUpdated",
      "type": "event"
    },
    {
      "anonymous": false,
      "inputs": [
        {
          "indexed": true,
          "internalType": "uint256",
          "name": "proposalId",
          "type": "uint256"
        },
        {
          "indexed": true,
          "internalType": "bytes32",
          "name": "txHash",
          "type": "bytes32"
        }
      ],
      "name": "TimelockTransactionSubmitted",
      "type": "event"
    },
    {
      "anonymous": false,
      "inputs": [
        {
          "indexed": false,
          "internalType": "address",
          "name": "account",
          "type": "address"
        }
      ],
      "name": "Unpaused",
      "type": "event"
    },
    {
      "anonymous": false,
      "inputs": [
        {
          "indexed": true,
          "internalType": "address",
          "name": "implementation",
          "type": "address"
        }
      ],
      "name": "Upgraded",
      "type": "event"
    },
    {
      "anonymous": false,
      "inputs": [
        {
          "indexed": true,
          "internalType": "uint256",
          "name": "proposalId",
          "type": "uint256"
        },
        {
          "indexed": true,
          "internalType": "address",
          "name": "voter",
          "type": "address"
        },
        {
          "indexed": false,
          "internalType": "uint8",
          "name": "support",
          "type": "uint8"
        },
        {
          "indexed": false,
          "internalType": "uint256",
          "name": "votingPower",
          "type": "uint256"
        }
      ],
      "name": "VoteCast",
      "type": "event"
    },
    {
      "inputs": [],
      "name": "ADMIN_ROLE",
      "outputs": [
        {
          "internalType": "bytes32",
          "name": "",
          "type": "bytes32"
        }
      ],
      "stateMutability": "view",
      "type": "function"
    },
    {
      "inputs": [],
      "name": "DEFAULT_ADMIN_ROLE",
      "outputs": [
        {
          "internalType": "bytes32",
          "name": "",
          "type": "bytes32"
        }
      ],
      "stateMutability": "view",
      "type": "function"
    },
    {
      "inputs": [],
      "name": "GUARDIAN_ROLE",
      "outputs": [
        {
          "internalType": "bytes32",
          "name": "",
          "type": "bytes32"
        }
      ],
      "stateMutability": "view",
      "type": "function"
    },
    {
      "inputs": [
        {
          "internalType": "bytes4",
          "name": "",
          "type": "bytes4"
        }
      ],
      "name": "allowedFunctionSelectors",
      "outputs": [
        {
          "internalType": "bool",
          "name": "",
          "type": "bool"
        }
      ],
      "stateMutability": "view",
      "type": "function"
    },
    {
      "inputs": [
        {
          "internalType": "address",
          "name": "",
          "type": "address"
        }
      ],
      "name": "allowedTargets",
      "outputs": [
        {
          "internalType": "bool",
          "name": "",
          "type": "bool"
        }
      ],
      "stateMutability": "view",
      "type": "function"
    },
    {
      "inputs": [
        {
          "internalType": "uint256",
          "name": "proposalId",
          "type": "uint256"
        }
      ],
      "name": "cancelProposal",
      "outputs": [],
      "stateMutability": "nonpayable",
      "type": "function"
    },
    {
      "inputs": [
        {
          "internalType": "uint256",
          "name": "proposalId",
          "type": "uint256"
        },
        {
          "internalType": "uint8",
          "name": "support",
          "type": "uint8"
        }
      ],
      "name": "castVote",
      "outputs": [
        {
          "internalType": "uint256",
          "name": "",
          "type": "uint256"
        }
      ],
      "stateMutability": "nonpayable",
      "type": "function"
    },
    {
      "inputs": [
        {
          "internalType": "uint256",
          "name": "proposalId",
          "type": "uint256"
        }
      ],
      "name": "claimPartialStakeRefund",
      "outputs": [],
      "stateMutability": "nonpayable",
      "type": "function"
    },
    {
      "inputs": [
        {
          "internalType": "string",
          "name": "description",
          "type": "string"
        },
        {
          "internalType": "enum JustGovernanceUpgradeable.ProposalType",
          "name": "proposalType",
          "type": "uint8"
        },
        {
          "internalType": "address",
          "name": "target",
          "type": "address"
        },
        {
          "internalType": "bytes",
          "name": "callData",
          "type": "bytes"
        },
        {
          "internalType": "uint256",
          "name": "amount",
          "type": "uint256"
        },
        {
          "internalType": "address payable",
          "name": "recipient",
          "type": "address"
        },
        {
          "internalType": "address",
          "name": "externalToken",
          "type": "address"
        },
        {
          "internalType": "uint256",
          "name": "newThreshold",
          "type": "uint256"
        },
        {
          "internalType": "uint256",
          "name": "newQuorum",
          "type": "uint256"
        },
        {
          "internalType": "uint256",
          "name": "newVotingDuration",
          "type": "uint256"
        },
        {
          "internalType": "uint256",
          "name": "newTimelockDelay",
          "type": "uint256"
        }
      ],
      "name": "createProposal",
      "outputs": [
        {
          "internalType": "uint256",
          "name": "",
          "type": "uint256"
        }
      ],
      "stateMutability": "nonpayable",
      "type": "function"
    },
    {
      "inputs": [
        {
          "internalType": "uint256",
          "name": "proposalId",
          "type": "uint256"
        }
      ],
      "name": "executeProposal",
      "outputs": [],
      "stateMutability": "nonpayable",
      "type": "function"
    },
    {
      "inputs": [
        {
          "internalType": "uint256",
          "name": "proposalId",
          "type": "uint256"
        }
      ],
      "name": "executeProposalLogic",
      "outputs": [],
      "stateMutability": "nonpayable",
      "type": "function"
    },
    {
      "inputs": [
        {
          "internalType": "uint256",
          "name": "proposalId",
          "type": "uint256"
        }
      ],
      "name": "getProposalState",
      "outputs": [
        {
          "internalType": "enum JustGovernanceUpgradeable.ProposalState",
          "name": "",
          "type": "uint8"
        }
      ],
      "stateMutability": "view",
      "type": "function"
    },
    {
      "inputs": [
        {
          "internalType": "uint256",
          "name": "proposalId",
          "type": "uint256"
        }
      ],
      "name": "getProposalVoteTotals",
      "outputs": [
        {
          "internalType": "uint256",
          "name": "forVotes",
          "type": "uint256"
        },
        {
          "internalType": "uint256",
          "name": "againstVotes",
          "type": "uint256"
        },
        {
          "internalType": "uint256",
          "name": "abstainVotes",
          "type": "uint256"
        },
        {
          "internalType": "uint256",
          "name": "totalVotingPower",
          "type": "uint256"
        },
        {
          "internalType": "uint256",
          "name": "voterCount",
          "type": "uint256"
        }
      ],
      "stateMutability": "view",
      "type": "function"
    },
    {
      "inputs": [
        {
          "internalType": "uint256",
          "name": "proposalId",
          "type": "uint256"
        }
      ],
      "name": "getProposalVotes",
      "outputs": [
        {
          "internalType": "uint256",
          "name": "yesVotes",
          "type": "uint256"
        },
        {
          "internalType": "uint256",
          "name": "noVotes",
          "type": "uint256"
        },
        {
          "internalType": "uint256",
          "name": "abstainVotes",
          "type": "uint256"
        },
        {
          "internalType": "uint256",
          "name": "totalVotingPower",
          "type": "uint256"
        },
        {
          "internalType": "uint256",
          "name": "totalVoters",
          "type": "uint256"
        }
      ],
      "stateMutability": "view",
      "type": "function"
    },
    {
      "inputs": [
        {
          "internalType": "bytes32",
          "name": "role",
          "type": "bytes32"
        }
      ],
      "name": "getRoleAdmin",
      "outputs": [
        {
          "internalType": "bytes32",
          "name": "",
          "type": "bytes32"
        }
      ],
      "stateMutability": "view",
      "type": "function"
    },
    {
      "inputs": [
        {
          "internalType": "bytes32",
          "name": "role",
          "type": "bytes32"
        },
        {
          "internalType": "uint256",
          "name": "index",
          "type": "uint256"
        }
      ],
      "name": "getRoleMember",
      "outputs": [
        {
          "internalType": "address",
          "name": "",
          "type": "address"
        }
      ],
      "stateMutability": "view",
      "type": "function"
    },
    {
      "inputs": [
        {
          "internalType": "bytes32",
          "name": "role",
          "type": "bytes32"
        }
      ],
      "name": "getRoleMemberCount",
      "outputs": [
        {
          "internalType": "uint256",
          "name": "",
          "type": "uint256"
        }
      ],
      "stateMutability": "view",
      "type": "function"
    },
    {
      "inputs": [],
      "name": "govParams",
      "outputs": [
        {
          "internalType": "uint256",
          "name": "votingDuration",
          "type": "uint256"
        },
        {
          "internalType": "uint256",
          "name": "quorum",
          "type": "uint256"
        },
        {
          "internalType": "uint256",
          "name": "timelockDelay",
          "type": "uint256"
        },
        {
          "internalType": "uint256",
          "name": "proposalCreationThreshold",
          "type": "uint256"
        },
        {
          "internalType": "uint256",
          "name": "proposalStake",
          "type": "uint256"
        },
        {
          "internalType": "uint256",
          "name": "defeatedRefundPercentage",
          "type": "uint256"
        },
        {
          "internalType": "uint256",
          "name": "canceledRefundPercentage",
          "type": "uint256"
        },
        {
          "internalType": "uint256",
          "name": "expiredRefundPercentage",
          "type": "uint256"
        }
      ],
      "stateMutability": "view",
      "type": "function"
    },
    {
      "inputs": [
        {
          "internalType": "bytes32",
          "name": "role",
          "type": "bytes32"
        },
        {
          "internalType": "address",
          "name": "account",
          "type": "address"
        }
      ],
      "name": "grantContractRole",
      "outputs": [],
      "stateMutability": "nonpayable",
      "type": "function"
    },
    {
      "inputs": [
        {
          "internalType": "bytes32",
          "name": "role",
          "type": "bytes32"
        },
        {
          "internalType": "address",
          "name": "account",
          "type": "address"
        }
      ],
      "name": "grantRole",
      "outputs": [],
      "stateMutability": "nonpayable",
      "type": "function"
    },
    {
      "inputs": [
        {
          "internalType": "bytes32",
          "name": "role",
          "type": "bytes32"
        },
        {
          "internalType": "address",
          "name": "account",
          "type": "address"
        }
      ],
      "name": "hasRole",
      "outputs": [
        {
          "internalType": "bool",
          "name": "",
          "type": "bool"
        }
      ],
      "stateMutability": "view",
      "type": "function"
    },
    {
      "inputs": [
        {
          "internalType": "string",
          "name": "name",
          "type": "string"
        },
        {
          "internalType": "address",
          "name": "tokenAddress",
          "type": "address"
        },
        {
          "internalType": "address",
          "name": "timelockAddress",
          "type": "address"
        },
        {
          "internalType": "address",
          "name": "admin",
          "type": "address"
        },
        {
          "internalType": "uint256",
          "name": "proposalThreshold",
          "type": "uint256"
        },
        {
          "internalType": "uint256",
          "name": "votingDelay",
          "type": "uint256"
        },
        {
          "internalType": "uint256",
          "name": "votingPeriod",
          "type": "uint256"
        },
        {
          "internalType": "uint256",
          "name": "quorumNumerator",
          "type": "uint256"
        },
        {
          "internalType": "uint256",
          "name": "successfulRefund",
          "type": "uint256"
        },
        {
          "internalType": "uint256",
          "name": "cancelledRefund",
          "type": "uint256"
        },
        {
          "internalType": "uint256",
          "name": "defeatedRefund",
          "type": "uint256"
        },
        {
          "internalType": "uint256",
          "name": "expiredRefund",
          "type": "uint256"
        }
      ],
      "name": "initialize",
      "outputs": [],
      "stateMutability": "nonpayable",
      "type": "function"
    },
    {
      "inputs": [],
      "name": "justToken",
      "outputs": [
        {
          "internalType": "contract JustTokenUpgradeable",
          "name": "",
          "type": "address"
        }
      ],
      "stateMutability": "view",
      "type": "function"
    },
    {
      "inputs": [],
      "name": "maxVotingDuration",
      "outputs": [
        {
          "internalType": "uint256",
          "name": "",
          "type": "uint256"
        }
      ],
      "stateMutability": "view",
      "type": "function"
    },
    {
      "inputs": [],
      "name": "minVotingDuration",
      "outputs": [
        {
          "internalType": "uint256",
          "name": "",
          "type": "uint256"
        }
      ],
      "stateMutability": "view",
      "type": "function"
    },
    {
      "inputs": [],
      "name": "pause",
      "outputs": [],
      "stateMutability": "nonpayable",
      "type": "function"
    },
    {
      "inputs": [],
      "name": "paused",
      "outputs": [
        {
          "internalType": "bool",
          "name": "",
          "type": "bool"
        }
      ],
      "stateMutability": "view",
      "type": "function"
    },
    {
      "inputs": [
        {
          "internalType": "uint256",
          "name": "",
          "type": "uint256"
        },
        {
          "internalType": "address",
          "name": "",
          "type": "address"
        }
      ],
      "name": "proposalVoterInfo",
      "outputs": [
        {
          "internalType": "uint256",
          "name": "",
          "type": "uint256"
        }
      ],
      "stateMutability": "view",
      "type": "function"
    },
    {
      "inputs": [],
      "name": "proxiableUUID",
      "outputs": [
        {
          "internalType": "bytes32",
          "name": "",
          "type": "bytes32"
        }
      ],
      "stateMutability": "view",
      "type": "function"
    },
    {
      "inputs": [
        {
          "internalType": "uint256",
          "name": "proposalId",
          "type": "uint256"
        }
      ],
      "name": "queueProposal",
      "outputs": [],
      "stateMutability": "nonpayable",
      "type": "function"
    },
    {
      "inputs": [
        {
          "internalType": "bytes32",
          "name": "role",
          "type": "bytes32"
        },
        {
          "internalType": "address",
          "name": "account",
          "type": "address"
        }
      ],
      "name": "renounceRole",
      "outputs": [],
      "stateMutability": "nonpayable",
      "type": "function"
    },
    {
      "inputs": [
        {
          "internalType": "address",
          "name": "tokenAddress",
          "type": "address"
        }
      ],
      "name": "rescueERC20",
      "outputs": [],
      "stateMutability": "nonpayable",
      "type": "function"
    },
    {
      "inputs": [],
      "name": "rescueETH",
      "outputs": [],
      "stateMutability": "nonpayable",
      "type": "function"
    },
    {
      "inputs": [
        {
          "internalType": "bytes32",
          "name": "role",
          "type": "bytes32"
        },
        {
          "internalType": "address",
          "name": "account",
          "type": "address"
        }
      ],
      "name": "revokeContractRole",
      "outputs": [],
      "stateMutability": "nonpayable",
      "type": "function"
    },
    {
      "inputs": [
        {
          "internalType": "bytes32",
          "name": "role",
          "type": "bytes32"
        },
        {
          "internalType": "address",
          "name": "account",
          "type": "address"
        }
      ],
      "name": "revokeRole",
      "outputs": [],
      "stateMutability": "nonpayable",
      "type": "function"
    },
    {
      "inputs": [
        {
          "internalType": "bytes4",
          "name": "interfaceId",
          "type": "bytes4"
        }
      ],
      "name": "supportsInterface",
      "outputs": [
        {
          "internalType": "bool",
          "name": "",
          "type": "bool"
        }
      ],
      "stateMutability": "view",
      "type": "function"
    },
    {
      "inputs": [],
      "name": "timelock",
      "outputs": [
        {
          "internalType": "contract JustTimelockUpgradeable",
          "name": "",
          "type": "address"
        }
      ],
      "stateMutability": "view",
      "type": "function"
    },
    {
      "inputs": [],
      "name": "unpause",
      "outputs": [],
      "stateMutability": "nonpayable",
      "type": "function"
    },
    {
      "inputs": [
        {
          "internalType": "uint8",
          "name": "paramType",
          "type": "uint8"
        },
        {
          "internalType": "uint256",
          "name": "newValue",
          "type": "uint256"
        }
      ],
      "name": "updateGovParam",
      "outputs": [],
      "stateMutability": "nonpayable",
      "type": "function"
    },
    {
      "inputs": [
        {
          "internalType": "address",
          "name": "guardian",
          "type": "address"
        },
        {
          "internalType": "bool",
          "name": "isAdding",
          "type": "bool"
        }
      ],
      "name": "updateGuardian",
      "outputs": [],
      "stateMutability": "nonpayable",
      "type": "function"
    },
    {
      "inputs": [
        {
          "internalType": "bytes4",
          "name": "selector",
          "type": "bytes4"
        },
        {
          "internalType": "bool",
          "name": "selectorAllowed",
          "type": "bool"
        },
        {
          "internalType": "address",
          "name": "target",
          "type": "address"
        },
        {
          "internalType": "bool",
          "name": "targetAllowed",
          "type": "bool"
        }
      ],
      "name": "updateSecurity",
      "outputs": [],
      "stateMutability": "nonpayable",
      "type": "function"
    },
    {
      "inputs": [
        {
          "internalType": "address",
          "name": "newImplementation",
          "type": "address"
        }
      ],
      "name": "upgradeTo",
      "outputs": [],
      "stateMutability": "nonpayable",
      "type": "function"
    },
    {
      "inputs": [
        {
          "internalType": "address",
          "name": "newImplementation",
          "type": "address"
        },
        {
          "internalType": "bytes",
          "name": "data",
          "type": "bytes"
        }
      ],
      "name": "upgradeToAndCall",
      "outputs": [],
      "stateMutability": "payable",
      "type": "function"
    },
    {
      "stateMutability": "payable",
      "type": "receive"
    }
  ],
  "bytecode": "0x60a0604052346200003657620000146200003b565b604051615f2262000093823960805181818161141901526115650152615f2290f35b600080fd5b6200004562000082565b565b6200005d9062000060906001600160a01b031682565b90565b6001600160a01b031690565b6200005d9062000047565b6200005d906200006c565b6200008d3062000077565b60805256fe6080604052600436101561001b575b361561001957600080fd5b005b60003560e01c806301ffc9a7146102c657806309729350146102c15780630d61b519146102bc5780631b9ad0e4146102b757806320800a00146102b2578063248a9ca3146102ad57806324ea54f4146102a85780632f2ff15d146102a3578063338a035a1461029e57806336568abe146102995780633659cfe6146102945780633f4ba83a1461028f57806347c66140146102175780634f1ef2861461028a57806352d1902d146102855780635612a6f014610280578063567813881461027b5780635714936c146102765780635c975abb14610271578063643aa8b31461026c5780636df7bab3146102675780636e5ce0501461026257806370d26de51461025d57806375b238fc146102585780638456cb591461025357806388f4950f1461024e5780639010d07c146102495780639080936f1461024457806391d148541461023f57806394a14a341461023a5780639d49257c14610235578063a01fc1c614610230578063a217fddf1461022b578063b860f7f314610226578063b8fe8d5f14610221578063ca15c8731461021c578063cc39548c14610217578063ccec371614610212578063d33219b41461020d578063d547741f14610208578063dbd6250614610203578063e0a8f6f5146101fe5763f21c00ba0361000e57610ee8565b610ed0565b610eb5565b610e8f565b610e68565b610e12565b6105d4565b610df7565b610ddc565b610d5e565b610ccb565b610ca1565b610c86565b610c61565b610c45565b610c1e565b610b96565b610b63565b610b28565b610b01565b610ae8565b610abd565b61098d565b610964565b6108cc565b6108b0565b610843565b6107f8565b610717565b610703565b61057f565b610567565b61053a565b61051f565b6104ad565b61043b565b610410565b6103f8565b6103d4565b610383565b610366565b61030d565b6001600160e01b031981165b036102de57565b600080fd5b905035906102f0826102cb565b565b906020828203126102de57610306916102e3565b90565b9052565b346102de5761033b6103286103233660046102f2565b610f01565b6040515b91829182901515815260200190565b0390f35b806102d7565b905035906102f08261033f565b906020828203126102de5761030691610345565b346102de5761037e610379366004610352565b615eac565b604051005b346102de5761037e610396366004610352565b615215565b60ff81166102d7565b905035906102f08261039b565b91906040838203126102de57610306906103cb81856103a4565b93602001610345565b346102de5761037e6103e73660046103b1565b906133c6565b60009103126102de57565b346102de576104083660046103ed565b61037e6129f2565b346102de5761033b61042b610426366004610352565b610fdc565b6040519182918290815260200190565b346102de5761044b3660046103ed565b61033b600080516020615ef683398151915261042b565b6001600160a01b031690565b6001600160a01b0381166102d7565b905035906102f08261046e565b91906040838203126102de57610306906104a48185610345565b9360200161047d565b346102de5761037e6104c036600461048a565b90611013565b6001600160e01b03191690565b906001600160e01b0319165b600052602052604060002090565b610306916008021c5b60ff1690565b9061030691546104ed565b6103069061051a6101a1916000926104d3565b6104fc565b346102de5761033b6103286105353660046102f2565b610507565b346102de5761037e61054d36600461048a565b90611269565b906020828203126102de576103069161047d565b346102de5761037e61057a366004610553565b611626565b346102de5761058f3660046103ed565b61037e61275d565b909594926102f0946105c96105d0926105c26080966105bb60a088019c6000890152565b6020870152565b6040850152565b6060830152565b0152565b346102de5761033b6105ef6105ea366004610352565b614d29565b916105fc95939560405190565b95869586610597565b634e487b7160e01b600052604160045260246000fd5b90601f01601f1916810190811067ffffffffffffffff82111761063d57604052565b610605565b906102f061064f60405190565b928361061b565b67ffffffffffffffff811161063d57602090601f01601f19160190565b0190565b90826000939282370152565b9092919261069861069382610656565b610642565b938185526020850190828401116102de576102f092610677565b9080601f830112156102de5781602061030693359101610683565b9190916040818403126102de576106e4838261047d565b92602082013567ffffffffffffffff81116102de5761030692016106b2565b61037e6107113660046106cd565b9061197f565b346102de576107273660046103ed565b61033b61042b611484565b9091610180828403126102de57813567ffffffffffffffff81116102de578361075c9184016106b2565b9261076a816020850161047d565b92610778826040830161047d565b92610786836060840161047d565b926107948160808501610345565b926107a28260a08301610345565b926107b08360c08401610345565b926107be8160e08501610345565b926107cd826101008301610345565b926103066107df846101208501610345565b936107ee816101408601610345565b9361016001610345565b346102de5761037e61080b366004610732565b9a9990999891989792979693969594956124bc565b91906040838203126102de576103069061083a8185610345565b936020016103a4565b346102de5761033b61042b610859366004610820565b90614d1d565b8015156102d7565b905035906102f08261085f565b6080818303126102de5761088882826102e3565b926103066108998460208501610867565b936108a7816040860161047d565b93606001610867565b346102de5761037e6108c3366004610874565b9291909161320d565b346102de576108dc3660046103ed565b61033b610328611989565b6103066103066103069290565b906104df906108e7565b61030690610462906001600160a01b031682565b610306906108fe565b61030690610912565b906104df9061091b565b610306916008021c81565b90610306915461092e565b61095f6103069261095a610194936000946108f4565b610924565b610939565b346102de5761033b61042b61097a36600461048a565b90610944565b610306600061019f610939565b346102de5761099d3660046103ed565b61033b61042b610980565b909182601f830112156102de5781359167ffffffffffffffff83116102de5760200192600183028401116102de57565b600711156102de57565b905035906102f0826109d8565b9190610160838203126102de57823567ffffffffffffffff81116102de5781610a199185016109a8565b929093610a2983602083016109e2565b92610a37816040840161047d565b92606083013567ffffffffffffffff81116102de5782610a589185016109a8565b929093610a688260808301610345565b92610a768360a0840161047d565b92610a848160c0850161047d565b92610a928260e08301610345565b92610306610aa4846101008501610345565b93610ab3816101208601610345565b9361014001610345565b346102de5761033b61042b610ad33660046109ef565b9b9a909a999199989298979397969496614704565b346102de5761037e610afb36600461048a565b90613024565b346102de57610b113660046103ed565b61033b600080516020615ed683398151915261042b565b346102de57610b383660046103ed565b61037e612608565b91906040838203126102de5761030690610b5a818561047d565b93602001610867565b346102de5761037e610b76366004610b40565b906130e9565b91906040838203126102de57610306906103cb8185610345565b346102de5761033b610bb2610bac366004610b7c565b90610f30565b6040515b918291826001600160a01b03909116815260200190565b634e487b7160e01b600052602160045260246000fd5b60071115610bed57565b610bcd565b906102f082610be3565b61030690610bf2565b61030990610bfc565b6020810192916102f09190610c05565b346102de5761033b610c39610c34366004610352565b613688565b60405191829182610c0e565b346102de5761033b610328610c5b36600461048a565b90610fb4565b346102de5761037e610c74366004610352565b615015565b61030660006101a0610939565b346102de57610c963660046103ed565b61033b61042b610c79565b346102de5761037e610cb4366004610352565b615295565b61030660006108e7565b610306610cb9565b346102de57610cdb3660046103ed565b61033b61042b610cc3565b6103069081565b6103069054610ce6565b61019790610d0482610ced565b91610d1160018201610ced565b91610d1e60028301610ced565b91610d2b60038201610ced565b91610d3860048301610ced565b91610d4560058201610ced565b916103066007610d5760068501610ced565b9301610ced565b346102de57610d6e3660046103ed565b61033b610d79610cf7565b94610d8c98969894919493929360405190565b98899889908152610100810198979690959094909390929091602087015260408601526060850152608084015260a083015260c082015260e00152565b6103069061051a6101a291600092610924565b346102de5761033b610328610df2366004610553565b610dc9565b346102de5761033b61042b610e0d366004610352565b610f50565b346102de5761037e610e25366004610553565b612c06565b610306916008021c610462565b906103069154610e2a565b6103066000610192610e37565b6103099061091b565b6020810192916102f09190610e4f565b346102de57610e783660046103ed565b61033b610e83610e42565b60405191829182610e58565b346102de5761037e610ea236600461048a565b906111e1565b6103066000610191610e37565b346102de57610ec53660046103ed565b61033b610e83610ea8565b346102de5761037e610ee3366004610352565b6149c2565b346102de5761037e610efb36600461048a565b90612f72565b635a05180f60e01b6001600160e01b0319821614908115610f20575090565b6103069150610f67565b906104df565b90610f4b61030661030693610f43600090565b506097610f2a565b612026565b610f6261030661030692610f43600090565b611fef565b637965db0b60e01b6001600160e01b0319821614908115610f86575090565b61030691506001600160e01b0319166301ffc9a760e01b1490565b610306906104f6565b6103069054610fa1565b610306916000610fd1610fd793610fc9600090565b506065610f2a565b01610924565b610faa565b6001610fed61030692610fc9600090565b01610ced565b906102f09161100961100482610fdc565b611041565b906102f09161101d565b906102f091610ff3565b9061103961030661103e9361103284826112b9565b6097610f2a565b611d61565b50565b6102f0903390611139565b610306906108e7565b60005b8381106110685750506000910152565b8181015183820152602001611058565b6106736110909260209261108a815190565b94859290565b93849101611055565b6110d761030693926110d16110d1937f416363657373436f6e74726f6c3a206163636f756e7420000000000000000000815260170190565b90611078565b7001034b99036b4b9b9b4b733903937b6329607d1b815260110190565b61111561111e60209361067393611109815190565b80835293849260200190565b95869101611055565b601f01601f191690565b6020808252610306929101906110f4565b9061114b6111478284610fb4565b1590565b611153575050565b6111c29161030661116f6111696111a994611d34565b9261104c565b61118460209161117e836108e7565b90611bea565b9261119d61119160405190565b94859384019283611099565b9081038252038261061b565b6040515b62461bcd60e51b815291829160048301611128565b0390fd5b906102f0916111d761100482610fdc565b906102f0916111eb565b906102f0916111c6565b9061120061030661103e936110328482611332565b611e9c565b1561120c57565b60405162461bcd60e51b815260206004820152602f60248201527f416363657373436f6e74726f6c3a2063616e206f6e6c792072656e6f756e636560448201526e103937b632b9903337b91039b2b63360891b6064820152608490fd5b6102f0919061128a61127a33610462565b6001600160a01b03841614611205565b6111eb565b9060ff905b9181191691161790565b906112ae6103066112b592151590565b825461128f565b9055565b906112c76111478284610fb4565b6112cf575050565b6112ea60016112e5836000610fd1876065610f2a565b61129e565b339061132061131a61131a7f2f8788117e7eff1d82e926ec794901d17c78024a50270940304540a733656f0d9590565b9261091b565b9261132a60405190565b80805b0390a4565b9061133d8183610fb4565b611345575050565b61135a60006112e58382610fd1876065610f2a565b339061132061131a61131a7ff6391f5c32d9c69d2a47ea670b442974b53935d1edc7fd64eb21e047a839171b9590565b1561139157565b60405162461bcd60e51b815260206004820152603860248201527f555550535570677261646561626c653a206d757374206e6f742062652063616c60448201527f6c6564207468726f7567682064656c656761746563616c6c00000000000000006064820152608490fd5b6103069061144d61140c3061091b565b6114476001600160a01b037f0000000000000000000000000000000000000000000000000000000000000000165b916001600160a01b031690565b1461138a565b61147b565b6103067f360894a13ba1a3210667c828492db98dca3e2076cc3735a920a3ca505d382bbc6108e7565b50610306611452565b61030660006113fc565b1561149557565b60405162461bcd60e51b815260206004820152602c60248201527f46756e6374696f6e206d7573742062652063616c6c6564207468726f7567682060448201526b19195b1959d85d1958d85b1b60a21b6064820152608490fd5b156114f657565b60405162461bcd60e51b815260206004820152602c60248201527f46756e6374696f6e206d7573742062652063616c6c6564207468726f7567682060448201526b6163746976652070726f787960a01b6064820152608490fd5b6102f0906115c06115603061091b565b61159f7f00000000000000000000000000000000000000000000000000000000000000009161159861143a846001600160a01b031690565b141561148e565b6115ba61143a6115ad611642565b926001600160a01b031690565b146114ef565b6115ff565b906115d261069383610656565b918252565b369037565b906102f06115f26115ec846115c5565b93610656565b601f1901602084016115d7565b6102f09061160c816125ff565b60009061162061161b836108e7565b6115dc565b9061170c565b6102f090611550565b61030690610462565b610306905461162f565b6103066000611652610306611452565b01611638565b6103067f4910fdfa16fed3260ed0e7147f7cc6da11a60208b5b9406d12a635614ffd91436108e7565b905051906102f08261033f565b906020828203126102de5761030691611681565b6040513d6000823e3d90fd5b156116b557565b60405162461bcd60e51b815260206004820152602960248201527f45524331393637557067726164653a20756e737570706f727465642070726f786044820152681a58589b195555525160ba1b6064820152608490fd5b9190611724600061171e610306611658565b01610faa565b156117345750506102f0906118b2565b82602061174b6117466117639661091b565b61091b565b6352d1902d9061175a60405190565b96879260e01b90565b825260049082905afa600094816117fa575b506117d65760405162461bcd60e51b815260206004820152602e60248201527f45524331393637557067726164653a206e657720696d706c656d656e7461746960448201526d6f6e206973206e6f74205555505360901b6064820152608490fd5b6117f56102f0946117ef6117eb610306611452565b9190565b146116ae565b6118da565b61181c91955060203d8111611823575b611814818361061b565b81019061168e565b9338611775565b503d61180a565b1561183157565b60405162461bcd60e51b815260206004820152602d60248201527f455243313936373a206e657720696d706c656d656e746174696f6e206973206e60448201526c1bdd08184818dbdb9d1c9858dd609a1b6064820152608490fd5b906001600160a01b0390611294565b906118ab6103066112b59261091b565b825461188c565b6102f0906118c76118c282611993565b61182a565b60006118d4610306611452565b0161189b565b916118e483611916565b81516118f36117eb60006108e7565b1190811561190e575b50611905575050565b61103e916119f0565b9050386118fc565b61191f816118b2565b6119497fbc7cd75a20ee27fd9adebab32041f755214dbc6bffa90cc0225b39da2e5c2d3b9161091b565b9061195360405190565b600090a2565b906102f09161196a6115603061091b565b6102f091611977826125ff565b60019161170c565b906102f091611959565b61030660fb610faa565b3b6119a16117eb60006108e7565b1190565b6119af60276115c5565b7f416464726573733a206c6f772d6c6576656c2064656c65676174652063616c6c6020820152660819985a5b195960ca1b604082015290565b6103066119a5565b610306916119fc6119e8565b91611a21565b3d15611a1c57611a113d6115c5565b903d6000602084013e565b606090565b6000806103069493611a31606090565b50805190602001845af4611a43611a02565b91611a95565b15611a5057565b60405162461bcd60e51b815260206004820152601d60248201527f416464726573733a2063616c6c20746f206e6f6e2d636f6e74726163740000006044820152606490fd5b91929015611ac757508151611aad6117eb60006108e7565b14611ab6575090565b611ac261030691611993565b611a49565b8290611ad1825190565b611ade6117eb60006108e7565b1115611aed5750805190602001fd5b6111c2906111ad60405190565b634e487b7160e01b600052601160045260246000fd5b81810292918115918404141715611b2357565b611afa565b91908201809211611b2357565b634e487b7160e01b600052603260045260246000fd5b90611b54825190565b811015611b62570160200190565b611b35565b8015611b23576000190190565b6104f66103066103069290565b61030690611b956117eb6103069460ff1690565b901c90565b15611ba157565b60405162461bcd60e51b8152806111c2600482016020808252818101527f537472696e67733a20686578206c656e67746820696e73756666696369656e74604082015260600190565b9190600292611c1661161b611c0784611c02886108e7565b611b10565b611c10876108e7565b90611b28565b916000906030611c2e611c28846108e7565b86611b4b565b53611c66611c5d600f60fb1b92611c026001998a95871a611c57611c51886108e7565b8b611b4b565b536108e7565b611c10836108e7565b905b611c8a575b5061030693945090611c846117eb610306936108e7565b14611b9a565b91611c94866108e7565b831115611d02576f181899199a1a9b1b9c1cb0b131b232b360811b611cb9600f6108e7565b8216906010821015611b62578792611cd9611cf692611cfc941a60f81b90565b851a611ce58789611b4b565b53611cf06004611b74565b90611b81565b93611b67565b90611c68565b91611c6d565b6103069081906001600160a01b031681565b6103066014611b74565b6103066103066103069260ff1690565b611d51611d4c61030692611d46606090565b50610912565b611d08565b61117e611d5c611d1a565b611d24565b90611d896117eb611d84611d4c600061030696611d7c600090565b500194610912565b6108e7565b611e26565b8054821015611b6257611da8600191600052602060002090565b91020190600090565b9160001960089290920291821b911b611294565b9190611dd46103066112b59390565b908354611db1565b90815491600160401b83101561063d5782611dff9160016102f095018155611d8e565b90611dc5565b9060001990611294565b90611e1f6103066112b5926108e7565b8254611e05565b611e336111478383611e6c565b15611e6557611e6091611e5b906001611e5484611e508482611ddc565b5490565b9301610f2a565b611e0f565b600190565b5050600090565b611e8a916001611e8592611e7e600090565b5001610f2a565b610ced565b611e976117eb60006108e7565b141590565b90611eb76117eb611d84611d4c600061030696611d7c600090565b611f30565b91908203918211611b2357565b634e487b7160e01b600052603160045260246000fd5b6102f091600091611dc5565b80548015611f0e576000190190611f0b611f058383611d8e565b90611edf565b55565b611ec9565b9190611dd46103066112b5936108e7565b6102f091600091611f13565b90611f41611e858260018501610f2a565b600092611f4d846108e7565b8214611fa05761030692611fa69492611fb192611fab6001978893611f7a611f74866108e7565b82611ebc565b88850191611f98611f89845490565b611f92896108e7565b90611ebc565b828103611fb6575b50505090565b611eeb565b01610f2a565b611f24565b611dff611fdf611fe794611fd6611fd0611e5b9589611d8e565b90610939565b92839188611d8e565b888801610f2a565b388080611fa0565b612005600061030692612000600090565b500190565b600061030691612013600090565b50015490565b6104626103066103069290565b61204b61204661030693612041600061205095612000600090565b612055565b61104c565b612019565b610912565b610306916000611fd092612067600090565b5001611d8e565b6103069060081c6104f6565b610306905461206e565b1561208b57565b60405162461bcd60e51b815260206004820152602e60248201527f496e697469616c697a61626c653a20636f6e747261637420697320616c72656160448201526d191e481a5b9a5d1a585b1a5e995960921b6064820152608490fd5b6104f66103066103069260ff1690565b906112ae6103066112b5926120e7565b9061ff009060081b611294565b906121246103066112b592151590565b8254612107565b61030990611b74565b6020810192916102f0919061212b565b999693909a9794919261219d999693612160611147600061207a565b9c8d9c8d80612241575b80156121fc575b61217a90612084565b60019e8f9061219261218b83611b74565b60006120f7565b6121eb575b5061228d565b6121a45750565b6121af600080612114565b6121e67f7f26b83ff96e1f2b6a682f133852f6798a09c465da95921460cefb3847402498916121dd60405190565b91829182612134565b0390a1565b6121f6906000612114565b8e612197565b5061221161114761220c3061091b565b611993565b8015612171575061217a6122256000610faa565b6122396122326001611b74565b9160ff1690565b149050612171565b5061224c6000610faa565b6122596122326001611b74565b1061216a565b61030690612019565b634e487b7160e01b600052601260045260246000fd5b8115612288570490565b612268565b50955096939792909895506000946122a48661225f565b6001600160a01b0381166001600160a01b038c161490811561249f575b8115612483575b50612471576122d5612542565b6122dd6125a6565b6122e5612562565b6122ed612542565b896122f6610cb9565b9061230091611009565b6123188a600080516020615ed6833981519152611009565b6123308a600080516020615ef6833981519152611009565b6123399061091b565b966123468861019161189b565b61234f9061091b565b9761235c8961019261189b565b6123676102586108e7565b6123739061019f611e0f565b6123806301e133806108e7565b61238c906101a0611e0f565b6101979586019061239c91611e0f565b6123a98260018701611e0f565b6123b69060028601611e0f565b6123c38160038601611e0f565b6123cd60646108e7565b6123d69161227e565b6123e39060048501611e0f565b6123f09060058401611e0f565b6123fd9060068301611e0f565b6007019061240a91611e0f565b60016101a18161242163a9059cbb60e01b836104d3565b9061242b9161129e565b63095ea7b360e01b61243c916104d3565b906124469161129e565b7f4ca662a5f1f012e4d740b256559dce10a6b72cdec96be0142f5e2eb49dd37a6e926113209061091b565b60405163d92e233d60e01b8152600490fd5b6001600160a01b031690506001600160a01b03891614386122c8565b90506001600160a01b0381166001600160a01b03831614906122c1565b906102f09b9a999897969594939291612144565b156124d757565b60405162461bcd60e51b815260206004820152602b60248201527f496e697469616c697a61626c653a20636f6e7472616374206973206e6f74206960448201526a6e697469616c697a696e6760a81b6064820152608490fd5b6102f061253d600061207a565b6124d0565b6102f0612530565b61255761253d600061207a565b6102f06102f0612586565b6102f061254a565b61257761253d600061207a565b6102f06102f0600060fb61129e565b6102f061256a565b61259b61253d600061207a565b6102f06102f06125df565b6102f061258e565b6125bb61253d600061207a565b6102f06125cd565b61030660016108e7565b6102f06125d86125c3565b60c9611e0f565b6102f06125ae565b506102f0600080516020615ed6833981519152611041565b6102f0906125e7565b3361262461114782600080516020615ef6833981519152610fb4565b8061269c575b80612679575b6126665761263c612703565b6119497f81990fd9a5c552b8e3677917d8a03c07678f0d2cb68f88b634aca2022e9bd19f9161091b565b6040515b63ea8e4eb560e01b8152600490fd5b5061268b610462611746610192611638565b6001600160a01b0382161415612630565b506126b861114782600080516020615ed6833981519152610fb4565b61262a565b6126c561274a565b6102f06126d4600160fb61129e565b336121e67f62e78cea01bee320cd4e420270b5ea74000d11b0c9f74754ebdbfc544b05a25891610bb660405190565b6102f06126bd565b1561271257565b60405162461bcd60e51b815260206004820152601060248201526f14185d5cd8589b194e881c185d5cd95960821b6044820152606490fd5b6102f0612758611147611989565b61270b565b3361277961114782600080516020615ed6833981519152610fb4565b806127b5575b6126665761278b61281e565b6119497f5b65b0c1363b3003db9bcc5e1fd8805a6d6bf5bf6dc9d3431ee4494cd7d117669161091b565b506127c7610462611746610192611638565b6001600160a01b038216141561277f565b6127e0612869565b6102f06127ef600060fb61129e565b336121e67f5db9ee0a495bf2e6ff9c91a7834c1ba4fdd244a5e8aa4e537bd38aeae4b073aa91610bb660405190565b6102f06127d8565b1561282d57565b60405162461bcd60e51b815260206004820152601460248201527314185d5cd8589b194e881b9bdd081c185d5cd95960621b6044820152606490fd5b6102f0612874611989565b612826565b612890600080516020615ed6833981519152611041565b6102f061289b612a50565b6125bb6128d8565b6040808252600b908201526a11551217d49154d0d5515160aa1b606082015291906102f090602060808501940152565b940152565b6128e13061091b565b316000906128ee826108e7565b81146129df576128fd3361091b565b91612935818061290c8661091b565b6129176175306108e7565b908661292260405190565b9182800393f1612930611a02565b501590565b6129cd57827fb3579861130e4da8bb7b87c54d2d139937f23bcd6e4ebed9e75d0f78ab1cc11861296460405190565b848152602090a260059061299661297a60405190565b809461298a6020830191826128a3565b9081038252038461061b565b61132d6129ba6129b4600080516020615eb6833981519152936108e7565b93611b74565b936129c460405190565b91829182611128565b6040516312171d8360e31b8152600490fd5b6040515b63162908e360e11b8152600490fd5b6102f0612879565b61030660026108e7565b15612a0b57565b60405162461bcd60e51b815260206004820152601f60248201527f5265656e7472616e637947756172643a207265656e7472616e742063616c6c006044820152606490fd5b6102f0612a5d60c9610ced565b6125d8612a686129fa565b91821415612a04565b6102f090612a8c600080516020615ed6833981519152611041565b6125bb90612a98612a50565b612ade565b6060808252600d908201526c115490cc8c17d49154d0d55151609a1b60808201526001600160a01b03909116602082015260a0810192916102f09160400152565b600090612aed6104628361225f565b6001600160a01b038216146124715780612b09612b559261091b565b926020612b158561091b565b6370a0823190612b3e612b273061091b565b92612b3160405190565b9788948593849360e01b90565b83526001600160a01b031660048301526024820190565b03915afa928315612c01578193612be1575b50612b71816108e7565b83146129df5761299661298a9333612b8a828289612c45565b612bb47f8bbfbb5d7fcacf6fc74005cdede0635561638507f576c95f7f294c22141be2e59161091b565b968791612bc060405190565b848152602090a3600593612bd360405190565b958692602084019283612a9d565b612bfa91935060203d811161182357611814818361061b565b9138612b67565b6116a2565b6102f090612a71565b6104c6612c226103069263ffffffff1690565b60e01b90565b6001600160a01b0390911681526040810192916102f09160200152565b612c88600492612c796102f095612c5f63a9059cbb612c0f565b92612c6960405190565b9687946020860190815201612c28565b6020820181038252038361061b565b612d48565b612c9760206115c5565b7f5361666545524332303a206c6f772d6c6576656c2063616c6c206661696c6564602082015290565b610306612c8d565b905051906102f08261085f565b906020828203126102de5761030691612cc8565b15612cf057565b60405162461bcd60e51b815260206004820152602a60248201527f5361666545524332303a204552433230206f7065726174696f6e20646964206e6044820152691bdd081cdd58d8d9595960b21b6064820152608490fd5b6102f091612d58612d679261091b565b90612d61612cc0565b91612da5565b8051612d766117eb60006108e7565b14908115612d85575b50612ce9565b612d9f91506020612d94825190565b818301019101612cd5565b38612d7f565b6103069291612db460006108e7565b91612e15565b15612dc157565b60405162461bcd60e51b815260206004820152602660248201527f416464726573733a20696e73756666696369656e742062616c616e636520666f6044820152651c8818d85b1b60d21b6064820152608490fd5b90600061030694938192612e27606090565b50612e3e612e343061091b565b8390311015612dba565b60208101905191855af1611a43611a02565b9033612e6d61114782600080516020615ed6833981519152610fb4565b9081612e82575b50612666576102f091612ea0565b9050612e9861143a610462611746610192611638565b141538612e74565b90600091612eb06104628461225f565b6001600160a01b0383161461247157600080516020615ed6833981519152808214612f24575b50612ee182826111e1565b612f1f612f15612f0f7f7c979cc3cab9cb8d7e7656686686502286ec685affa74ac6634a2be36cb68a839390565b9361091b565b9361032c60405190565b0390a3565b612f2d90610f50565b612f3a6117eb60016108e7565b118015612f5f575b15612f4d5738612ed6565b604051636059882f60e11b8152600490fd5b506001600160a01b038216331415612f42565b906102f091612e50565b9033612f9961114782600080516020615ed6833981519152610fb4565b9081612fae575b50612666576102f091612fcc565b9050612fc461143a610462611746610192611638565b141538612fa0565b90612fda610462600061225f565b6001600160a01b0382161461247157612ff38183611013565b600191612f1f612f15612f0f7f7c979cc3cab9cb8d7e7656686686502286ec685affa74ac6634a2be36cb68a839390565b906102f091612f7c565b903361304b61114782600080516020615ed6833981519152610fb4565b9081613060575b50612666576102f09161307e565b905061307661143a610462611746610192611638565b141538613052565b61308b610462600061225f565b6001600160a01b038216146124715781156130cc576130b881600080516020615ef6833981519152611013565b600080516020615ef6833981519152612ee1565b6130e481600080516020615ef68339815191526111e1565b6130b8565b906102f09161302e565b6102f093929190613111600080516020615ed6833981519152611041565b61316f565b6104c6612c226103069290565b6131676102f09461315760609498979561314e608086019a60008701906001600160e01b0319169052565b15156020850152565b6001600160a01b03166040830152565b019015159052565b9091926121e69061319f610462600061318a6104c682613116565b6001600160e01b03198716036131f85761225f565b6001600160a01b038616036131e3575b7fafa2cd5aa57d1ad069bcc204940405dda70a612b4ccb490493786b13a0ee16ad946131da60405190565b94859485613123565b6131f3816112e5876101a2610924565b6131af565b613208876112e5886101a16104d3565b61225f565b906102f09392916130f3565b903361323661114782600080516020615ed6833981519152610fb4565b908161324b575b50612666576102f0916132af565b905061326161143a610462611746610192611638565b14153861323d565b6103066000611b74565b6103066005611b74565b6103066006611b74565b6103066007611b74565b9081526060810193926102f09290916040916105d0905b6020830152565b6132ba6104f6613269565b60ff821603613332576132d161030661019f610ced565b8210801561331c575b6132e857906102f091613417565b506132f461019f610ced565b906111c26133036101a0610ced565b60405163206f4e1160e21b815293849360048501613291565b5061332b6103066101a0610ced565b82116132da565b9061333e6104f6613273565b60ff83161480156133b0575b801561339a575b156133815761336060646108e7565b811161336f576102f091613417565b604051631f3b85d360e01b8152600490fd5b61338b60006108e7565b81146129df576102f091613417565b506133a66104f6613287565b60ff831614613351565b506133bc6104f661327d565b60ff83161461334a565b906102f091613219565b6103066001611b74565b6103066002611b74565b6103066003611b74565b6103066004611b74565b60ff90911681526060810193926102f09290916040916105d0906132a8565b60006134246104f6613269565b60ff83160361347c5750610197906134458361343f84610ced565b93611e0f565b6121e67f8504164e5e8ef70117aea5f1895915b866f4d269354e88e147062469f1dc483f9361347360405190565b938493846133f8565b6134876104f66133d0565b60ff8316036134a75750610198906134a28361343f84610ced565b613445565b6134b26104f66133da565b60ff8316036134cd5750610199906134a28361343f84610ced565b6134d86104f66133e4565b60ff8316036134f3575061019a906134a28361343f84610ced565b6134fe6104f66133ee565b60ff831603613519575061019b906134a28361343f84610ced565b6135246104f6613273565b60ff83160361353f575061019c906134a28361343f84610ced565b61354a6104f661327d565b60ff831603613565575061019d906134a28361343f84610ced565b906135716104f6613287565b60ff8216036134a25761019e91506134a28361343f84610ced565b8054821015611b6257611da8601291600052602060002090565b6103069060101c5b65ffffffffffff1690565b61030690546135a6565b6103066103066103069265ffffffffffff1690565b905051906102f08261046e565b909291926135f561069382610656565b938185526020850190828401116102de576102f092611055565b9080601f830112156102de578151610306926020016135e5565b919060a0838203126102de5761363f81846135d8565b9261364d8260208301611681565b92604082015167ffffffffffffffff81116102de576136718461030692850161360f565b9361367f8160608601611681565b93608001612cc8565b610193613696610306825490565b8210156138f7576136ae916136aa9161358c565b5090565b806136c06136bb82610faa565b61391f565b156136cc575050600190565b6136dd6136d883610faa565b613909565b156136e9575050600590565b42916136fc6136f7826135b9565b6135c3565b83101561370b57505050600090565b6001820161371881610ced565b600284019061372c6117eb61030684610ced565b11159182156138b7575b50501561374557505050600290565b61114761375461375992610faa565b613931565b15613765575050600390565b6007019061377282610ced565b916000926137856117eb610306866108e7565b03613793575b505050600490565b826137dc916137a6611746610192611638565b6137ce6137b7634aae13ca93610ced565b926137c160405190565b9586948593849360e01b90565b835260048301526024820190565b03915afa8015612c01578391849161388c575b50155b928361380d575b5050506138085738808061378b565b600690565b61383c919293506020613824611746610192611638565b63a06db7dc9061383360405190565b94859260e01b90565b825260049082905afa8015612c0157613863936117eb93610306939261386c575b50611b28565b113880806137f9565b61388591925060203d811161182357611814818361061b565b903861385d565b6137f292506138ad91503d8086833e6138a5818361061b565b810190613629565b93509350506137ef565b6138de925090611c106138cc6138d293610ced565b91610ced565b611c1060038501610ced565b6138ef6117eb610306610198610ced565b103880613736565b604051630992f7ad60e01b8152600490fd5b6139116133d0565b16611e976122326000611b74565b6139116133da565b6103066008611b74565b613911613927565b906103069d9c9b9a99989796959493929161395261274a565b906139709d9c9b9a99989796959493929161396b612a50565b613fec565b906102f06125cd565b909392938483116102de5784116102de578101920390565b356001600160e01b03191690600481106139a9575090565b6139c09063ffffffff60e01b906004036008021b90565b1690565b9081526040810192916102f09160200152565b6001600160a01b039182168152911660208201526060810192916102f09160400152565b6103066102a0610642565b613a0e6139fb565b9060008252602082016000815260200160008152602001600081526020016000815260200160008152602001600081526020016000815260200160008152602001600081526020016000815260200160608152602001600081526020016060815260200160008152602001600081526020016000815260200160008152602001600081526020016000815260200160009052565b610306613a06565b9061030990610bf2565b6135ae6103066103069290565b610306913691610683565b634e487b7160e01b600052600060045260246000fd5b6103069051610bf2565b906121246103066112b592610bfc565b9067ffffffffffff00009060101b611294565b6135ae6103066103069265ffffffffffff1690565b90613b346103066112b592613b0f565b8254613afc565b906dffffffffffff00000000000000009060401b611294565b90613b646103066112b592613b0f565b8254613b3b565b90611e1f6103066112b59290565b634e487b7160e01b600052602260045260246000fd5b9060016002830492168015613baf575b6020831014613baa57565b613b79565b91607f1691613b9f565b818110613bc4575050565b80613bd26000600193611f24565b01613bb9565b9190601f8111613be757505050565b613bf96102f093600052602060002090565b906020601f840181900483019310613c1b575b6020601f909101040190613bb9565b9091508190613c0c565b90613c2e815190565b9067ffffffffffffffff821161063d57613c5282613c4c8554613b8f565b85613bd8565b602090601f8311600114613c8d576112b5929160009183613c82575b5050600019600883021c1916906002021790565b015190503880613c6e565b601f19831691613ca285600052602060002090565b9260005b818110613ce057509160029391856001969410613cc7575b50505002019055565b01516000196008601f8516021c19169055388080613cbe565b91936020600181928787015181550195019201613ca6565b906102f091613c25565b90613d0b815190565b9067ffffffffffffffff821161063d57613d2982613c4c8554613b8f565b602090601f8311600114613d58576112b5929160009183613c82575050600019600883021c1916906002021790565b601f19831691613d6d85600052602060002090565b9260005b818110613d9157509160029391856001969410613cc75750505002019055565b91936020600181928787015181550195019201613d71565b906102f091613d02565b6102f09190613e319061028090601190613e1f81613ddb613dd5885160ff1690565b826120f7565b613df0613dea60208901613ae2565b82613aec565b613e0c613e06604089015165ffffffffffff1690565b82613b24565b606087015165ffffffffffff1690613b54565b613e3760018201613e31608088015190565b90611e0f565b613e4960028201613e3160a088015190565b613e5b60038201613e3160c088015190565b613e7c60048201613e7660e08801516001600160a01b031690565b9061189b565b613e8f60058201613e3161010088015190565b613ea260068201613e3161012088015190565b613ebb60078201613eb561014088015190565b90613b6b565b613ed460088201613ece61016088015190565b90613cf8565b613ef060098201613e766101808801516001600160a01b031690565b613f09600a8201613f036101a088015190565b90613da9565b613f25600b8201613e766101c08801516001600160a01b031690565b613f38600c8201613e316101e088015190565b613f54600d8201613e766102008801516001600160a01b031690565b613f67600e8201613e3161022088015190565b613f7a600f8201613e3161024088015190565b613f8d60108201613e3161026088015190565b0192015190565b9190613fa3576102f091613db3565b613acc565b90815491600160401b83101561063d5782613fcb9160016102f09501815561358c565b90613f94565b9160206102f09294936105d060408201966000830190610c05565b9c9395969b949799919c9a9298909a506140066000610bf2565b61400f8a610bf2565b036144fd57614021610462600061225f565b6001600160a01b038716146124715760048761403f6117eb836108e7565b106144de57614074611147610fd761406c6140668d60008e614060896108e7565b92613979565b90613991565b6101a16104d3565b6144bf57505b614088611746610191611638565b602061409360405190565b6370a0823160e01b815233600482015291829060249082905afa908115612c01576000916144a1575b5061019a906140d06117eb61030684610ced565b1061440d57506140e4611746610191611638565b602063e4b797c1916140f53061091b565b90614120600061410661019b610ced565b9561412c61411360405190565b9788968795869460e01b90565b845233600485016139d7565b03925af18015612c0157614146916000916143e557501590565b6129cd57610193549c614157613aa2565b3360e08201529b61416b8b60208f01613aaa565b8c42614178610197610ced565b6141829082611b28565b61418b90613ab4565b65ffffffffffff1660408301526141a190613ab4565b65ffffffffffff166060909101528c6141bb61019b610ced565b6141c6916101200152565b6101608d01916141d591613ac1565b90526141e2610191611638565b6141eb9061091b565b9b631504d8f09c6141fb60405190565b614206819f60e01b90565b90528d6004815a602094600091f19a8b15612c01576142386142c49c6142b89f8f906000926143c1575b506101000152565b6142426000610bf2565b61424b8c610bf2565b0361430357505050505050509061427261427d926101808801906001600160a01b03169052565b6101a0860192613ac1565b90525b61428c83610193613fa8565b6142a061010061429a613269565b94015190565b906142aa60405190565b948592602084019283613fd1565b9081038252038361061b565b600080516020615eb6833981519152906142e66142e0856108e7565b916120e7565b916142fd6142f33361091b565b946129c460405190565b0390a490565b929598509295509295506143176003610bf2565b61432089610bf2565b0361435c575050509261434761434f9261433f614357966102208b0152565b610240890152565b610260870152565b610280850152565b614280565b90935061437491955061438d9450614385925061091b565b6001600160a01b03166101c0880152565b6101e0860152565b6143976004610bf2565b6143a083610bf2565b146143ac575b50614280565b6001600160a01b0316610200840152386143a6565b6101009192506143de9060203d811161182357611814818361061b565b9190614230565b611147915060203d8111614406575b6143fe818361061b565b810190612cd5565b503d6143f4565b61441b611746610191611638565b90602061442760405190565b6370a0823160e01b815233600482015292839060249082905afa918215612c015760009261447d575b5061445a90610ced565b906111c261446760405190565b63cf47918160e01b8152928392600484016139c4565b61445a91925061449a9060203d811161182357611814818361061b565b9190614450565b6144b9915060203d811161182357611814818361061b565b386140bc565b6111c2906144cc60405190565b631cd4b64760e21b8152918291820190565b6111c2906144eb60405190565b638129bbcd60e01b8152918291820190565b600161450881610bf2565b6145118b610bf2565b036145475750614524610462600061225f565b61452d8b61091b565b146124715761453c60006108e7565b8c146129df5761407a565b6145516002610bf2565b61455a8b610bf2565b0361456d5750614524610462600061225f565b6145776004610bf2565b6145808b610bf2565b036145d95750614590600061225f565b6001600160a01b0381166145a38c61091b565b14612471578c6145b66117eb60006108e7565b146129df576001600160a01b03166001600160a01b03821614612471575b61407a565b6145e36003610bf2565b6145ec8b610bf2565b036146965761464a90600090614601826108e7565b851161468e575b61461260006108e7565b8611614686575b61462761030661019f610ced565b8810158061466f575b614667575b61463f60006108e7565b871161466157501590565b1561407a57604051632bac1e9760e11b8152600490fd5b90501590565b905080614635565b5061467e6103066101a0610ced565b881115614630565b905080614619565b905080614608565b506146a16005610bf2565b6146aa8a610bf2565b1480156146ea575b156145d4576146c4610462600061225f565b6146cd8b61091b565b14612471576146dc60006108e7565b8c036145d4576040516129e3565b506146f56006610bf2565b6146fe8a610bf2565b146146b2565b6103069c9b9a999897969594939291906000613939565b610193614729610306825490565b8210156138f7576147496136bb6000614742858561358c565b5001610faa565b61477e576136d860006147428461475f9461358c565b61476c576102f090614790565b60405163cf88c65760e01b8152600490fd5b604051636cdcc09360e11b8152600490fd5b6125bb9061479c612a50565b6147ab6136aa8261019361358c565b33906147bc61046260048301611638565b6001600160a01b0383160361499a576147d760018201610ced565b6000906147e66117eb836108e7565b1415801561497a575b801561495a575b6149485761480c6117eb6136f7429385016135b9565b1015614936575b8061482061375482610faa565b80614912575b614892575b614847915061484161483c82610faa565b6149cb565b906120f7565b61484f6133d0565b61487361131a61486d600080516020615eb6833981519152956108e7565b926120e7565b9261487d60405190565b6020808252600090820152806040810161132d565b6148a0611746610192611638565b916148b260076370ba33399201610ced565b833b156102de576148da936137ce600080946148cd60405190565b9788958694859360e01b90565b03925af1918215612c0157614847926148f4575b5061482b565b61490c906000614904818361061b565b8101906103ed565b386148ee565b5061491f60078301610ced565b61492f6117eb61030660006108e7565b1415614826565b604051637a19ed0560e01b8152600490fd5b604051637c9a1cf960e01b8152600490fd5b5061496760038301610ced565b6149736117eb836108e7565b14156147f6565b5061498760028301610ced565b6149936117eb836108e7565b14156147ef565b6149b561114783600080516020615ef6833981519152610fb4565b156148135760405161266a565b6102f09061471b565b6149d36133da565b1790565b9061030692916149e561274a565b91906101936149f5610306825490565b8210156138f757614a0e6136bb6000614742858561358c565b61477e576136d8600061474284614a249461358c565b61476c5761030692614aa3565b916001600160a01b0360089290920291821b911b611294565b9190614a5b6103066112b59361091b565b908354614a31565b90815491600160401b83101561063d5782614a869160016102f095018155611d8e565b90614a4a565b60ff90911681526040810192916102f09160200152565b50600291614ab083611b74565b60ff821611614d0b5761019691614ac781846108f4565b90614ad6610fd7338094610924565b61494857614ae96136aa8261019361358c565b614af242613ab4565b614b0d614b016135ae846135b9565b9165ffffffffffff1690565b1161493657614b5e956020614b26611746610191611638565b639371672e90614b52614b3b60058701610ced565b92614b4560405190565b9b8c948593849360e01b90565b83528a60048401612c28565b03915afa968715612c0157600097614ceb575b50600095614b7e876108e7565b8814614cd957614c1196614bbf91614ba08a611e5b8961095a8a6101946108f4565b614bb4611147610fd78961095a8a866108f4565b614ca7575b50611b74565b60ff861603614c6657614bdf9101613e3187614bda83610ced565b611b28565b614c097fb83d25c6a5d258561330739951487acb4bd09ba5190b5d32c4f261817d906792916108e7565b93849261091b565b938491614c1d60405190565b80614c29898883614a8c565b0390a36006614c4b614c3a60405190565b809461298a88602084019283614a8c565b6142fd6129ba600080516020615eb683398151915292611b74565b506001614c7281611b74565b60ff861603614c9257614c8d9101613e3187614bda83610ced565b614bdf565b506003614c8d9101613e3187614bda83610ced565b614cbb906112e58861095a896001946108f4565b614cd386614cce610306886101956108f4565b614a63565b38614bb9565b604051631f05dadd60e21b8152600490fd5b614d0491975060203d811161182357611814818361061b565b9538614b71565b604051638eed55d160e01b8152600490fd5b610306919060006149d7565b90610193614d38610306825490565b8310156138f7576136aa83614d4c9261358c565b91614d5960018401610ced565b614d716003614d6a60028701610ced565b9501610ced565b92614d8f611e50614d8686614bda8987611b28565b946101956108f4565b919493929190565b6102f090614da361274a565b610193614db1610306825490565b8210156138f757614dca6136bb6000614742858561358c565b61477e576136d8600061474284614de09461358c565b61476c576102f0906125bb90614df4612a50565b614e44565b610309906108e7565b9493916060916102f094614e376128d393614e2d60808b019460008c01906001600160a01b03169052565b60208a0190614df9565b87820360408901526110f4565b614e4d81613688565b614e60614e5a6003610bf2565b91610bf2565b036150035780614f15614e7a6136aa60049461019361358c565b614eba614e8a63a01fc1c6612c0f565b614eab85614e9760405190565b978893602085019081520190815260200190565b6020820181038252038561061b565b6020614eca611746610192611638565b94638e361cdf95614f0a614edd3061091b565b9260009889978892614ef3600261019701610ced565b90614efd60405190565b9c8d988997889660e01b90565b865260048601614e02565b03925af1938415612c01578294614fdd575b509081614f3a856007614f4c9501613b6b565b01614841614f4782610faa565b61501e565b614f767f698a777b9614d463e4ad86ac0dc09595c1ae579ca661dd1cb09391857175404a916108e7565b90818391614f8360405190565b600090a3614f8f6133da565b903391614fb9614f9e60405190565b60208101958652948590604082015b9081038252038561061b565b61132d6142f3614fd7600080516020615eb6833981519152936120e7565b9461091b565b614f4c92919450614ffb9060203d811161182357611814818361061b565b939091614f27565b6040516354f482db60e11b8152600490fd5b6102f090614d97565b6149d3613927565b6102f09061503261274a565b610193615040610306825490565b8210156138f7576150596136bb6000614742858561358c565b61477e576136d860006147428461506f9461358c565b61476c576102f0906125bb90615083612a50565b6150ae565b906020828203126102de57815167ffffffffffffffff81116102de57610306920161360f565b6150c66150c06136aa8361019361358c565b91613688565b906004916150d6614e5a84610bf2565b036151f6576007016150e781610ced565b916000926150fa6117eb610306866108e7565b146151d7576151326020615112611746610192611638565b63f2b06537906151246137b787610ced565b835288830190815260200190565b03915afa8015612c015761514b9185916143e557501590565b6151b857829061515f611746610192611638565b61517e8361517163c69ed5f296610ced565b9561518b61411360405190565b8452830190815260200190565b03925af18015612c015761519d575050565b61103e913d8091833e6151b0818361061b565b810190615088565b6111c2906151c560405190565b637c26b93d60e01b8152918291820190565b6111c2906151e460405190565b63c0ea43e160e01b8152918291820190565b6111c28261520360405190565b63ccbc0d7160e01b8152918291820190565b6102f090615026565b606080825260149082015273494e53554646494349454e545f42414c414e434560601b60808201529092916102f0916040906105d060a08201966020830152565b6040808252600d908201526c14915195539117d19052531151609a1b6060820152608060208201819052610306929101906110f4565b336152a7610462611746610192611638565b6001600160a01b03821603612666576101936152c4610306825490565b8310156138f7576136aa836152d89261358c565b806152e56136d882610faa565b61476c576152f861114761375484610faa565b6155d3576153058461569c565b61531f61531961531484610faa565b6155ed565b836120f7565b61533361114761532e84610faa565b6155e5565b61538e575b5061534a6153446133e4565b9161207a565b9261536761535760405190565b8095614fad602083019182610c0e565b61132d6142f3614fd7615388600080516020615eb6833981519152946108e7565b946120e7565b6153ba61539f611746610191611638565b9160206370a082316153b03061091b565b9461383360405190565b82526001600160a01b038616600483015260249082905afa918215612c01576000926155b3575b5060068101916153f361030684610ced565b81106155545750602061540a611746610191611638565b93600463e4b797c1930194615441600061542388611638565b9561544c61543089610ced565b6040515b9889978896879560e01b90565b8552600485016139d7565b03925af19081615538575b506154bf5750615465611a02565b90615471600591611638565b9061548e61547e60405190565b809461298a60208301918261525f565b600080516020615eb68339815191526154b56142f3614fd76154af8a6108e7565b94611b74565b0390a45b38615338565b61298a916154dd6154d76154d286610faa565b6155f5565b856120f7565b61550f6154eb600592611638565b926154f76138cc613269565b9061550160405190565b958692602084019283614a8c565b600080516020615eb68339815191526155306142f3614fd76154af8a6108e7565b0390a46154b9565b61554f9060203d8111614406576143fe818361061b565b615457565b909350615592919450614fad95925061557a615574600460059601611638565b95610ced565b9061558460405190565b96879260208401928361521e565b61132d6142f3614fd76154af600080516020615eb6833981519152946108e7565b6155cc91925060203d811161182357611814818361061b565b90386153e1565b60405163ccbc0d7160e01b8152600490fd5b6139116133ee565b6149d36133d0565b6149d36133ee565b8054600093929161561461561083613b8f565b9390565b9160018116908115615665575060011461562d57505050565b6156409192939450600052602060002090565b6000905b8382106156515750500190565b600181602092548486015201910190615644565b60ff191683525050811515909102019150565b610306916155fd565b6702330b4b632b21d160c51b815261030691906008016110d1565b6156ab6136aa8261019361358c565b9081906156b78261207a565b6156c4614e5a6001610bf2565b0361576457505090600b8201916156da83611638565b906000916156ed61143a6104628561225f565b1461247157600c01926156ff84610ced565b61570b6117eb846108e7565b146129df576157193061091b565b803161572a6117eb61030688610ced565b1061575a575061575492936157426138cc8493611638565b60405190818003925af1612930611a02565b6129cd57565b3161445a85610ced565b61576d8261207a565b61577a614e5a6002610bf2565b03615815575050600b810161578e81611638565b916000926157a161143a6104628661225f565b1461247157600c01906157b382610ced565b6157bf6117eb856108e7565b146129df576020906157d5611746610191611638565b6154418563e4b797c16157fc6154306157f66157f03061091b565b97611638565b98610ced565b03925af1908115612c015761575492916143e557501590565b9161582182949261207a565b92600493615831614e5a86610bf2565b03615913575090919250600b81019061584982611638565b936000916158568361225f565b956158696001600160a01b03881661143a565b1461590657600c8101926158886117eb61588286610ced565b926108e7565b146158e757600d01946158a061143a6115ad88611638565b146158c857506158c26138cc6158bc6117466102f09697611638565b93611638565b91612c45565b6111c2906158d560405190565b63d92e233d60e01b8152918291820190565b6111c2826158f460405190565b63162908e360e11b8152918291820190565b6111c2826158d560405190565b919361591e9061207a565b60009061592d614e5a83610bf2565b03615a1657600982019161594083611638565b9261594a8361225f565b9361595d6001600160a01b03861661143a565b14615a09579061598783600a6159738295611638565b930161597e60405190565b92839182615678565b03925af19161599c615997611a02565b931590565b6159a65750505050565b6111c294506159b36133e4565b906159d06159c060405190565b8095614fad602083019182615681565b6159f16142f3614fd7615388600080516020615eb6833981519152946108e7565b0390a4604051633204506f60e01b8152918291820190565b6111c2866158d560405190565b8092508101615a248161207a565b615a31614e5a6003610bf2565b03615b375750600e919250600f8101615a4981610ced565b615a556117eb866108e7565b11615b22575b5060108101615a6981610ced565b615a7a6117eb61030661019f610ced565b101580615b00575b615aeb575b5060118101615a9581610ced565b615aa16117eb866108e7565b11615ad6575b500190615ab96117eb61588284610ced565b11615ac15750565b6102f090615ad06138cc6133e4565b90613417565b615ae590615ad06138cc6133da565b38615aa7565b615afa90615ad06138cc613269565b38615a87565b50615b0a81610ced565b615b1b6117eb6103066101a0610ced565b1115615a82565b615b3190615ad06138cc6133d0565b38615a5b565b615b408161207a565b615b4d614e5a6005610bf2565b03615c2e5750600b810190615b6182611638565b615b7061143a6104628661225f565b14615c2157600c01615b8181610ced565b615b8d6117eb856108e7565b14615c1457602090615ba3611746610191611638565b615bcb85615bbe615bb863dd329b5c97611638565b94610ced565b95615bd561411360405190565b84528b8401612c28565b03925af1908115612c0157615bee92916143e557501590565b615bf55750565b6111c290615c0260405190565b6312171d8360e31b8152918291820190565b6111c2846158f460405190565b6111c2846158d560405190565b615c379061207a565b615c44614e5a6006610bf2565b14615c4e57505050565b600b810190615c5c82611638565b615c6b61143a6104628661225f565b14615c2157600c01615c7c81610ced565b615c886117eb856108e7565b14615c1457602090615c9e611746610191611638565b615bcb85615bbe615bb863a89ae7d097611638565b6125bb90615cbf612a50565b610193615ccd610306825490565b8210156138f7576136aa82615ce19261358c565b6004810133615cf561143a61046284611638565b03615e9a5781615d0761532e82610faa565b615e8857615d1484613688565b615d1e6002610bf2565b615d2782610bf2565b03615dfe5750615d50615d3f6006615d609301610ced565b615d4a61019c610ced565b90611b10565b615d5a60646108e7565b9061227e565b92615d7a615d6c6133d0565b935b6148416154d282610faa565b615d88611746610191611638565b602063e4b797c191615d993061091b565b906154416000615da888611638565b95615db68b61543460405190565b03925af18015612c0157615dd0916000916143e557501590565b6129cd57615592614fad94615de6600594611638565b94615df060405190565b968792602084019283614a8c565b615e086001610bf2565b615e1182610bf2565b03615e465750615d50615e296006615e349301610ced565b615d4a61019d610ced565b92615d7a615e406133d0565b93615d6e565b600690615e55614e5a83610bf2565b03615e7657615e6b615d5091615e349301610ced565b615d4a61019e610ced565b60405163170d50bf60e31b8152600490fd5b60405163542f378d60e11b8152600490fd5b604051637d1b73b960e01b8152600490fd5b6102f090615cb356fe54b806ba9fbc09bfb093dba20b75f7df5ed2e3d53fa9c33bb73ca923d4314869a49807205ce4d355092ef5a8a18f56e8913cf4a201fbe287825b095693c2177555435dd261a4b9b3364963f7738a7a662ad9c84396d64be3365284bb7f0a5041a164736f6c6343000814000a",
  "linkReferences": {},
  "deployedLinkReferences": {}
}