{
  "_format": "hh-sol-artifact-1",
  "contractName": "JustTimelockUpgradeable",
  "sourceName": "contracts/JustTimelockUpgradeable.sol",
  "abi": [
    {
      "inputs": [
        {
          "internalType": "bytes32",
          "name": "txHash",
          "type": "bytes32"
        }
      ],
      "name": "AlreadyCanceled",
      "type": "error"
    },
    {
      "inputs": [
        {
          "internalType": "address",
          "name": "target",
          "type": "address"
        },
        {
          "internalType": "bytes",
          "name": "data",
          "type": "bytes"
        }
      ],
      "name": "CallFailed",
      "type": "error"
    },
    {
      "inputs": [],
      "name": "DelayHierarchyViolation",
      "type": "error"
    },
    {
      "inputs": [
        {
          "internalType": "uint256",
          "name": "provided",
          "type": "uint256"
        },
        {
          "internalType": "uint256",
          "name": "maximum",
          "type": "uint256"
        }
      ],
      "name": "DelayTooLong",
      "type": "error"
    },
    {
      "inputs": [
        {
          "internalType": "uint256",
          "name": "provided",
          "type": "uint256"
        },
        {
          "internalType": "uint256",
          "name": "minimum",
          "type": "uint256"
        }
      ],
      "name": "DelayTooShort",
      "type": "error"
    },
    {
      "inputs": [],
      "name": "InvalidParams",
      "type": "error"
    },
    {
      "inputs": [
        {
          "internalType": "address",
          "name": "caller",
          "type": "address"
        }
      ],
      "name": "NoTokenHolding",
      "type": "error"
    },
    {
      "inputs": [
        {
          "internalType": "address",
          "name": "caller",
          "type": "address"
        },
        {
          "internalType": "bytes32",
          "name": "role",
          "type": "bytes32"
        }
      ],
      "name": "NotAuthorized",
      "type": "error"
    },
    {
      "inputs": [
        {
          "internalType": "bytes32",
          "name": "txHash",
          "type": "bytes32"
        },
        {
          "internalType": "uint256",
          "name": "eta",
          "type": "uint256"
        },
        {
          "internalType": "uint256",
          "name": "gracePeriod",
          "type": "uint256"
        },
        {
          "internalType": "uint256",
          "name": "currentTime",
          "type": "uint256"
        }
      ],
      "name": "TransactionNotExpired",
      "type": "error"
    },
    {
      "inputs": [
        {
          "internalType": "bytes32",
          "name": "txHash",
          "type": "bytes32"
        }
      ],
      "name": "TransactionNotPreviouslyFailed",
      "type": "error"
    },
    {
      "inputs": [
        {
          "internalType": "bytes32",
          "name": "txHash",
          "type": "bytes32"
        }
      ],
      "name": "TxAlreadyExecuted",
      "type": "error"
    },
    {
      "inputs": [
        {
          "internalType": "bytes32",
          "name": "txHash",
          "type": "bytes32"
        }
      ],
      "name": "TxAlreadyQueued",
      "type": "error"
    },
    {
      "inputs": [
        {
          "internalType": "bytes32",
          "name": "txHash",
          "type": "bytes32"
        },
        {
          "internalType": "uint256",
          "name": "eta",
          "type": "uint256"
        },
        {
          "internalType": "uint256",
          "name": "gracePeriod",
          "type": "uint256"
        },
        {
          "internalType": "uint256",
          "name": "currentTime",
          "type": "uint256"
        }
      ],
      "name": "TxExpired",
      "type": "error"
    },
    {
      "inputs": [
        {
          "internalType": "bytes32",
          "name": "txHash",
          "type": "bytes32"
        }
      ],
      "name": "TxNotQueued",
      "type": "error"
    },
    {
      "inputs": [
        {
          "internalType": "bytes32",
          "name": "txHash",
          "type": "bytes32"
        },
        {
          "internalType": "uint256",
          "name": "eta",
          "type": "uint256"
        },
        {
          "internalType": "uint256",
          "name": "currentTime",
          "type": "uint256"
        }
      ],
      "name": "TxNotReady",
      "type": "error"
    },
    {
      "inputs": [
        {
          "internalType": "string",
          "name": "param",
          "type": "string"
        }
      ],
      "name": "ZeroAddress",
      "type": "error"
    },
    {
      "inputs": [],
      "name": "ZeroDelay",
      "type": "error"
    },
    {
      "anonymous": false,
      "inputs": [
        {
          "indexed": true,
          "internalType": "address",
          "name": "target",
          "type": "address"
        },
        {
          "indexed": false,
          "internalType": "enum JustTimelockUpgradeable.ThreatLevel",
          "name": "level",
          "type": "uint8"
        }
      ],
      "name": "AddressThreatLevelSet",
      "type": "event"
    },
    {
      "anonymous": false,
      "inputs": [
        {
          "indexed": false,
          "internalType": "address",
          "name": "previousAdmin",
          "type": "address"
        },
        {
          "indexed": false,
          "internalType": "address",
          "name": "newAdmin",
          "type": "address"
        }
      ],
      "name": "AdminChanged",
      "type": "event"
    },
    {
      "anonymous": false,
      "inputs": [
        {
          "indexed": true,
          "internalType": "address",
          "name": "beacon",
          "type": "address"
        }
      ],
      "name": "BeaconUpgraded",
      "type": "event"
    },
    {
      "anonymous": false,
      "inputs": [
        {
          "indexed": true,
          "internalType": "address",
          "name": "admin",
          "type": "address"
        },
        {
          "indexed": false,
          "internalType": "uint256",
          "name": "minDelay",
          "type": "uint256"
        }
      ],
      "name": "ContractInitialized",
      "type": "event"
    },
    {
      "anonymous": false,
      "inputs": [
        {
          "indexed": true,
          "internalType": "address",
          "name": "guardian",
          "type": "address"
        }
      ],
      "name": "ContractPaused",
      "type": "event"
    },
    {
      "anonymous": false,
      "inputs": [
        {
          "indexed": true,
          "internalType": "address",
          "name": "guardian",
          "type": "address"
        }
      ],
      "name": "ContractUnpaused",
      "type": "event"
    },
    {
      "anonymous": false,
      "inputs": [
        {
          "indexed": false,
          "internalType": "uint256",
          "name": "newMinDelay",
          "type": "uint256"
        },
        {
          "indexed": false,
          "internalType": "uint256",
          "name": "newMaxDelay",
          "type": "uint256"
        },
        {
          "indexed": false,
          "internalType": "uint256",
          "name": "newGracePeriod",
          "type": "uint256"
        }
      ],
      "name": "DelaysUpdated",
      "type": "event"
    },
    {
      "anonymous": false,
      "inputs": [
        {
          "indexed": false,
          "internalType": "uint256",
          "name": "newThreshold",
          "type": "uint256"
        }
      ],
      "name": "ExecutorThresholdUpdated",
      "type": "event"
    },
    {
      "anonymous": false,
      "inputs": [
        {
          "indexed": true,
          "internalType": "bytes32",
          "name": "txHash",
          "type": "bytes32"
        },
        {
          "indexed": true,
          "internalType": "address",
          "name": "target",
          "type": "address"
        },
        {
          "indexed": false,
          "internalType": "uint256",
          "name": "value",
          "type": "uint256"
        },
        {
          "indexed": false,
          "internalType": "bytes",
          "name": "data",
          "type": "bytes"
        }
      ],
      "name": "ExpiredTransactionExecuted",
      "type": "event"
    },
    {
      "anonymous": false,
      "inputs": [
        {
          "indexed": true,
          "internalType": "bytes32",
          "name": "txHash",
          "type": "bytes32"
        },
        {
          "indexed": true,
          "internalType": "address",
          "name": "target",
          "type": "address"
        },
        {
          "indexed": false,
          "internalType": "uint256",
          "name": "value",
          "type": "uint256"
        },
        {
          "indexed": false,
          "internalType": "bytes",
          "name": "data",
          "type": "bytes"
        }
      ],
      "name": "FailedTransactionRetried",
      "type": "event"
    },
    {
      "anonymous": false,
      "inputs": [
        {
          "indexed": true,
          "internalType": "bytes4",
          "name": "selector",
          "type": "bytes4"
        },
        {
          "indexed": false,
          "internalType": "enum JustTimelockUpgradeable.ThreatLevel",
          "name": "level",
          "type": "uint8"
        }
      ],
      "name": "FunctionThreatLevelSet",
      "type": "event"
    },
    {
      "anonymous": false,
      "inputs": [
        {
          "indexed": true,
          "internalType": "address",
          "name": "account",
          "type": "address"
        },
        {
          "indexed": false,
          "internalType": "bool",
          "name": "isGranted",
          "type": "bool"
        }
      ],
      "name": "GovernanceRoleChanged",
      "type": "event"
    },
    {
      "anonymous": false,
      "inputs": [
        {
          "indexed": true,
          "internalType": "address",
          "name": "oldGovernance",
          "type": "address"
        },
        {
          "indexed": true,
          "internalType": "address",
          "name": "newGovernance",
          "type": "address"
        }
      ],
      "name": "GovernanceRoleTransferred",
      "type": "event"
    },
    {
      "anonymous": false,
      "inputs": [
        {
          "indexed": false,
          "internalType": "uint8",
          "name": "version",
          "type": "uint8"
        }
      ],
      "name": "Initialized",
      "type": "event"
    },
    {
      "anonymous": false,
      "inputs": [
        {
          "indexed": true,
          "internalType": "address",
          "name": "tokenAddress",
          "type": "address"
        }
      ],
      "name": "JustTokenSet",
      "type": "event"
    },
    {
      "anonymous": false,
      "inputs": [
        {
          "indexed": false,
          "internalType": "address",
          "name": "account",
          "type": "address"
        }
      ],
      "name": "Paused",
      "type": "event"
    },
    {
      "anonymous": false,
      "inputs": [
        {
          "indexed": true,
          "internalType": "bytes32",
          "name": "role",
          "type": "bytes32"
        },
        {
          "indexed": true,
          "internalType": "bytes32",
          "name": "previousAdminRole",
          "type": "bytes32"
        },
        {
          "indexed": true,
          "internalType": "bytes32",
          "name": "newAdminRole",
          "type": "bytes32"
        }
      ],
      "name": "RoleAdminChanged",
      "type": "event"
    },
    {
      "anonymous": false,
      "inputs": [
        {
          "indexed": true,
          "internalType": "bytes32",
          "name": "role",
          "type": "bytes32"
        },
        {
          "indexed": true,
          "internalType": "address",
          "name": "account",
          "type": "address"
        },
        {
          "indexed": true,
          "internalType": "address",
          "name": "sender",
          "type": "address"
        }
      ],
      "name": "RoleGranted",
      "type": "event"
    },
    {
      "anonymous": false,
      "inputs": [
        {
          "indexed": true,
          "internalType": "bytes32",
          "name": "role",
          "type": "bytes32"
        },
        {
          "indexed": true,
          "internalType": "address",
          "name": "account",
          "type": "address"
        }
      ],
      "name": "RoleGranted",
      "type": "event"
    },
    {
      "anonymous": false,
      "inputs": [
        {
          "indexed": true,
          "internalType": "bytes32",
          "name": "role",
          "type": "bytes32"
        },
        {
          "indexed": true,
          "internalType": "address",
          "name": "account",
          "type": "address"
        },
        {
          "indexed": true,
          "internalType": "address",
          "name": "sender",
          "type": "address"
        }
      ],
      "name": "RoleRevoked",
      "type": "event"
    },
    {
      "anonymous": false,
      "inputs": [
        {
          "indexed": true,
          "internalType": "bytes32",
          "name": "role",
          "type": "bytes32"
        },
        {
          "indexed": true,
          "internalType": "address",
          "name": "account",
          "type": "address"
        }
      ],
      "name": "RoleRevoked",
      "type": "event"
    },
    {
      "anonymous": false,
      "inputs": [
        {
          "indexed": false,
          "internalType": "uint256",
          "name": "lowDelay",
          "type": "uint256"
        },
        {
          "indexed": false,
          "internalType": "uint256",
          "name": "mediumDelay",
          "type": "uint256"
        },
        {
          "indexed": false,
          "internalType": "uint256",
          "name": "highDelay",
          "type": "uint256"
        },
        {
          "indexed": false,
          "internalType": "uint256",
          "name": "criticalDelay",
          "type": "uint256"
        }
      ],
      "name": "ThreatLevelDelaysUpdated",
      "type": "event"
    },
    {
      "anonymous": false,
      "inputs": [
        {
          "indexed": true,
          "internalType": "bytes32",
          "name": "txHash",
          "type": "bytes32"
        }
      ],
      "name": "TransactionCanceled",
      "type": "event"
    },
    {
      "anonymous": false,
      "inputs": [
        {
          "indexed": true,
          "internalType": "bytes32",
          "name": "txHash",
          "type": "bytes32"
        },
        {
          "indexed": true,
          "internalType": "address",
          "name": "target",
          "type": "address"
        },
        {
          "indexed": false,
          "internalType": "uint256",
          "name": "value",
          "type": "uint256"
        },
        {
          "indexed": false,
          "internalType": "bytes",
          "name": "data",
          "type": "bytes"
        }
      ],
      "name": "TransactionExecuted",
      "type": "event"
    },
    {
      "anonymous": false,
      "inputs": [
        {
          "indexed": true,
          "internalType": "bytes32",
          "name": "txHash",
          "type": "bytes32"
        },
        {
          "indexed": true,
          "internalType": "address",
          "name": "target",
          "type": "address"
        },
        {
          "indexed": false,
          "internalType": "string",
          "name": "reason",
          "type": "string"
        }
      ],
      "name": "TransactionExecutionFailed",
      "type": "event"
    },
    {
      "anonymous": false,
      "inputs": [
        {
          "indexed": true,
          "internalType": "bytes32",
          "name": "txHash",
          "type": "bytes32"
        },
        {
          "indexed": true,
          "internalType": "address",
          "name": "target",
          "type": "address"
        },
        {
          "indexed": false,
          "internalType": "uint256",
          "name": "value",
          "type": "uint256"
        },
        {
          "indexed": false,
          "internalType": "bytes",
          "name": "data",
          "type": "bytes"
        },
        {
          "indexed": false,
          "internalType": "uint256",
          "name": "eta",
          "type": "uint256"
        },
        {
          "indexed": false,
          "internalType": "enum JustTimelockUpgradeable.ThreatLevel",
          "name": "threatLevel",
          "type": "uint8"
        }
      ],
      "name": "TransactionQueued",
      "type": "event"
    },
    {
      "anonymous": false,
      "inputs": [
        {
          "indexed": true,
          "internalType": "bytes32",
          "name": "txHash",
          "type": "bytes32"
        },
        {
          "indexed": true,
          "internalType": "address",
          "name": "proposer",
          "type": "address"
        }
      ],
      "name": "TransactionSubmitted",
      "type": "event"
    },
    {
      "anonymous": false,
      "inputs": [
        {
          "indexed": false,
          "internalType": "address",
          "name": "account",
          "type": "address"
        }
      ],
      "name": "Unpaused",
      "type": "event"
    },
    {
      "anonymous": false,
      "inputs": [
        {
          "indexed": true,
          "internalType": "address",
          "name": "implementation",
          "type": "address"
        }
      ],
      "name": "Upgraded",
      "type": "event"
    },
    {
      "inputs": [],
      "name": "ADMIN_ROLE",
      "outputs": [
        {
          "internalType": "bytes32",
          "name": "",
          "type": "bytes32"
        }
      ],
      "stateMutability": "view",
      "type": "function"
    },
    {
      "inputs": [],
      "name": "CANCELLER_ROLE",
      "outputs": [
        {
          "internalType": "bytes32",
          "name": "",
          "type": "bytes32"
        }
      ],
      "stateMutability": "view",
      "type": "function"
    },
    {
      "inputs": [],
      "name": "DEFAULT_ADMIN_ROLE",
      "outputs": [
        {
          "internalType": "bytes32",
          "name": "",
          "type": "bytes32"
        }
      ],
      "stateMutability": "view",
      "type": "function"
    },
    {
      "inputs": [],
      "name": "EXECUTOR_ROLE",
      "outputs": [
        {
          "internalType": "bytes32",
          "name": "",
          "type": "bytes32"
        }
      ],
      "stateMutability": "view",
      "type": "function"
    },
    {
      "inputs": [],
      "name": "GOVERNANCE_ROLE",
      "outputs": [
        {
          "internalType": "bytes32",
          "name": "",
          "type": "bytes32"
        }
      ],
      "stateMutability": "view",
      "type": "function"
    },
    {
      "inputs": [],
      "name": "GUARDIAN_ROLE",
      "outputs": [
        {
          "internalType": "bytes32",
          "name": "",
          "type": "bytes32"
        }
      ],
      "stateMutability": "view",
      "type": "function"
    },
    {
      "inputs": [],
      "name": "MINTER_ROLE",
      "outputs": [
        {
          "internalType": "bytes32",
          "name": "",
          "type": "bytes32"
        }
      ],
      "stateMutability": "view",
      "type": "function"
    },
    {
      "inputs": [],
      "name": "PROPOSER_ROLE",
      "outputs": [
        {
          "internalType": "bytes32",
          "name": "",
          "type": "bytes32"
        }
      ],
      "stateMutability": "view",
      "type": "function"
    },
    {
      "inputs": [],
      "name": "TIMELOCK_ADMIN_ROLE",
      "outputs": [
        {
          "internalType": "bytes32",
          "name": "",
          "type": "bytes32"
        }
      ],
      "stateMutability": "view",
      "type": "function"
    },
    {
      "inputs": [
        {
          "internalType": "address",
          "name": "",
          "type": "address"
        }
      ],
      "name": "addressThreatLevels",
      "outputs": [
        {
          "internalType": "enum JustTimelockUpgradeable.ThreatLevel",
          "name": "",
          "type": "uint8"
        }
      ],
      "stateMutability": "view",
      "type": "function"
    },
    {
      "inputs": [
        {
          "internalType": "bytes32",
          "name": "txHash",
          "type": "bytes32"
        }
      ],
      "name": "cancelTransaction",
      "outputs": [],
      "stateMutability": "nonpayable",
      "type": "function"
    },
    {
      "inputs": [],
      "name": "criticalThreatDelay",
      "outputs": [
        {
          "internalType": "uint256",
          "name": "",
          "type": "uint256"
        }
      ],
      "stateMutability": "view",
      "type": "function"
    },
    {
      "inputs": [
        {
          "internalType": "bytes32",
          "name": "txHash",
          "type": "bytes32"
        }
      ],
      "name": "executeExpiredTransaction",
      "outputs": [
        {
          "internalType": "bytes",
          "name": "returnData",
          "type": "bytes"
        }
      ],
      "stateMutability": "nonpayable",
      "type": "function"
    },
    {
      "inputs": [
        {
          "internalType": "bytes32",
          "name": "txHash",
          "type": "bytes32"
        }
      ],
      "name": "executeFailedTransaction",
      "outputs": [
        {
          "internalType": "bytes",
          "name": "returnData",
          "type": "bytes"
        }
      ],
      "stateMutability": "nonpayable",
      "type": "function"
    },
    {
      "inputs": [
        {
          "internalType": "bytes32",
          "name": "txHash",
          "type": "bytes32"
        }
      ],
      "name": "executeTransaction",
      "outputs": [
        {
          "internalType": "bytes",
          "name": "returnData",
          "type": "bytes"
        }
      ],
      "stateMutability": "nonpayable",
      "type": "function"
    },
    {
      "inputs": [
        {
          "internalType": "bytes4",
          "name": "",
          "type": "bytes4"
        }
      ],
      "name": "functionThreatLevels",
      "outputs": [
        {
          "internalType": "enum JustTimelockUpgradeable.ThreatLevel",
          "name": "",
          "type": "uint8"
        }
      ],
      "stateMutability": "view",
      "type": "function"
    },
    {
      "inputs": [
        {
          "internalType": "enum JustTimelockUpgradeable.ThreatLevel",
          "name": "level",
          "type": "uint8"
        }
      ],
      "name": "getDelayForThreatLevel",
      "outputs": [
        {
          "internalType": "uint256",
          "name": "",
          "type": "uint256"
        }
      ],
      "stateMutability": "view",
      "type": "function"
    },
    {
      "inputs": [
        {
          "internalType": "bytes32",
          "name": "role",
          "type": "bytes32"
        }
      ],
      "name": "getRoleAdmin",
      "outputs": [
        {
          "internalType": "bytes32",
          "name": "",
          "type": "bytes32"
        }
      ],
      "stateMutability": "view",
      "type": "function"
    },
    {
      "inputs": [
        {
          "internalType": "bytes32",
          "name": "role",
          "type": "bytes32"
        },
        {
          "internalType": "uint256",
          "name": "index",
          "type": "uint256"
        }
      ],
      "name": "getRoleMember",
      "outputs": [
        {
          "internalType": "address",
          "name": "",
          "type": "address"
        }
      ],
      "stateMutability": "view",
      "type": "function"
    },
    {
      "inputs": [
        {
          "internalType": "bytes32",
          "name": "role",
          "type": "bytes32"
        }
      ],
      "name": "getRoleMemberCount",
      "outputs": [
        {
          "internalType": "uint256",
          "name": "",
          "type": "uint256"
        }
      ],
      "stateMutability": "view",
      "type": "function"
    },
    {
      "inputs": [
        {
          "internalType": "address",
          "name": "target",
          "type": "address"
        },
        {
          "internalType": "bytes",
          "name": "data",
          "type": "bytes"
        }
      ],
      "name": "getThreatLevel",
      "outputs": [
        {
          "internalType": "enum JustTimelockUpgradeable.ThreatLevel",
          "name": "",
          "type": "uint8"
        }
      ],
      "stateMutability": "view",
      "type": "function"
    },
    {
      "inputs": [
        {
          "internalType": "bytes32",
          "name": "txHash",
          "type": "bytes32"
        }
      ],
      "name": "getTransaction",
      "outputs": [
        {
          "internalType": "address",
          "name": "target",
          "type": "address"
        },
        {
          "internalType": "uint256",
          "name": "value",
          "type": "uint256"
        },
        {
          "internalType": "bytes",
          "name": "data",
          "type": "bytes"
        },
        {
          "internalType": "uint256",
          "name": "eta",
          "type": "uint256"
        },
        {
          "internalType": "bool",
          "name": "executed",
          "type": "bool"
        }
      ],
      "stateMutability": "view",
      "type": "function"
    },
    {
      "inputs": [],
      "name": "gracePeriod",
      "outputs": [
        {
          "internalType": "uint256",
          "name": "",
          "type": "uint256"
        }
      ],
      "stateMutability": "view",
      "type": "function"
    },
    {
      "inputs": [
        {
          "internalType": "bytes32",
          "name": "role",
          "type": "bytes32"
        },
        {
          "internalType": "address",
          "name": "account",
          "type": "address"
        }
      ],
      "name": "grantContractRole",
      "outputs": [],
      "stateMutability": "nonpayable",
      "type": "function"
    },
    {
      "inputs": [
        {
          "internalType": "bytes32",
          "name": "role",
          "type": "bytes32"
        },
        {
          "internalType": "address",
          "name": "account",
          "type": "address"
        }
      ],
      "name": "grantRole",
      "outputs": [],
      "stateMutability": "nonpayable",
      "type": "function"
    },
    {
      "inputs": [
        {
          "internalType": "bytes32",
          "name": "role",
          "type": "bytes32"
        },
        {
          "internalType": "address",
          "name": "account",
          "type": "address"
        }
      ],
      "name": "hasRole",
      "outputs": [
        {
          "internalType": "bool",
          "name": "",
          "type": "bool"
        }
      ],
      "stateMutability": "view",
      "type": "function"
    },
    {
      "inputs": [],
      "name": "highThreatDelay",
      "outputs": [
        {
          "internalType": "uint256",
          "name": "",
          "type": "uint256"
        }
      ],
      "stateMutability": "view",
      "type": "function"
    },
    {
      "inputs": [
        {
          "internalType": "uint256",
          "name": "initialMinDelay",
          "type": "uint256"
        },
        {
          "internalType": "address[]",
          "name": "proposers",
          "type": "address[]"
        },
        {
          "internalType": "address[]",
          "name": "executors",
          "type": "address[]"
        },
        {
          "internalType": "address",
          "name": "admin",
          "type": "address"
        }
      ],
      "name": "initialize",
      "outputs": [],
      "stateMutability": "nonpayable",
      "type": "function"
    },
    {
      "inputs": [
        {
          "internalType": "address",
          "name": "user",
          "type": "address"
        }
      ],
      "name": "isAuthorizedByTokens",
      "outputs": [
        {
          "internalType": "bool",
          "name": "",
          "type": "bool"
        }
      ],
      "stateMutability": "view",
      "type": "function"
    },
    {
      "inputs": [],
      "name": "justToken",
      "outputs": [
        {
          "internalType": "contract JustTokenInterface",
          "name": "",
          "type": "address"
        }
      ],
      "stateMutability": "view",
      "type": "function"
    },
    {
      "inputs": [],
      "name": "lowThreatDelay",
      "outputs": [
        {
          "internalType": "uint256",
          "name": "",
          "type": "uint256"
        }
      ],
      "stateMutability": "view",
      "type": "function"
    },
    {
      "inputs": [
        {
          "internalType": "bytes32",
          "name": "txHash",
          "type": "bytes32"
        }
      ],
      "name": "markTransactionAsFailed",
      "outputs": [],
      "stateMutability": "nonpayable",
      "type": "function"
    },
    {
      "inputs": [],
      "name": "maxDelay",
      "outputs": [
        {
          "internalType": "uint256",
          "name": "",
          "type": "uint256"
        }
      ],
      "stateMutability": "view",
      "type": "function"
    },
    {
      "inputs": [],
      "name": "mediumThreatDelay",
      "outputs": [
        {
          "internalType": "uint256",
          "name": "",
          "type": "uint256"
        }
      ],
      "stateMutability": "view",
      "type": "function"
    },
    {
      "inputs": [],
      "name": "minDelay",
      "outputs": [
        {
          "internalType": "uint256",
          "name": "",
          "type": "uint256"
        }
      ],
      "stateMutability": "view",
      "type": "function"
    },
    {
      "inputs": [],
      "name": "minExecutorTokenThreshold",
      "outputs": [
        {
          "internalType": "uint256",
          "name": "",
          "type": "uint256"
        }
      ],
      "stateMutability": "view",
      "type": "function"
    },
    {
      "inputs": [],
      "name": "paused",
      "outputs": [
        {
          "internalType": "bool",
          "name": "",
          "type": "bool"
        }
      ],
      "stateMutability": "view",
      "type": "function"
    },
    {
      "inputs": [],
      "name": "proxiableUUID",
      "outputs": [
        {
          "internalType": "bytes32",
          "name": "",
          "type": "bytes32"
        }
      ],
      "stateMutability": "view",
      "type": "function"
    },
    {
      "inputs": [
        {
          "internalType": "uint256",
          "name": "newMinDelay",
          "type": "uint256"
        },
        {
          "internalType": "uint256",
          "name": "newMaxDelay",
          "type": "uint256"
        },
        {
          "internalType": "uint256",
          "name": "newGracePeriod",
          "type": "uint256"
        }
      ],
      "name": "queueDelayUpdate",
      "outputs": [
        {
          "internalType": "bytes32",
          "name": "",
          "type": "bytes32"
        }
      ],
      "stateMutability": "nonpayable",
      "type": "function"
    },
    {
      "inputs": [
        {
          "internalType": "uint256",
          "name": "newLowDelay",
          "type": "uint256"
        },
        {
          "internalType": "uint256",
          "name": "newMediumDelay",
          "type": "uint256"
        },
        {
          "internalType": "uint256",
          "name": "newHighDelay",
          "type": "uint256"
        },
        {
          "internalType": "uint256",
          "name": "newCriticalDelay",
          "type": "uint256"
        }
      ],
      "name": "queueThreatLevelDelaysUpdate",
      "outputs": [
        {
          "internalType": "bytes32",
          "name": "",
          "type": "bytes32"
        }
      ],
      "stateMutability": "nonpayable",
      "type": "function"
    },
    {
      "inputs": [
        {
          "internalType": "address",
          "name": "target",
          "type": "address"
        },
        {
          "internalType": "uint256",
          "name": "value",
          "type": "uint256"
        },
        {
          "internalType": "bytes",
          "name": "data",
          "type": "bytes"
        },
        {
          "internalType": "uint256",
          "name": "delay",
          "type": "uint256"
        }
      ],
      "name": "queueTransaction",
      "outputs": [
        {
          "internalType": "bytes32",
          "name": "",
          "type": "bytes32"
        }
      ],
      "stateMutability": "nonpayable",
      "type": "function"
    },
    {
      "inputs": [
        {
          "internalType": "address",
          "name": "target",
          "type": "address"
        },
        {
          "internalType": "uint256",
          "name": "value",
          "type": "uint256"
        },
        {
          "internalType": "bytes",
          "name": "data",
          "type": "bytes"
        }
      ],
      "name": "queueTransactionWithThreatLevel",
      "outputs": [
        {
          "internalType": "bytes32",
          "name": "",
          "type": "bytes32"
        }
      ],
      "stateMutability": "nonpayable",
      "type": "function"
    },
    {
      "inputs": [
        {
          "internalType": "bytes32",
          "name": "",
          "type": "bytes32"
        }
      ],
      "name": "queuedTransactions",
      "outputs": [
        {
          "internalType": "bool",
          "name": "",
          "type": "bool"
        }
      ],
      "stateMutability": "view",
      "type": "function"
    },
    {
      "inputs": [
        {
          "internalType": "bytes32",
          "name": "role",
          "type": "bytes32"
        },
        {
          "internalType": "address",
          "name": "account",
          "type": "address"
        }
      ],
      "name": "renounceRole",
      "outputs": [],
      "stateMutability": "nonpayable",
      "type": "function"
    },
    {
      "inputs": [
        {
          "internalType": "bytes32",
          "name": "role",
          "type": "bytes32"
        },
        {
          "internalType": "address",
          "name": "account",
          "type": "address"
        }
      ],
      "name": "revokeContractRole",
      "outputs": [],
      "stateMutability": "nonpayable",
      "type": "function"
    },
    {
      "inputs": [
        {
          "internalType": "bytes32",
          "name": "role",
          "type": "bytes32"
        },
        {
          "internalType": "address",
          "name": "account",
          "type": "address"
        }
      ],
      "name": "revokeRole",
      "outputs": [],
      "stateMutability": "nonpayable",
      "type": "function"
    },
    {
      "inputs": [
        {
          "internalType": "address",
          "name": "target",
          "type": "address"
        },
        {
          "internalType": "enum JustTimelockUpgradeable.ThreatLevel",
          "name": "level",
          "type": "uint8"
        }
      ],
      "name": "setAddressThreatLevel",
      "outputs": [],
      "stateMutability": "nonpayable",
      "type": "function"
    },
    {
      "inputs": [
        {
          "internalType": "address[]",
          "name": "targets",
          "type": "address[]"
        },
        {
          "internalType": "enum JustTimelockUpgradeable.ThreatLevel[]",
          "name": "levels",
          "type": "uint8[]"
        }
      ],
      "name": "setBatchAddressThreatLevels",
      "outputs": [],
      "stateMutability": "nonpayable",
      "type": "function"
    },
    {
      "inputs": [
        {
          "internalType": "bytes4[]",
          "name": "selectors",
          "type": "bytes4[]"
        },
        {
          "internalType": "enum JustTimelockUpgradeable.ThreatLevel[]",
          "name": "levels",
          "type": "uint8[]"
        }
      ],
      "name": "setBatchFunctionThreatLevels",
      "outputs": [],
      "stateMutability": "nonpayable",
      "type": "function"
    },
    {
      "inputs": [
        {
          "internalType": "bytes4",
          "name": "selector",
          "type": "bytes4"
        },
        {
          "internalType": "enum JustTimelockUpgradeable.ThreatLevel",
          "name": "level",
          "type": "uint8"
        }
      ],
      "name": "setFunctionThreatLevel",
      "outputs": [],
      "stateMutability": "nonpayable",
      "type": "function"
    },
    {
      "inputs": [
        {
          "internalType": "address",
          "name": "tokenAddress",
          "type": "address"
        }
      ],
      "name": "setJustToken",
      "outputs": [],
      "stateMutability": "nonpayable",
      "type": "function"
    },
    {
      "inputs": [
        {
          "internalType": "bool",
          "name": "isPaused",
          "type": "bool"
        }
      ],
      "name": "setPaused",
      "outputs": [],
      "stateMutability": "nonpayable",
      "type": "function"
    },
    {
      "inputs": [
        {
          "internalType": "bytes4",
          "name": "interfaceId",
          "type": "bytes4"
        }
      ],
      "name": "supportsInterface",
      "outputs": [
        {
          "internalType": "bool",
          "name": "",
          "type": "bool"
        }
      ],
      "stateMutability": "view",
      "type": "function"
    },
    {
      "inputs": [
        {
          "internalType": "uint256",
          "name": "newMinDelay",
          "type": "uint256"
        },
        {
          "internalType": "uint256",
          "name": "newMaxDelay",
          "type": "uint256"
        },
        {
          "internalType": "uint256",
          "name": "newGracePeriod",
          "type": "uint256"
        }
      ],
      "name": "updateDelays",
      "outputs": [],
      "stateMutability": "nonpayable",
      "type": "function"
    },
    {
      "inputs": [
        {
          "internalType": "uint256",
          "name": "newThreshold",
          "type": "uint256"
        }
      ],
      "name": "updateExecutorTokenThreshold",
      "outputs": [],
      "stateMutability": "nonpayable",
      "type": "function"
    },
    {
      "inputs": [
        {
          "internalType": "uint256",
          "name": "newLowDelay",
          "type": "uint256"
        },
        {
          "internalType": "uint256",
          "name": "newMediumDelay",
          "type": "uint256"
        },
        {
          "internalType": "uint256",
          "name": "newHighDelay",
          "type": "uint256"
        },
        {
          "internalType": "uint256",
          "name": "newCriticalDelay",
          "type": "uint256"
        }
      ],
      "name": "updateThreatLevelDelays",
      "outputs": [],
      "stateMutability": "nonpayable",
      "type": "function"
    },
    {
      "inputs": [
        {
          "internalType": "address",
          "name": "newImplementation",
          "type": "address"
        }
      ],
      "name": "upgradeTo",
      "outputs": [],
      "stateMutability": "nonpayable",
      "type": "function"
    },
    {
      "inputs": [
        {
          "internalType": "address",
          "name": "newImplementation",
          "type": "address"
        },
        {
          "internalType": "bytes",
          "name": "data",
          "type": "bytes"
        }
      ],
      "name": "upgradeToAndCall",
      "outputs": [],
      "stateMutability": "payable",
      "type": "function"
    },
    {
      "inputs": [
        {
          "internalType": "bytes32",
          "name": "txHash",
          "type": "bytes32"
        }
      ],
      "name": "wasTransactionFailed",
      "outputs": [
        {
          "internalType": "bool",
          "name": "",
          "type": "bool"
        }
      ],
      "stateMutability": "view",
      "type": "function"
    }
  ],
  "bytecode": "0x60a0604052346200003657620000146200003b565b604051614f3262000093823960805181818161172c01526118780152614f3290f35b600080fd5b6200004562000082565b565b6200005d9062000060906001600160a01b031682565b90565b6001600160a01b031690565b6200005d9062000047565b6200005d906200006c565b6200008d3062000077565b60805256fe6080604052600436101561001257600080fd5b60003560e01c8063018fd60a146103c257806301ffc9a7146103bd57806307bd0265146103b857806308eb0d39146103b35780630d3cf6fc146103ae5780631390a3f3146103a957806316c38b3c146103a457806319330bfd1461039f57806319c51aad1461039a578063248a9ca31461039557806324ea54f4146103905780632bfec3d31461038b5780632f2ff15d1461038657806336568abe146103815780633659cfe61461037c5780634aae13ca146103775780634f1ef28614610372578063504534c11461036d57806352d1902d14610368578063531355a9146103635780635c975abb1461035e5780635e5f1362146103595780635e6a2295146103545780636595530c1461034f5780636e34fdd81461034a57806370ba33391461034557806370d26de51461034057806373355bff1461033b57806373680ade1461033657806375b238fc146103315780637bd3f6861461032c57806385ab3ecd146103275780638e361cdf146103225780638f61f4f51461031d5780639010d07c1461031857806391d1485414610313578063932b14871461030e578063935dfcc6146103095780639646d79914610304578063a06db7dc146102ff578063a217fddf146102fa578063b08e51c0146102f5578063bbfe22c0146102f0578063bd338f36146102eb578063c4c4c7b3146102e6578063c63c4e9b146102e1578063c69ed5f2146102dc578063c7697c53146102d7578063ca15c873146102d2578063d0bf1cbb146102cd578063d5391393146102c8578063d547741f146102c3578063dbd62506146102be578063e3d0c2b6146102b9578063ebaa5269146102b4578063ed49d2f8146102af578063f21c00ba146102aa578063f2b06537146102a55763f36c8f5c036103c75761124c565b611231565b6111ff565b6111e4565b6111bb565b6111a0565b611179565b611122565b6110e9565b6110cd565b611070565b611055565b61103a565b61101f565b610ff6565b610ef8565b610eb6565b610e7d565b610e62565b610e28565b610e03565b610dea565b610db4565b610d98565b610d61565b610d17565b610cf8565b610c96565b610c6e565b610c3a565b610c1f565b610c04565b610bde565b610bc6565b610bab565b610b7f565b610b63565b610b4a565b610b0c565b610af1565b610aab565b610a83565b6109ae565b610883565b610818565b6107ff565b6107e6565b6107a8565b61075e565b610743565b61072a565b6106de565b61068a565b610645565b61058e565b610566565b61049f565b610466565b610410565b600080fd5b6001600160a01b031690565b90565b6001600160a01b0381165b036103c757565b905035906103fa826103db565b565b906020828203126103c7576103d8916103ed565b346103c7576104286104233660046103fc565b612d03565b604051005b0390f35b6001600160e01b031981166103e6565b905035906103fa82610431565b906020828203126103c7576103d891610441565b9052565b346103c75761042d61048161047c36600461044e565b611273565b6040515b91829182901515815260200190565b60009103126103c757565b346103c7576104af366004610494565b61042d600080516020614ec68339815191525b6040515b9182918290815260200190565b806103e6565b905035906103fa826104d3565b906020828203126103c7576103d8916104d9565b60005b83811061050d5750506000910152565b81810151838201526020016104fd565b61053e61054760209361055193610532815190565b80835293849260200190565b958691016104fa565b601f01601f191690565b0190565b60208082526103d89291019061051d565b346103c75761042d61058161057c3660046104e6565b614485565b6040515b91829182610555565b346103c75761059e366004610494565b61042d7f5f58e3a2316349923ce3780f8d587db2d72378aed66a8261c916544fa6846ca56104c2565b909182601f830112156103c75781359167ffffffffffffffff83116103c75760200192602083028401116103c757565b90916040828403126103c757813567ffffffffffffffff81116103c757836106209184016105c7565b929093602082013567ffffffffffffffff81116103c75761064192016105c7565b9091565b346103c7576104286106583660046105f7565b929190916149e3565b8015156103e6565b905035906103fa82610661565b906020828203126103c7576103d891610669565b346103c75761042861069d366004610676565b614d8d565b6080818303126103c7576106b682826104d9565b926103d86106c784602085016104d9565b936106d581604086016104d9565b936060016104d9565b346103c7576104286106f13660046106a2565b92919091614740565b90916060828403126103c7576103d861071384846104d9565b9361072181602086016104d9565b936040016104d9565b346103c75761042861073d3660046106fa565b91614640565b346103c75761042d6104c26107593660046104e6565b611359565b346103c75761076e366004610494565b61042d600080516020614f068339815191526104c2565b6103d8916008021c81565b906103d89154610785565b6103d86000610195610790565b346103c7576107b8366004610494565b61042d6104c261079b565b91906040838203126103c7576103d8906107dd81856104d9565b936020016103ed565b346103c7576104286107f93660046107c3565b90611390565b346103c7576104286108123660046107c3565b9061157e565b346103c75761042861082b3660046103fc565b611939565b9061087361087b916103fa9698979561086660809661085f60a088019460008901906001600160a01b03169052565b6020870152565b848203604086015261051d565b966060830152565b019015159052565b346103c75761042d61089e6108993660046104e6565b6145e3565b916108ab95939560405190565b95869586610830565b634e487b7160e01b600052604160045260246000fd5b90601f01601f1916810190811067ffffffffffffffff8211176108ec57604052565b6108b4565b906103fa6108fe60405190565b92836108ca565b67ffffffffffffffff81116108ec57602090601f01601f19160190565b90826000939282370152565b9092919261094361093e82610905565b6108f1565b938185526020850190828401116103c7576103fa92610922565b9080601f830112156103c7578160206103d89335910161092e565b9190916040818403126103c75761098f83826103ed565b92602082013567ffffffffffffffff81116103c7576103d8920161095d565b6104286109bc366004610978565b90611c94565b6103d8906103cc906001600160a01b031682565b6103d8906109c2565b6103d8906109d6565b906109f2906109df565b600052602052604060002090565b6103d8916008021c5b60ff1690565b906103d89154610a00565b6103d890610a2d61019a916000926109e8565b610a0f565b634e487b7160e01b600052602160045260246000fd5b60041115610a5257565b610a32565b906103fa82610a48565b6103d890610a57565b61046290610a61565b6020810192916103fa9190610a6a565b346103c75761042d610a9e610a993660046103fc565b610a1a565b6040515b91829182610a73565b346103c757610abb366004610494565b61042d6104c2611797565b600411156103c757565b905035906103fa82610ac6565b906020828203126103c7576103d891610ad0565b346103c75761042d6104c2610b07366004610add565b613679565b346103c757610b1c366004610494565b61042d610481611c9e565b91906040838203126103c7576103d890610b4181856103ed565b93602001610ad0565b346103c757610428610b5d366004610b27565b90614a48565b346103c75761042d610a9e610b79366004610978565b906135eb565b346103c75761042d6104c2610b953660046106a2565b92919091614cfb565b6103d86000610197610790565b346103c757610bbb366004610494565b61042d6104c2610b9e565b346103c757610428610bd93660046104e6565b6145da565b346103c757610428610bf13660046107c3565b906135e1565b6103d86000610198610790565b346103c757610c14366004610494565b61042d6104c2610bf7565b346103c75761042d610581610c353660046104e6565b613110565b346103c757610c4a366004610494565b61042d600080516020614ee68339815191526104c2565b6103d86000610196610790565b346103c757610c7e366004610494565b61042d6104c2610c61565b6103d86000610194610790565b346103c757610ca6366004610494565b61042d6104c2610c89565b6080818303126103c757610cc582826103ed565b92610cd383602084016104d9565b9260408301359067ffffffffffffffff82116103c7576106d5816103d893860161095d565b346103c75761042d6104c2610d0e366004610cb1565b92919091613a24565b346103c757610d27366004610494565b61042d600080516020614ea68339815191526104c2565b91906040838203126103c7576103d890610d5881856104d9565b936020016104d9565b346103c75761042d610d7d610d77366004610d3e565b9061129c565b6040515b918291826001600160a01b03909116815260200190565b346103c75761042d610481610dae3660046107c3565b90611320565b346103c757610428610dc73660046105f7565b92919091614b26565b91906040838203126103c7576103d890610b418185610441565b346103c757610428610dfd366004610dd0565b906148db565b346103c757610428610e163660046104e6565b6131e4565b6103d86000610193610790565b346103c757610e38366004610494565b61042d6104c2610e1b565b6103d86103d86103d89290565b6103d86000610e43565b6103d8610e50565b346103c757610e72366004610494565b61042d6104c2610e5a565b346103c757610e8d366004610494565b61042d7ffd643c72710c63c0180259aba6b2d05451e3591a24e58b62239378085726f7836104c2565b346103c757610428610ec93660046104e6565b61411f565b6001600160e01b03191690565b906109f290610ece565b6103d890610a2d61019991600092610edb565b346103c75761042d610a9e610f0e36600461044e565b610ee5565b67ffffffffffffffff81116108ec5760208091020190565b90929192610f3b61093e82610f13565b93818552602080860192028301928184116103c757915b838310610f5f5750505050565b60208091610f6d84866103ed565b815201920191610f52565b9080601f830112156103c7578160206103d893359101610f2b565b6080818303126103c757610fa782826104d9565b92602082013567ffffffffffffffff81116103c75783610fc8918401610f78565b9260408301359067ffffffffffffffff82116103c757610fed816103d8938601610f78565b936060016103ed565b346103c757610428611009366004610f93565b92919091612b14565b6103d86000610191610790565b346103c75761102f366004610494565b61042d6104c2611012565b346103c75761042d6105816110503660046104e6565b614114565b346103c75761042d61048161106b3660046104e6565b614490565b346103c75761042d6104c26110863660046104e6565b6112bc565b916060838303126103c7576110a082846103ed565b926110ae83602083016104d9565b92604082013567ffffffffffffffff81116103c7576103d8920161095d565b346103c75761042d6104c26110e336600461108b565b916138d1565b346103c7576110f9366004610494565b61042d7f9f2df0fed2c77648de5860a4cc508cd0818c85b8b8a1ab4ceeef8d981c8956a66104c2565b346103c7576104286111353660046107c3565b906114f6565b6103d8916008021c6103cc565b906103d8915461113b565b6103d8600061019b611148565b610462906109df565b6020810192916103fa9190611160565b346103c757611189366004610494565b61042d611194611153565b60405191829182611169565b346103c75761042d6104816111b63660046103fc565b6136ef565b346103c75761042d6104c26111d13660046106fa565b91614c0a565b6103d86000610192610790565b346103c7576111f4366004610494565b61042d6104c26111d7565b346103c7576104286112123660046107c3565b9061350b565b906109f2565b6103d890610a2d61019d91600092611218565b346103c75761042d6104816112473660046104e6565b61121e565b346103c75761125c366004610494565b61042d600080516020614e868339815191526104c2565b635a05180f60e01b6001600160e01b0319821614908115611292575090565b6103d891506112d3565b906112b76103d86103d8936112af600090565b506097611218565b612340565b6112ce6103d86103d8926112af600090565b612309565b637965db0b60e01b6001600160e01b03198216149081156112f2575090565b6103d891506001600160e01b0319166301ffc9a760e01b1490565b6103d890610a09565b6103d8905461130d565b6103d891600061133d61134393611335600090565b506065611218565b016109e8565b611316565b6103d89081565b6103d89054611348565b600161136a6103d892611335600090565b0161134f565b906103fa9161138661138182611359565b6113be565b906103fa9161139a565b906103fa91611370565b906113b66103d86113bb936113af84826115ce565b6097611218565b612076565b50565b6103fa90339061144e565b6103d890610e43565b6105516113ea926020926113e4815190565b94859290565b938491016104fa565b6114316103d8939261142b61142b937f416363657373436f6e74726f6c3a206163636f756e7420000000000000000000815260170190565b906113d2565b7001034b99036b4b9b9b4b733903937b6329607d1b815260110190565b9061146061145c8284611320565b1590565b611468575050565b6114d7916103d861148461147e6114be94612049565b926113c9565b61149960209161149383610e43565b90611eff565b926114b26114a660405190565b948593840192836113f3565b908103825203826108ca565b6040515b62461bcd60e51b815291829160048301610555565b0390fd5b906103fa916114ec61138182611359565b906103fa91611500565b906103fa916114db565b906115156103d86113bb936113af8482611645565b6121b6565b1561152157565b60405162461bcd60e51b815260206004820152602f60248201527f416363657373436f6e74726f6c3a2063616e206f6e6c792072656e6f756e636560448201526e103937b632b9903337b91039b2b63360891b6064820152608490fd5b6103fa919061159f61158f336103cc565b6001600160a01b0384161461151a565b611500565b9060ff905b9181191691161790565b906115c36103d86115ca92151590565b82546115a4565b9055565b906115dc61145c8284611320565b6115e4575050565b6115ff60016115fa83600061133d876065611218565b6115b3565b339061163561162f61162f7f2f8788117e7eff1d82e926ec794901d17c78024a50270940304540a733656f0d9590565b926109df565b9261163f60405190565b600090a4565b906116508183611320565b611658575050565b61166d60006115fa838261133d876065611218565b339061163561162f61162f7ff6391f5c32d9c69d2a47ea670b442974b53935d1edc7fd64eb21e047a839171b9590565b156116a457565b60405162461bcd60e51b815260206004820152603860248201527f555550535570677261646561626c653a206d757374206e6f742062652063616c60448201527f6c6564207468726f7567682064656c656761746563616c6c00000000000000006064820152608490fd5b6103d89061176061171f306109df565b61175a6001600160a01b037f0000000000000000000000000000000000000000000000000000000000000000165b916001600160a01b031690565b1461169d565b61178e565b6103d87f360894a13ba1a3210667c828492db98dca3e2076cc3735a920a3ca505d382bbc610e43565b506103d8611765565b6103d8600061170f565b156117a857565b60405162461bcd60e51b815260206004820152602c60248201527f46756e6374696f6e206d7573742062652063616c6c6564207468726f7567682060448201526b19195b1959d85d1958d85b1b60a21b6064820152608490fd5b1561180957565b60405162461bcd60e51b815260206004820152602c60248201527f46756e6374696f6e206d7573742062652063616c6c6564207468726f7567682060448201526b6163746976652070726f787960a01b6064820152608490fd5b6103fa906118d3611873306109df565b6118b27f0000000000000000000000000000000000000000000000000000000000000000916118ab61174d846001600160a01b031690565b14156117a1565b6118cd61174d6118c0611955565b926001600160a01b031690565b14611802565b611912565b906118e561093e83610905565b918252565b369037565b906103fa6119056118ff846118d8565b93610905565b601f1901602084016118ea565b6103fa9061191f81612c4f565b60009061193361192e83610e43565b6118ef565b90611a1f565b6103fa90611863565b6103d8906103cc565b6103d89054611942565b6103d860006119656103d8611765565b0161194b565b6103d87f4910fdfa16fed3260ed0e7147f7cc6da11a60208b5b9406d12a635614ffd9143610e43565b905051906103fa826104d3565b906020828203126103c7576103d891611994565b6040513d6000823e3d90fd5b156119c857565b60405162461bcd60e51b815260206004820152602960248201527f45524331393637557067726164653a20756e737570706f727465642070726f786044820152681a58589b195555525160ba1b6064820152608490fd5b9190611a376000611a316103d861196b565b01611316565b15611a475750506103fa90611bc5565b826020611a5e611a59611a76966109df565b6109df565b6352d1902d90611a6d60405190565b96879260e01b90565b825260049082905afa60009481611b0d575b50611ae95760405162461bcd60e51b815260206004820152602e60248201527f45524331393637557067726164653a206e657720696d706c656d656e7461746960448201526d6f6e206973206e6f74205555505360901b6064820152608490fd5b611b086103fa94611b02611afe6103d8611765565b9190565b146119c1565b611bed565b611b2f91955060203d8111611b36575b611b2781836108ca565b8101906119a1565b9338611a88565b503d611b1d565b15611b4457565b60405162461bcd60e51b815260206004820152602d60248201527f455243313936373a206e657720696d706c656d656e746174696f6e206973206e60448201526c1bdd08184818dbdb9d1c9858dd609a1b6064820152608490fd5b906001600160a01b03906115a9565b90611bbe6103d86115ca926109df565b8254611b9f565b6103fa90611bda611bd582611ca8565b611b3d565b6000611be76103d8611765565b01611bae565b91611bf783611c29565b8151611c06611afe6000610e43565b11908115611c21575b50611c18575050565b6113bb91611d05565b905038611c0f565b611c3281611bc5565b611c5c7fbc7cd75a20ee27fd9adebab32041f755214dbc6bffa90cc0225b39da2e5c2d3b916109df565b90611c6660405190565b80805b0390a2565b906103fa91611c7f611873306109df565b6103fa91611c8c82612c4f565b600191611a1f565b906103fa91611c6e565b6103d860c9611316565b3b611cb6611afe6000610e43565b1190565b611cc460276118d8565b7f416464726573733a206c6f772d6c6576656c2064656c65676174652063616c6c6020820152660819985a5b195960ca1b604082015290565b6103d8611cba565b6103d891611d11611cfd565b91611d36565b3d15611d3157611d263d6118d8565b903d6000602084013e565b606090565b6000806103d89493611d46606090565b50805190602001845af4611d58611d17565b91611daa565b15611d6557565b60405162461bcd60e51b815260206004820152601d60248201527f416464726573733a2063616c6c20746f206e6f6e2d636f6e74726163740000006044820152606490fd5b91929015611ddc57508151611dc2611afe6000610e43565b14611dcb575090565b611dd76103d891611ca8565b611d5e565b8290611de6825190565b611df3611afe6000610e43565b1115611e025750805190602001fd5b6114d7906114c260405190565b634e487b7160e01b600052601160045260246000fd5b81810292918115918404141715611e3857565b611e0f565b91908201809211611e3857565b634e487b7160e01b600052603260045260246000fd5b90611e69825190565b811015611e77570160200190565b611e4a565b8015611e38576000190190565b610a096103d86103d89290565b6103d890611eaa611afe6103d89460ff1690565b901c90565b15611eb657565b60405162461bcd60e51b8152806114d7600482016020808252818101527f537472696e67733a20686578206c656e67746820696e73756666696369656e74604082015260600190565b9190600292611f2b61192e611f1c84611f1788610e43565b611e25565b611f2587610e43565b90611e3d565b916000906030611f43611f3d84610e43565b86611e60565b53611f7b611f72600f60fb1b92611f176001998a95871a611f6c611f6688610e43565b8b611e60565b53610e43565b611f2583610e43565b905b611f9f575b506103d893945090611f99611afe6103d893610e43565b14611eaf565b91611fa986610e43565b831115612017576f181899199a1a9b1b9c1cb0b131b232b360811b611fce600f610e43565b8216906010821015611e77578792611fee61200b92612011941a60f81b90565b851a611ffa8789611e60565b536120056004611e89565b90611e96565b93611e7c565b90611f7d565b91611f82565b6103d89081906001600160a01b031681565b6103d86014611e89565b6103d86103d86103d89260ff1690565b6120666120616103d89261205b606090565b506109d6565b61201d565b61149361207161202f565b612039565b9061209e611afe61209961206160006103d896612091600090565b5001946109d6565b610e43565b612140565b8054821015611e77576120bd600191600052602060002090565b91020190600090565b9160001960089290920291821b911b6115a9565b91906120e96103d86115ca9390565b9083546120c6565b90815491680100000000000000008310156108ec57826121199160016103fa950181556120a3565b906120da565b90600019906115a9565b906121396103d86115ca92610e43565b825461211f565b61214d61145c8383612186565b1561217f5761217a9161217590600161216e8461216a84826120f1565b5490565b9301611218565b612129565b600190565b5050600090565b6121a491600161219f92612198600090565b5001611218565b61134f565b6121b1611afe6000610e43565b141590565b906121d1611afe61209961206160006103d896612091600090565b61224a565b91908203918211611e3857565b634e487b7160e01b600052603160045260246000fd5b6103fa916000916120da565b8054801561222857600019019061222561221f83836120a3565b906121f9565b55565b6121e3565b91906120e96103d86115ca93610e43565b6103fa9160009161222d565b9061225b61219f8260018501611218565b60009261226784610e43565b82146122ba576103d8926122c094926122cb926122c5600197889361229461228e86610e43565b826121d6565b888501916122b26122a3845490565b6122ac89610e43565b906121d6565b8281036122d0575b50505090565b612205565b01611218565b61223e565b6121196122f9612301946122f06122ea61217595896120a3565b90610790565b928391886120a3565b888801611218565b3880806122ba565b61231f60006103d89261231a600090565b500190565b60006103d89161232d600090565b50015490565b6103cc6103d86103d89290565b6123656123606103d89361235b600061236a9561231a600090565b61236f565b6113c9565b612333565b6109d6565b6103d89160006122ea92612381600090565b50016120a3565b6103d89060081c610a09565b6103d89054612388565b156123a557565b60405162461bcd60e51b815260206004820152602e60248201527f496e697469616c697a61626c653a20636f6e747261637420697320616c72656160448201526d191e481a5b9a5d1a585b1a5e995960921b6064820152608490fd5b610a096103d86103d89260ff1690565b906115c36103d86115ca92612401565b9061ff009060081b6115a9565b9061243e6103d86115ca92151590565b8254612421565b61046290611e89565b6020810192916103fa9190612445565b926124a9919261247161145c6000612394565b93848061254c575b8015612507575b6124899061239e565b600195856124a061249989611e89565b6000612411565b6124f7576125ac565b6124b05750565b6124bb60008061242e565b6124f27f7f26b83ff96e1f2b6a682f133852f6798a09c465da95921460cefb3847402498916124e960405190565b9182918261244e565b0390a1565b61250287600061242e565b6125ac565b5061251c61145c612517306109df565b611ca8565b801561248057506124896125306000611316565b61254461253d6001611e89565b9160ff1690565b149050612480565b506125576000611316565b61256461253d6001611e89565b10612479565b6103d890612333565b906115c36103d86115ca92610a61565b6000198114611e385760010190565b9061259b825190565b811015611e77576020809102010190565b929160006125b981610e43565b8514612b02576125c88161256a565b906001600160a01b0382166001600160a01b03861614612ad4576128e2936125ee612b92565b6125f6612bb2565b6125fe612bf6565b612606612b92565b61261287610191612129565b61262961262162278d00610e43565b610192612129565b61269161263862127500610e43565b61264481610193612129565b61265b61265362015180610e43565b610195612129565b61267261266a6203f480610e43565b610196612129565b61268961268162093a80610e43565b610197612129565b610198612129565b6126ac6126a4662386f26fc10000610e43565b610194612129565b610199906126eb836126e66126e07fa9059cbb2ab09eb219583f4a59a5d0623ade346d962bcd4e46b11da047c9049b610ece565b85610edb565b612573565b61271b836126e66126e07f095ea7b334ae44009aa867bfb386f5c3b4b443ac6f0ee573fa91c4608fbadfba610ece565b6001958692612756846126e66127507f19c51aade6e2a49f7ec24c208998650b05a060f31be7c7ce3a927580c1a6712f610ece565b84610edb565b612786846126e66127507f19330bfd7e0c75f9aec91393843f2cf5fcca8250082a2f2e073f9a86f643ac2d610ece565b6127b6846126e66127507f1b9ad0e4aacf9b4ce6f4860adceaada62d78fb186f25d345ab5f644567c2b633610ece565b6126e66002916127ec836126e66127507f70d26de5191fc8b6b2ea5767a966caf49891714569bf8e35d1f82a12cb959a01610ece565b61281c836126e66127507ff21c00bad3bd5a55f3bf8c9e11868f937876f384821efa77b9b7a73a294691d5610ece565b6128836003612857816126e66128517f3659cfe672549963da205df855ebfb8672cda4801e0255183bd6a6f536855df7610ece565b86610edb565b6126e66127507f4f1ef2866b98625bdfefae89411f7a82754ac4089eff8e78c8832329a538337f610ece565b6128b3836126e66127507fdd329b5cc2c0276e9db88ddb634b14ab6775bfc2e977df56b01bf43f77f1d181610ece565b6128dc7fa89ae7d0e127de83ee9585429b3803816abac5f8bdc281e473659f44248b00f2610ece565b90610edb565b6128ee87611386610e50565b61290687600080516020614ee6833981519152611386565b612930877f5f58e3a2316349923ce3780f8d587db2d72378aed66a8261c916544fa6846ca5611386565b8161293a84610e43565b905b612a6b575b50509061294d90610e43565b905b6129ea575b50505050612983816113867ffd643c72710c63c0180259aba6b2d05451e3591a24e58b62239378085726f78390565b61299b81600080516020614f06833981519152611386565b6129b381600080516020614e86833981519152611386565b611c696129e07f290a9d1bd9a992a26d178f5f8d2514edd099295c4ce6340dc3b7f441530cf3e8926109df565b926104c660405190565b6129f56103d8845190565b811015612a665780612a1a612a0d612a369386612592565b516001600160a01b031690565b612a2c6001600160a01b03851661174d565b03612a3c57612583565b8361294f565b612a61600080516020614ec6833981519152612a5b612a0d8488612592565b90611386565b612583565b612954565b612a766103d8835190565b811015612acf5780612a8e612a0d612aaa9385612592565b612aa06001600160a01b03881661174d565b03612ab057612583565b8261293c565b612a61600080516020614ea6833981519152612a5b612a0d8487612592565b612941565b60405163eac0d38960e01b815260206004820152600560248201526430b236b4b760d91b6044820152606490fd5b604051631a615ced60e11b8152600490fd5b906103fa93929161245e565b15612b2757565b60405162461bcd60e51b815260206004820152602b60248201527f496e697469616c697a61626c653a20636f6e7472616374206973206e6f74206960448201526a6e697469616c697a696e6760a81b6064820152608490fd5b6103fa612b8d6000612394565b612b20565b6103fa612b80565b612ba7612b8d6000612394565b6103fa6103fa612bd6565b6103fa612b9a565b612bc7612b8d6000612394565b6103fa6103fa600060c96115b3565b6103fa612bba565b612beb612b8d6000612394565b6103fa6103fa612c2f565b6103fa612bde565b612c0b612b8d6000612394565b6103fa612c1d565b6103d86001610e43565b6103fa612c28612c13565b60fb612129565b6103fa612bfe565b506103fa600080516020614ee68339815191526113be565b6103fa90612c37565b6103fa90612c73600080516020614ee68339815191526113be565b612c806103cc600061256a565b6001600160a01b03821614612cce57612c98906109df565b612ca48161019b611bae565b7f22357fb36d236001335a40c33e873b98724147e176521651bc189500ab78b487611c6660405190565b60405163eac0d38960e01b815260206004820152600c60248201526b746f6b656e4164647265737360a01b6044820152606490fd5b6103fa90612c58565b906103d891612d1961315a565b90612d2b91612d266131c3565b612e94565b906103fa612c1d565b612d616103fa94612d5a606094989795612d53608086019a6000870152565b6020850152565b6040830152565b0152565b6001600160a01b0390911681526040810192916103fa9160200152565b634e487b7160e01b600052602260045260246000fd5b9060016002830492168015612db8575b6020831014612db357565b612d82565b91607f1691612da8565b80546000939291612ddf612dd583612d98565b8085529360200190565b9160018116908115612e315750600114612df857505050565b612e0b9192939450600052602060002090565b916000925b818410612e1d5750500190565b805484840152602090930192600101612e10565b92949550505060ff1916825215156020020190565b906103d891612dc2565b906103fa612e6a92612e6160405190565b93848092612e46565b03836108ca565b6103d890612e50565b9081526103d89160408201915b602081840391015261051d565b50612ea761145c6113438361019d611218565b6130e957612eba6103d88261019c611218565b6004810191612ec883611316565b6130c257612ed583612394565b61309b574260038301612ef86103d8612eed8361134f565b611f2561019361134f565b821115613069575050612f16600080516020614ee683398151915290565b612f2461145c338093611320565b80613048575b61301b5750612f388261194b565b90600080612f546002612f4d6001880161134f565b9601612e71565b93612f61600180986115b3565b7f913928faeddbeb42b03e074bdf7db96abfcaa8f11f452d384ef8fe73a8940d639484968796612f90846109df565b988991612f9c60405190565b80612fa8878783612e7a565b0390a3602082019151925af193612fc5612fc0611d17565b951590565b612fd1575b5050505090565b6115fa612fe09261019e611218565b8261300f7f259d619dd0cb65e38935bc4d065aed38b08f204b46ddfda5795ad4aabad9ad7e9161058560405190565b0390a338808080612fca565b6130256000610e43565b906114d761303260405190565b635270d4bf60e11b815292839260048401612d65565b5061306461145c82600080516020614e86833981519152611320565b612f2a565b6114d7613076849261134f565b9261308261019361134f565b6040516339e1444f60e11b815294859460048601612d34565b6114d7906130a860405190565b631eb1656f60e01b81529182916004830190815260200190565b6114d7906130cf60405190565b63574cf42560e11b81529182916004830190815260200190565b6114d7906130f660405190565b637080aaeb60e11b81529182916004830190815260200190565b6103d8906060612d0c565b1561312257565b60405162461bcd60e51b815260206004820152601060248201526f14185d5cd8589b194e881c185d5cd95960821b6044820152606490fd5b6103fa61316861145c611c9e565b61311b565b6103d86002610e43565b1561317e57565b60405162461bcd60e51b815260206004820152601f60248201527f5265656e7472616e637947756172643a207265656e7472616e742063616c6c006044820152606490fd5b6103fa6131d060fb61134f565b612c286131db61316d565b91821415613177565b3361320061145c82600080516020614ee6833981519152611320565b80613274575b80613256575b61301b575061321d90610194612129565b61322861019461134f565b6124f27f0517211ced6e2fe76697c1baed31e904f946f4a9ed9ba831b5c5fc722ce9eda5916104c660405190565b506132636103cc306109df565b6001600160a01b038216141561320c565b5061329061145c82600080516020614e86833981519152611320565b613206565b6103fa91906132b1600080516020614ee68339815191526113be565b9060006132c06103cc8261256a565b6001600160a01b038316146134db57600080516020614ee6833981519152808414613491575b50600080516020614e868339815191528084146133b3575b50506133186103d8600080516020614ea683398151915290565b8214801561339c575b613373575b61333081836114f6565b61336161335b7f155aaafb6329a2098580462df33ec4b7441b19729b9601c5fc17ae1cf99a8a529390565b916109df565b9161336b60405190565b80805b0390a3565b61337c826112bc565b613389611afe6001610e43565b116133265750336114d761303260405190565b50600080516020614ec68339815191528214613321565b6133bc816112bc565b906001916133cc611afe84610e43565b111561348357816133de600094610e43565b905b61342b575b5050507fb042dff0d2902dfbafc756c90710226f7608e411649827085ed69e60e56e04269061341661335b846109df565b9161342060405190565b600090a338806132fe565b6134376103d8836112bc565b81101561347e57613448818361129c565b6001600160a01b0386166001600160a01b03821603613471575061346b90612583565b826133e0565b93505050503880806133e5565b6133e5565b84336114d761303260405190565b61349a906112bc565b6134a7611afe6001610e43565b1180156134c8575b156134ba57386132e6565b82336114d761303260405190565b506001600160a01b0382163314156134af565b60405163eac0d38960e01b81526020600482015260076024820152661858d8dbdd5b9d60ca1b6044820152606490fd5b906103fa91613295565b6103fa9190613531600080516020614ee68339815191526113be565b61353e6103cc600061256a565b6001600160a01b038316146134db576135578282611390565b7f2ae6a113c0ed5b78a53413ffbb7679881f11145ccfba4fb92e863dfcd5a1d2f361358282936109df565b92839161358e60405190565b600090a36135a9600080516020614e86833981519152611afe565b146135b15750565b6001611c697f22d9b439781dfd20c33ba7fefff7ab8e9457457e39cb3f8e941e33ef30e98cd89161048560405190565b906103fa91613515565b906135fd61134360009361019a6109e8565b9160009261360a84610a57565b61361382610a57565b0361367257508151613628611afe6004610e43565b101561363357505090565b506020015161365290611343906001600160e01b031916610199610edb565b61365b82610a57565b61366482610a57565b0361366d575090565b905090565b9250505090565b6136836003610a57565b61368c82610a57565b0361369d57506103d861019861134f565b6136a76002610a57565b6136b082610a57565b036136c157506103d861019761134f565b6136d46136ce6001610a57565b91610a57565b036136e4576103d861019661134f565b6103d861019561134f565b6136fd611a5961019b61194b565b9060009161371061174d6103cc8561256a565b146137ab57602061375e91613729611a5961019b61194b565b6137476370a0823161373a60405190565b9586948593849360e01b90565b83526001600160a01b031660048301526024820190565b03915afa82918161378b575b50613773575090565b9050613786611afe6103d861019461134f565b101590565b6137a491925060203d8111611b3657611b2781836108ca565b903861376a565b5090565b906103d89392916137be61315a565b6137e4565b905051906103fa82610661565b906020828203126103c7576103d8916137c3565b5061380e93926137f3306109df565b602063e3d0c2b6339261380560405190565b98899260e01b90565b82526001600160a01b038416600483015260249082905afa9586156138cc5760009661389c575b50600080516020614ea6833981519152956138586138538389611320565b911590565b9081613893575b5061388557506103d893945061387581836135eb565b9261387f84613679565b92613c9f565b85906114d761303260405190565b1590503861385f565b6138be91965060203d81116138c5575b6138b681836108ca565b8101906137d0565b9438613835565b503d6138ac565b6119b5565b6103d892919060006137af565b906103d8949392916138ee61315a565b613906565b9081526040810192916103fa9160200152565b5090939290916139196103cc600061256a565b6001600160a01b038416146139f5576139366103d861019161134f565b82106139c65761394a6103d861019261134f565b821161399757600080516020614ea6833981519152943361396e61145c8289611320565b61398957506103d894955061398382856135eb565b93613c9f565b86906114d761303260405190565b506139a361019261134f565b906114d76139b060405190565b630e62012f60e31b8152928392600484016138f3565b506139d261019161134f565b906114d76139df60405190565b63d6ef4a3160e01b8152928392600484016138f3565b60405163eac0d38960e01b81526020600482015260066024820152651d185c99d95d60d21b6044820152606490fd5b6103d89392919060006138de565b9493916060916103fa94613a64613a7193613a5d60808b019460008c01906001600160a01b03169052565b60208a0152565b878203604089015261051d565b940152565b6103d860c06108f1565b818110613a8b575050565b80613a99600060019361223e565b01613a80565b9190601f8111613aae57505050565b613ac06103fa93600052602060002090565b906020601f840181900483019310613ae2575b6020601f909101040190613a80565b9091508190613ad3565b90613af5815190565b9067ffffffffffffffff82116108ec57613b1982613b138554612d98565b85613a9f565b602090601f8311600114613b54576115ca929160009183613b49575b5050600019600883021c1916906002021790565b015190503880613b35565b601f19831691613b6985600052602060002090565b9260005b818110613ba757509160029391856001969410613b8e575b50505002019055565b01516000196008601f8516021c19169055388080613b85565b91936020600181928787015181550195019201613b6d565b906103fa91613aec565b6103fa9190613c549060a090600490613bf381613bed87516001600160a01b031690565b90611bae565b613c0b60018201613c05602088015190565b90612129565b613c2360028201613c1d604088015190565b90613bbf565b613c3560038201613c05606088015190565b0192613c4d613c476080830151151590565b856115b3565b0151151590565b9061242e565b906103fa91613bc9565b613c98613c906060936103fa96989795613c8360808601926000870152565b848203602086015261051d565b966040830152565b0190610a6a565b90919493613cab600090565b50600095613cbb6103cc8861256a565b6001600160a01b038416146139f557613cd86103d861019161134f565b8510613e7f57613cec6103d861019261134f565b8511613e7357613d394295613d018188611e3d565b613d20613d0d60405190565b80926114b26020830191888c8c85613a32565b613d32613d2b825190565b9160200190565b2096611e3d565b9361019d97613d4b611343888b611218565b613e4c57613df8969798613db8613dc492613da7613d67613a76565b6001600160a01b038a168382015291613d81876020850152565b613d8c886040850152565b613d978b6060850152565b15156080830181905260a0830152565b613db38b61019c611218565b613c5a565b6115fa89600192611218565b613e0b7fc12713b76ba10e056a22d96f695ca35709830779c6f65311816f6729a09d627393613df08990565b9788966109df565b96613e0260405190565b94859485613c64565b0390a37f6da19cef8486af172c085de95b9b6a5acde209a53afb3f7171364f1cbdc3f07e90613e39336109df565b91613e4360405190565b80805b0390a390565b6114d787613e5960405190565b630a44e52960e21b81529182916004830190815260200190565b846139a361019261134f565b846139d261019161134f565b906103d891613e9861315a565b90612d2b91613ea56131c3565b613ee2565b9081526060810193926103fa929091604091612d61906020830152565b6001600160a01b0390911681526103d8916040820191612e87565b50613ef561145c6113438361019d611218565b6130e957613f086103d88261019c611218565b6004810190613f1682611316565b61410757613f2382612394565b6140fa574260038201613f386103d88261134f565b82106140ce57613f4d6103d8612eed8361134f565b821161409c57505033613f6261145c826136ef565b614069575b50613f718161194b565b90613f96613f8d6002613f866001850161134f565b9301612e71565b936001906115b3565b7f8b7b712167f6dc65bddd7d9a42eec3ed7de70db3ffda6e8fbb166195a0fa10cb60008086938493613fc7876109df565b958691613fd360405190565b80613fdf8c8783612e7a565b0390a360208701875191875af194613ffd613ff8611d17565b961590565b61400957505050505090565b856103d8614016926144a8565b6140447f259d619dd0cb65e38935bc4d065aed38b08f204b46ddfda5795ad4aabad9ad7e9161058560405190565b0390a36114d761405360405190565b636c544f3360e01b815292839260048401613ec7565b600080516020614ec68339815191529061408661145c8284611320565b6140905750613f67565b6114d761303260405190565b6114d76140a9869261134f565b926140b561019361134f565b6040516316e2c7e160e31b815294859460048601612d34565b6114d76140db869261134f565b926140e560405190565b629b36e560e71b815293849360048501613eaa565b6114d7836130a860405190565b6114d7836130cf60405190565b6103d8906060613e8b565b3361413b61145c82600080516020614ee6833981519152611320565b8061425d575b61301b575061415861145c6113438361019d611218565b6130e95761416b6103d88261019c611218565b6004810161417b61145c82611316565b6142185761418890612394565b61420b57600061419b91611965846144a8565b6141c661335b7f259d619dd0cb65e38935bc4d065aed38b08f204b46ddfda5795ad4aabad9ad7e9390565b916141d060405190565b60208082526019908201527f4d616e75616c6c79206d61726b6564206173206661696c6564000000000000006040820152806060810161336e565b6114d7826130a860405190565b60405162461bcd60e51b815260206004820152601c60248201527f5472616e73616374696f6e206e6f7420657865637574656420796574000000006044820152606490fd5b5061427961145c82600080516020614e86833981519152611320565b614141565b906103d89161428b61315a565b90612d2b916142986131c3565b506142ab61145c6113438361019d611218565b6130e9576142be6103d88261019c611218565b90600482016142cf61145c82611316565b61445e576142dc90612394565b61309b5761019e926142f461145c6113438487611218565b61445e57426003840161430c6103d8612eed8361134f565b8211614451575050614329600080516020614ee683398151915290565b614334338092611320565b801561442e575b155b61301b575061434b8361194b565b928261437661436860026143616001860161134f565b9401612e71565b966115fa6000968792611218565b7f3d87529e931e3954abe9b7b3b2655c7548dfab376c9bab3424fcd160754e717a92819485946143a5886109df565b9687916143b160405190565b806143bd8d8a83612e7a565b0390a38060208901895190868a5af1926143dd6143d8611d17565b941590565b156143f1575050906103d8614016926144a8565b9295509590507f8b7b712167f6dc65bddd7d9a42eec3ed7de70db3ffda6e8fbb166195a0fa10cb91613e4661442560405190565b92839283612e7a565b5061433d61444a82600080516020614e86833981519152611320565b905061433b565b6114d76140a9859261134f565b6114d78261446b60405190565b63d143665b60e01b81529182916004830190815260200190565b6103d890606061427e565b6113436103d89161449f600090565b5061019e611218565b6103fa906115fa60019161019e611218565b6103fa906144c661315a565b61019d6144d961145c6113438484611218565b6145cd5760046144ee6103d88461019c611218565b016144f881611316565b6141075761450581612394565b6140fa573361452561145c82600080516020614f06833981519152611320565b8061459a575b80614579575b61301b5750906145466145529260019061242e565b6115fa83600092611218565b7fdecc068a49633f4a89136211fcf06f0c95bb0756be29aaba7e7eec56da7945c590611c5c565b5061459561145c82600080516020614ea6833981519152611320565b614531565b506145c861145c827ffd643c72710c63c0180259aba6b2d05451e3591a24e58b62239378085726f783611320565b61452b565b6114d7826130f660405190565b6103fa906144ba565b6103d86145fb916145f2600090565b5061019c611218565b906146058261194b565b916146126001820161134f565b92600282019261463b614633600461462c6003870161134f565b9501611316565b929594612e71565b929190565b3361465c61145c82600080516020614ee6833981519152611320565b8061471f575b80614701575b61301b5750600061467881610e43565b8214612b02578183106146ef5761468e90610e43565b83146146ef576146a081610191612129565b6146ac82610192612129565b6146b883610193612129565b6124f27f322b0dd3c627850b87e09a9ef02a879ae06005ca4b830e3905acd60dd0ab2252936146e660405190565b93849384613eaa565b604051635435b28960e11b8152600490fd5b5061470e6103cc306109df565b6001600160a01b0382161415614668565b5061473b61145c82600080516020614e86833981519152611320565b614662565b909192614758600080516020614ee683398151915290565b61476661145c338093611320565b80614857575b80614839575b61301b57506147856103d861019161134f565b82106139c6578183106148275782841061482757838110614827576147ae6103d861019261134f565b811161481c576124f2906147c483610195612129565b6147d084610196612129565b6147dc85610197612129565b6147e881610198612129565b7f929801ff877f7a915c9ec76d4847c2d4a4368b08aaa23bde6330cd294a7749ee9461481360405190565b94859485612d34565b6139a361019261134f565b6040516346147f2b60e11b8152600490fd5b506148466103cc306109df565b6001600160a01b0382161415614772565b5061487361145c82600080516020614e86833981519152611320565b61476c565b6103fa9190614894600080516020614ee68339815191526113be565b6148a4826126e683610199610edb565b611c696148d17fb56383735083852e01d74eec8f679e3393a792f6c20639b89dde1717b30d88df92610ece565b92610aa260405190565b906103fa91614878565b6103fa93929190614903600080516020614ee68339815191526113be565b61492c565b9190811015611e77576020020190565b356103d881610ac6565b356103d881610431565b92939281938585036146ef576149426000610e43565b855b8110156149da576149d381614981614968614963614944958c8b614908565b614918565b6126e66101996128dc61497c868c8c614908565b614922565b61498f61497c828888614908565b61499d614963838c8b614908565b906149cb6148d17fb56383735083852e01d74eec8f679e3393a792f6c20639b89dde1717b30d88df92610ece565b0390a2612583565b9050614942565b50945050505050565b906103fa9392916148e5565b6103fa9190614a0b600080516020614ee68339815191526113be565b614a1b826126e68361019a6109e8565b611c696148d17f9dbde1f7b92ae666293ae43dfba2b144a807f209b093d4db911efa90895e14d3926109df565b906103fa916149ef565b6103fa93929190614a70600080516020614ee68339815191526113be565b614a7f565b356103d8816103db565b92939281938585036146ef57614a956000610e43565b855b8110156149da57614b1f81614ad5614ab6614963614a97958c8b614908565b6126e661019a614acf614aca868c8c614908565b614a75565b906109e8565b614ae3614aca828888614908565b614af1614963838c8b614908565b906149cb6148d17f9dbde1f7b92ae666293ae43dfba2b144a807f209b093d4db911efa90895e14d3926109df565b9050614a95565b906103fa939291614a52565b906103d8939291614b4161315a565b614b5f565b610ece614b596103d89263ffffffff1690565b60e01b90565b506000929091614b6e84610e43565b8314612b02578281106146ef57614b8484610e43565b82146146ef57600080516020614ea683398151915233614ba761145c8284611320565b614090575050600492614be36103d89593614bf293614bc96319c51aad614b46565b93614bd360405190565b9788956020870190815201613eaa565b602082018103825203836108ca565b614c04614bfe306109df565b91610e43565b906138d1565b6103d89291906000614b32565b906103d894939291614c2761315a565b50929190614c396103d861019161134f565b8410614cef57838110614827578082106148275781831061482757614c626103d861019261134f565b8311614ce357600080516020614ea683398151915233614c8561145c8284611320565b61409057505092614cc1600493614cd0936103d896614ca76319330bfd614b46565b94614cb160405190565b9788966020880190815201612d34565b602082018103825203826108ca565b614cd9306109df565b614c046000610e43565b826139a361019261134f565b836139d261019161134f565b6103d8939291906000614c17565b6103fa90614d24600080516020614f068339815191526113be565b15614d5b57614d31614ddc565b7f81990fd9a5c552b8e3677917d8a03c07678f0d2cb68f88b634aca2022e9bd19f611c5c336109df565b614d63614e2a565b7f5b65b0c1363b3003db9bcc5e1fd8805a6d6bf5bf6dc9d3431ee4494cd7d11766611c5c336109df565b6103fa90614d09565b614d9e61315a565b6103fa614dad600160c96115b3565b336124f27f62e78cea01bee320cd4e420270b5ea74000d11b0c9f74754ebdbfc544b05a25891610d8160405190565b6103fa614d96565b614dec614e75565b6103fa614dfb600060c96115b3565b336124f27f5db9ee0a495bf2e6ff9c91a7834c1ba4fdd244a5e8aa4e537bd38aeae4b073aa91610d8160405190565b6103fa614de4565b15614e3957565b60405162461bcd60e51b815260206004820152601460248201527314185d5cd8589b194e881b9bdd081c185d5cd95960621b6044820152606490fd5b6103fa614e80611c9e565b614e3256fe71840dc4906352362b0cdaf79870196c8e42acafade72d5d5a6d59291253ceb1b09aa5aeb3702cfd50b6b62bc4532604938f21248a27a1d5ca736082b6819cc1d8aa0f3194971a2a116679f7c2090f6939c8d4e01a2a8d7e41d55e5351469e63a49807205ce4d355092ef5a8a18f56e8913cf4a201fbe287825b095693c2177555435dd261a4b9b3364963f7738a7a662ad9c84396d64be3365284bb7f0a5041a164736f6c6343000814000a",
  "linkReferences": {},
  "deployedLinkReferences": {}
}