{
  "_format": "hh-sol-artifact-1",
  "contractName": "JustAnalyticsHelperUpgradeable",
  "sourceName": "contracts/JustAnalyticsHelperUpgradeable.sol",
  "abi": [
    {
      "inputs": [],
      "name": "InvalidParameters",
      "type": "error"
    },
    {
      "inputs": [],
      "name": "InvalidProposalId",
      "type": "error"
    },
    {
      "inputs": [],
      "name": "NoGovernance",
      "type": "error"
    },
    {
      "inputs": [],
      "name": "NoTimelock",
      "type": "error"
    },
    {
      "inputs": [],
      "name": "NoToken",
      "type": "error"
    },
    {
      "inputs": [],
      "name": "NotAuthorized",
      "type": "error"
    },
    {
      "inputs": [],
      "name": "ZeroAddress",
      "type": "error"
    },
    {
      "anonymous": false,
      "inputs": [
        {
          "indexed": true,
          "internalType": "address",
          "name": "voter",
          "type": "address"
        },
        {
          "indexed": false,
          "internalType": "uint256",
          "name": "proposalsVoted",
          "type": "uint256"
        }
      ],
      "name": "ActiveVoterRegistered",
      "type": "event"
    },
    {
      "anonymous": false,
      "inputs": [
        {
          "indexed": false,
          "internalType": "address",
          "name": "previousAdmin",
          "type": "address"
        },
        {
          "indexed": false,
          "internalType": "address",
          "name": "newAdmin",
          "type": "address"
        }
      ],
      "name": "AdminChanged",
      "type": "event"
    },
    {
      "anonymous": false,
      "inputs": [
        {
          "indexed": true,
          "internalType": "uint256",
          "name": "timestamp",
          "type": "uint256"
        },
        {
          "indexed": false,
          "internalType": "string",
          "name": "analyticsType",
          "type": "string"
        }
      ],
      "name": "AnalyticsUpdated",
      "type": "event"
    },
    {
      "anonymous": false,
      "inputs": [
        {
          "indexed": true,
          "internalType": "address",
          "name": "beacon",
          "type": "address"
        }
      ],
      "name": "BeaconUpgraded",
      "type": "event"
    },
    {
      "anonymous": false,
      "inputs": [
        {
          "indexed": true,
          "internalType": "string",
          "name": "contractType",
          "type": "string"
        },
        {
          "indexed": true,
          "internalType": "address",
          "name": "newAddress",
          "type": "address"
        }
      ],
      "name": "ContractAddressUpdated",
      "type": "event"
    },
    {
      "anonymous": false,
      "inputs": [
        {
          "indexed": false,
          "internalType": "uint8",
          "name": "version",
          "type": "uint8"
        }
      ],
      "name": "Initialized",
      "type": "event"
    },
    {
      "anonymous": false,
      "inputs": [
        {
          "indexed": false,
          "internalType": "address",
          "name": "account",
          "type": "address"
        }
      ],
      "name": "Paused",
      "type": "event"
    },
    {
      "anonymous": false,
      "inputs": [
        {
          "indexed": true,
          "internalType": "uint256",
          "name": "proposalId",
          "type": "uint256"
        },
        {
          "indexed": false,
          "internalType": "enum JustGovernanceInterface.ProposalType",
          "name": "proposalType",
          "type": "uint8"
        }
      ],
      "name": "ProposalTracked",
      "type": "event"
    },
    {
      "anonymous": false,
      "inputs": [
        {
          "indexed": true,
          "internalType": "bytes32",
          "name": "role",
          "type": "bytes32"
        },
        {
          "indexed": true,
          "internalType": "bytes32",
          "name": "previousAdminRole",
          "type": "bytes32"
        },
        {
          "indexed": true,
          "internalType": "bytes32",
          "name": "newAdminRole",
          "type": "bytes32"
        }
      ],
      "name": "RoleAdminChanged",
      "type": "event"
    },
    {
      "anonymous": false,
      "inputs": [
        {
          "indexed": true,
          "internalType": "bytes32",
          "name": "role",
          "type": "bytes32"
        },
        {
          "indexed": true,
          "internalType": "address",
          "name": "account",
          "type": "address"
        },
        {
          "indexed": true,
          "internalType": "address",
          "name": "sender",
          "type": "address"
        }
      ],
      "name": "RoleGranted",
      "type": "event"
    },
    {
      "anonymous": false,
      "inputs": [
        {
          "indexed": true,
          "internalType": "bytes32",
          "name": "role",
          "type": "bytes32"
        },
        {
          "indexed": true,
          "internalType": "address",
          "name": "account",
          "type": "address"
        },
        {
          "indexed": true,
          "internalType": "address",
          "name": "sender",
          "type": "address"
        }
      ],
      "name": "RoleRevoked",
      "type": "event"
    },
    {
      "anonymous": false,
      "inputs": [
        {
          "indexed": true,
          "internalType": "uint256",
          "name": "snapshotId",
          "type": "uint256"
        },
        {
          "indexed": false,
          "internalType": "uint256",
          "name": "timestamp",
          "type": "uint256"
        }
      ],
      "name": "SnapshotCreated",
      "type": "event"
    },
    {
      "anonymous": false,
      "inputs": [
        {
          "indexed": true,
          "internalType": "bytes32",
          "name": "txHash",
          "type": "bytes32"
        },
        {
          "indexed": false,
          "internalType": "enum JustTimelockInterface.ThreatLevel",
          "name": "threatLevel",
          "type": "uint8"
        }
      ],
      "name": "TimelockTransactionTracked",
      "type": "event"
    },
    {
      "anonymous": false,
      "inputs": [
        {
          "indexed": false,
          "internalType": "address",
          "name": "account",
          "type": "address"
        }
      ],
      "name": "Unpaused",
      "type": "event"
    },
    {
      "anonymous": false,
      "inputs": [
        {
          "indexed": true,
          "internalType": "address",
          "name": "implementation",
          "type": "address"
        }
      ],
      "name": "Upgraded",
      "type": "event"
    },
    {
      "inputs": [],
      "name": "ADMIN_ROLE",
      "outputs": [
        {
          "internalType": "bytes32",
          "name": "",
          "type": "bytes32"
        }
      ],
      "stateMutability": "view",
      "type": "function"
    },
    {
      "inputs": [],
      "name": "ANALYTICS_ROLE",
      "outputs": [
        {
          "internalType": "bytes32",
          "name": "",
          "type": "bytes32"
        }
      ],
      "stateMutability": "view",
      "type": "function"
    },
    {
      "inputs": [],
      "name": "DEFAULT_ADMIN_ROLE",
      "outputs": [
        {
          "internalType": "bytes32",
          "name": "",
          "type": "bytes32"
        }
      ],
      "stateMutability": "view",
      "type": "function"
    },
    {
      "inputs": [],
      "name": "calculateGovernanceHealthScore",
      "outputs": [
        {
          "internalType": "uint256",
          "name": "score",
          "type": "uint256"
        },
        {
          "internalType": "uint256[]",
          "name": "breakdown",
          "type": "uint256[]"
        }
      ],
      "stateMutability": "view",
      "type": "function"
    },
    {
      "inputs": [
        {
          "internalType": "uint256",
          "name": "startId",
          "type": "uint256"
        },
        {
          "internalType": "uint256",
          "name": "endId",
          "type": "uint256"
        }
      ],
      "name": "getProposalAnalytics",
      "outputs": [
        {
          "components": [
            {
              "internalType": "uint256",
              "name": "totalProposals",
              "type": "uint256"
            },
            {
              "internalType": "uint256",
              "name": "activeProposals",
              "type": "uint256"
            },
            {
              "internalType": "uint256",
              "name": "canceledProposals",
              "type": "uint256"
            },
            {
              "internalType": "uint256",
              "name": "defeatedProposals",
              "type": "uint256"
            },
            {
              "internalType": "uint256",
              "name": "succeededProposals",
              "type": "uint256"
            },
            {
              "internalType": "uint256",
              "name": "queuedProposals",
              "type": "uint256"
            },
            {
              "internalType": "uint256",
              "name": "executedProposals",
              "type": "uint256"
            },
            {
              "internalType": "uint256",
              "name": "expiredProposals",
              "type": "uint256"
            },
            {
              "internalType": "uint256",
              "name": "generalProposals",
              "type": "uint256"
            },
            {
              "internalType": "uint256",
              "name": "withdrawalProposals",
              "type": "uint256"
            },
            {
              "internalType": "uint256",
              "name": "tokenTransferProposals",
              "type": "uint256"
            },
            {
              "internalType": "uint256",
              "name": "governanceChangeProposals",
              "type": "uint256"
            },
            {
              "internalType": "uint256",
              "name": "externalERC20Proposals",
              "type": "uint256"
            },
            {
              "internalType": "uint256",
              "name": "tokenMintProposals",
              "type": "uint256"
            },
            {
              "internalType": "uint256",
              "name": "tokenBurnProposals",
              "type": "uint256"
            },
            {
              "internalType": "uint256",
              "name": "generalSuccessRate",
              "type": "uint256"
            },
            {
              "internalType": "uint256",
              "name": "withdrawalSuccessRate",
              "type": "uint256"
            },
            {
              "internalType": "uint256",
              "name": "tokenTransferSuccessRate",
              "type": "uint256"
            },
            {
              "internalType": "uint256",
              "name": "governanceChangeSuccessRate",
              "type": "uint256"
            },
            {
              "internalType": "uint256",
              "name": "externalERC20SuccessRate",
              "type": "uint256"
            },
            {
              "internalType": "uint256",
              "name": "tokenMintSuccessRate",
              "type": "uint256"
            },
            {
              "internalType": "uint256",
              "name": "tokenBurnSuccessRate",
              "type": "uint256"
            },
            {
              "internalType": "uint256",
              "name": "avgProposalLifetime",
              "type": "uint256"
            },
            {
              "internalType": "uint256",
              "name": "avgTimeToExecution",
              "type": "uint256"
            },
            {
              "internalType": "uint256",
              "name": "avgVotingTurnout",
              "type": "uint256"
            }
          ],
          "internalType": "struct JustAnalyticsHelperUpgradeable.ProposalAnalytics",
          "name": "analytics",
          "type": "tuple"
        }
      ],
      "stateMutability": "view",
      "type": "function"
    },
    {
      "inputs": [
        {
          "internalType": "bytes32",
          "name": "role",
          "type": "bytes32"
        }
      ],
      "name": "getRoleAdmin",
      "outputs": [
        {
          "internalType": "bytes32",
          "name": "",
          "type": "bytes32"
        }
      ],
      "stateMutability": "view",
      "type": "function"
    },
    {
      "inputs": [
        {
          "internalType": "bytes32",
          "name": "role",
          "type": "bytes32"
        },
        {
          "internalType": "uint256",
          "name": "index",
          "type": "uint256"
        }
      ],
      "name": "getRoleMember",
      "outputs": [
        {
          "internalType": "address",
          "name": "",
          "type": "address"
        }
      ],
      "stateMutability": "view",
      "type": "function"
    },
    {
      "inputs": [
        {
          "internalType": "bytes32",
          "name": "role",
          "type": "bytes32"
        }
      ],
      "name": "getRoleMemberCount",
      "outputs": [
        {
          "internalType": "uint256",
          "name": "",
          "type": "uint256"
        }
      ],
      "stateMutability": "view",
      "type": "function"
    },
    {
      "inputs": [
        {
          "internalType": "uint256",
          "name": "maxTransactions",
          "type": "uint256"
        }
      ],
      "name": "getTimelockAnalytics",
      "outputs": [
        {
          "components": [
            {
              "internalType": "uint256",
              "name": "totalTransactions",
              "type": "uint256"
            },
            {
              "internalType": "uint256",
              "name": "executedTransactions",
              "type": "uint256"
            },
            {
              "internalType": "uint256",
              "name": "pendingTransactions",
              "type": "uint256"
            },
            {
              "internalType": "uint256",
              "name": "canceledTransactions",
              "type": "uint256"
            },
            {
              "internalType": "uint256",
              "name": "expiredTransactions",
              "type": "uint256"
            },
            {
              "internalType": "uint256",
              "name": "lowThreatCount",
              "type": "uint256"
            },
            {
              "internalType": "uint256",
              "name": "mediumThreatCount",
              "type": "uint256"
            },
            {
              "internalType": "uint256",
              "name": "highThreatCount",
              "type": "uint256"
            },
            {
              "internalType": "uint256",
              "name": "criticalThreatCount",
              "type": "uint256"
            },
            {
              "internalType": "uint256",
              "name": "avgExecutionDelay",
              "type": "uint256"
            },
            {
              "internalType": "uint256",
              "name": "avgLowThreatDelay",
              "type": "uint256"
            },
            {
              "internalType": "uint256",
              "name": "avgMediumThreatDelay",
              "type": "uint256"
            },
            {
              "internalType": "uint256",
              "name": "avgHighThreatDelay",
              "type": "uint256"
            },
            {
              "internalType": "uint256",
              "name": "avgCriticalThreatDelay",
              "type": "uint256"
            },
            {
              "internalType": "uint256",
              "name": "lowThreatSuccessRate",
              "type": "uint256"
            },
            {
              "internalType": "uint256",
              "name": "mediumThreatSuccessRate",
              "type": "uint256"
            },
            {
              "internalType": "uint256",
              "name": "highThreatSuccessRate",
              "type": "uint256"
            },
            {
              "internalType": "uint256",
              "name": "criticalThreatSuccessRate",
              "type": "uint256"
            }
          ],
          "internalType": "struct JustAnalyticsHelperUpgradeable.TimelockAnalytics",
          "name": "analytics",
          "type": "tuple"
        }
      ],
      "stateMutability": "view",
      "type": "function"
    },
    {
      "inputs": [],
      "name": "getTokenDistributionAnalytics",
      "outputs": [
        {
          "components": [
            {
              "internalType": "uint256",
              "name": "totalSupply",
              "type": "uint256"
            },
            {
              "internalType": "uint256",
              "name": "circulatingSupply",
              "type": "uint256"
            },
            {
              "internalType": "uint256",
              "name": "treasuryBalance",
              "type": "uint256"
            },
            {
              "internalType": "uint256",
              "name": "activeTokens",
              "type": "uint256"
            },
            {
              "internalType": "uint256",
              "name": "delegatedTokens",
              "type": "uint256"
            },
            {
              "internalType": "uint256",
              "name": "smallHolderCount",
              "type": "uint256"
            },
            {
              "internalType": "uint256",
              "name": "mediumHolderCount",
              "type": "uint256"
            },
            {
              "internalType": "uint256",
              "name": "largeHolderCount",
              "type": "uint256"
            },
            {
              "internalType": "uint256",
              "name": "smallHolderBalance",
              "type": "uint256"
            },
            {
              "internalType": "uint256",
              "name": "mediumHolderBalance",
              "type": "uint256"
            },
            {
              "internalType": "uint256",
              "name": "largeHolderBalance",
              "type": "uint256"
            },
            {
              "internalType": "uint256",
              "name": "tokensPerActiveVoter",
              "type": "uint256"
            },
            {
              "internalType": "uint256",
              "name": "giniCoefficient",
              "type": "uint256"
            },
            {
              "internalType": "uint256",
              "name": "topTenHolderBalance",
              "type": "uint256"
            }
          ],
          "internalType": "struct JustAnalyticsHelperUpgradeable.TokenDistributionAnalytics",
          "name": "analytics",
          "type": "tuple"
        }
      ],
      "stateMutability": "view",
      "type": "function"
    },
    {
      "inputs": [
        {
          "internalType": "uint256",
          "name": "proposalCount",
          "type": "uint256"
        }
      ],
      "name": "getVoterBehaviorAnalytics",
      "outputs": [
        {
          "components": [
            {
              "internalType": "uint256",
              "name": "totalVoters",
              "type": "uint256"
            },
            {
              "internalType": "uint256",
              "name": "activeVoters",
              "type": "uint256"
            },
            {
              "internalType": "uint256",
              "name": "superActiveVoters",
              "type": "uint256"
            },
            {
              "internalType": "uint256",
              "name": "consistentVoters",
              "type": "uint256"
            },
            {
              "internalType": "uint256",
              "name": "yesLeaning",
              "type": "uint256"
            },
            {
              "internalType": "uint256",
              "name": "noLeaning",
              "type": "uint256"
            },
            {
              "internalType": "uint256",
              "name": "balanced",
              "type": "uint256"
            },
            {
              "internalType": "uint256",
              "name": "delegatorCount",
              "type": "uint256"
            },
            {
              "internalType": "uint256",
              "name": "delegateCount",
              "type": "uint256"
            },
            {
              "internalType": "uint256",
              "name": "avgDelegationChainLength",
              "type": "uint256"
            },
            {
              "internalType": "address[]",
              "name": "voters",
              "type": "address[]"
            },
            {
              "internalType": "uint256[]",
              "name": "voteCounts",
              "type": "uint256[]"
            },
            {
              "internalType": "uint256[]",
              "name": "yesCounts",
              "type": "uint256[]"
            },
            {
              "internalType": "uint256[]",
              "name": "noCounts",
              "type": "uint256[]"
            },
            {
              "internalType": "uint256[]",
              "name": "abstainCounts",
              "type": "uint256[]"
            }
          ],
          "internalType": "struct JustAnalyticsHelperUpgradeable.VoterAnalytics",
          "name": "analytics",
          "type": "tuple"
        }
      ],
      "stateMutability": "view",
      "type": "function"
    },
    {
      "inputs": [
        {
          "internalType": "uint256",
          "name": "",
          "type": "uint256"
        }
      ],
      "name": "governanceSnapshots",
      "outputs": [
        {
          "internalType": "uint256",
          "name": "timestamp",
          "type": "uint256"
        },
        {
          "internalType": "uint256",
          "name": "blockNumber",
          "type": "uint256"
        },
        {
          "internalType": "uint256",
          "name": "totalProposals",
          "type": "uint256"
        },
        {
          "internalType": "uint256",
          "name": "activeVoters",
          "type": "uint256"
        },
        {
          "internalType": "uint256",
          "name": "voterParticipationRate",
          "type": "uint256"
        },
        {
          "internalType": "uint256",
          "name": "avgProposalVotes",
          "type": "uint256"
        },
        {
          "internalType": "uint256",
          "name": "delegationRate",
          "type": "uint256"
        },
        {
          "internalType": "uint256",
          "name": "treasuryBalance",
          "type": "uint256"
        },
        {
          "internalType": "uint256",
          "name": "topDelegateConcentration",
          "type": "uint256"
        },
        {
          "internalType": "uint256",
          "name": "governanceHealth",
          "type": "uint256"
        }
      ],
      "stateMutability": "view",
      "type": "function"
    },
    {
      "inputs": [
        {
          "internalType": "bytes32",
          "name": "role",
          "type": "bytes32"
        },
        {
          "internalType": "address",
          "name": "account",
          "type": "address"
        }
      ],
      "name": "grantRole",
      "outputs": [],
      "stateMutability": "nonpayable",
      "type": "function"
    },
    {
      "inputs": [
        {
          "internalType": "bytes32",
          "name": "role",
          "type": "bytes32"
        },
        {
          "internalType": "address",
          "name": "account",
          "type": "address"
        }
      ],
      "name": "hasRole",
      "outputs": [
        {
          "internalType": "bool",
          "name": "",
          "type": "bool"
        }
      ],
      "stateMutability": "view",
      "type": "function"
    },
    {
      "inputs": [
        {
          "internalType": "address",
          "name": "tokenAddress",
          "type": "address"
        },
        {
          "internalType": "address",
          "name": "governanceAddress",
          "type": "address"
        },
        {
          "internalType": "address",
          "name": "timelockAddress",
          "type": "address"
        },
        {
          "internalType": "address",
          "name": "admin",
          "type": "address"
        }
      ],
      "name": "initialize",
      "outputs": [],
      "stateMutability": "nonpayable",
      "type": "function"
    },
    {
      "inputs": [],
      "name": "justGovernance",
      "outputs": [
        {
          "internalType": "contract JustGovernanceInterface",
          "name": "",
          "type": "address"
        }
      ],
      "stateMutability": "view",
      "type": "function"
    },
    {
      "inputs": [],
      "name": "justTimelock",
      "outputs": [
        {
          "internalType": "contract JustTimelockInterface",
          "name": "",
          "type": "address"
        }
      ],
      "stateMutability": "view",
      "type": "function"
    },
    {
      "inputs": [],
      "name": "justToken",
      "outputs": [
        {
          "internalType": "contract JustTokenInterface",
          "name": "",
          "type": "address"
        }
      ],
      "stateMutability": "view",
      "type": "function"
    },
    {
      "inputs": [],
      "name": "pause",
      "outputs": [],
      "stateMutability": "nonpayable",
      "type": "function"
    },
    {
      "inputs": [],
      "name": "paused",
      "outputs": [
        {
          "internalType": "bool",
          "name": "",
          "type": "bool"
        }
      ],
      "stateMutability": "view",
      "type": "function"
    },
    {
      "inputs": [],
      "name": "proxiableUUID",
      "outputs": [
        {
          "internalType": "bytes32",
          "name": "",
          "type": "bytes32"
        }
      ],
      "stateMutability": "view",
      "type": "function"
    },
    {
      "inputs": [
        {
          "internalType": "bytes32",
          "name": "role",
          "type": "bytes32"
        },
        {
          "internalType": "address",
          "name": "account",
          "type": "address"
        }
      ],
      "name": "renounceRole",
      "outputs": [],
      "stateMutability": "nonpayable",
      "type": "function"
    },
    {
      "inputs": [
        {
          "internalType": "bytes32",
          "name": "role",
          "type": "bytes32"
        },
        {
          "internalType": "address",
          "name": "account",
          "type": "address"
        }
      ],
      "name": "revokeRole",
      "outputs": [],
      "stateMutability": "nonpayable",
      "type": "function"
    },
    {
      "inputs": [
        {
          "internalType": "bytes4",
          "name": "interfaceId",
          "type": "bytes4"
        }
      ],
      "name": "supportsInterface",
      "outputs": [
        {
          "internalType": "bool",
          "name": "",
          "type": "bool"
        }
      ],
      "stateMutability": "view",
      "type": "function"
    },
    {
      "inputs": [],
      "name": "unpause",
      "outputs": [],
      "stateMutability": "nonpayable",
      "type": "function"
    },
    {
      "inputs": [
        {
          "internalType": "address",
          "name": "tokenAddress",
          "type": "address"
        },
        {
          "internalType": "address",
          "name": "governanceAddress",
          "type": "address"
        },
        {
          "internalType": "address",
          "name": "timelockAddress",
          "type": "address"
        }
      ],
      "name": "updateContractAddresses",
      "outputs": [],
      "stateMutability": "nonpayable",
      "type": "function"
    },
    {
      "inputs": [
        {
          "internalType": "address",
          "name": "newImplementation",
          "type": "address"
        }
      ],
      "name": "upgradeTo",
      "outputs": [],
      "stateMutability": "nonpayable",
      "type": "function"
    },
    {
      "inputs": [
        {
          "internalType": "address",
          "name": "newImplementation",
          "type": "address"
        },
        {
          "internalType": "bytes",
          "name": "data",
          "type": "bytes"
        }
      ],
      "name": "upgradeToAndCall",
      "outputs": [],
      "stateMutability": "payable",
      "type": "function"
    }
  ],
  "bytecode": "0x60a0604052346200003657620000146200003b565b604051615e7762000093823960805181818161146101526115ad0152615e7790f35b600080fd5b6200004562000082565b565b6200005d9062000060906001600160a01b031682565b90565b6001600160a01b031690565b6200005d9062000047565b6200005d906200006c565b6200008d3062000077565b60805256fe610300604052600436101561001357600080fd5b60003560e01c806301ffc9a7146101d35780631abd602b146101ce5780632071088a146101c9578063248a9ca3146101c45780632f2ff15d146101bf578063355c69c2146101ba57806335fa6855146101b557806336568abe146101b05780633659cfe6146101ab5780633f4ba83a146101a65780634f1ef286146101a157806352d1902d1461019c5780635c975abb1461019757806375b238fc1461019257806378429b591461018d5780638456cb59146101885780639010d07c1461018357806391d148541461017e578063a217fddf14610179578063a4acdfb614610174578063b3f15b171461016f578063bfd9c5d81461016a578063ca15c87314610165578063d1951ead14610160578063d547741f1461015b578063dbd6250614610156578063e40e9914146101515763f8c8765e036101d857610f19565b610eb5565b610d01565b610cdb565b610cc0565b610c98565b610c6a565b610c2b565b610a4d565b610954565b610919565b6108e2565b6108a7565b610880565b6107ee565b6107d3565b6107b8565b6107a4565b61068e565b610676565b610649565b610622565b6104bf565b610364565b610326565b6102e1565b610256565b61021a565b600080fd5b6001600160e01b031981165b036101d857565b905035906101fd826101dd565b565b906020828203126101d857610213916101f0565b90565b9052565b346101d8576102476102356102303660046101ff565b610f35565b60405191829182901515815260200190565b0390f35b60009103126101d857565b346101d85761026636600461024b565b610247600080516020615e2b8339815191525b6040519182918290815260200190565b6001600160a01b031690565b6001600160a01b0381166101e9565b905035906101fd82610295565b90916060828403126101d8576102136102ca84846102a4565b936102d881602086016102a4565b936040016102a4565b346101d8576102fa6102f43660046102b1565b916126d5565b604051005b806101e9565b905035906101fd826102ff565b906020828203126101d85761021391610305565b346101d85761024761027961033c366004610312565b611026565b91906040838203126101d8576102139061035b8185610305565b936020016102a4565b346101d8576102fa610377366004610341565b9061105d565b634e487b7160e01b600052603260045260246000fd5b80548210156103b6576103ad600a91600052602060002090565b91020190600090565b61037d565b6102139081565b61021390546103bb565b90610194916000926103dc815490565b82101561046d576103ee929350610393565b50906103f9826103c2565b91610406600182016103c2565b91610413600283016103c2565b91610420600382016103c2565b9161042d600483016103c2565b9161043a600582016103c2565b91610447600683016103c2565b91610454600782016103c2565b916102136009610466600885016103c2565b93016103c2565b8380fd5b979593919a9998969492909a61014089019b60008a0161048f919052565b602089015260408801526060870152608086015260a085015260c084015260e08301526101008201526101200152565b346101d8576102476104da6104d5366004610312565b6103cc565b966104f09a989a96919695929594939460405190565b9a8b9a8b610471565b805182526101fd919061022090819061051760208201516020860152565b61052660408201516040860152565b61053560608201516060860152565b61054460808201516080860152565b61055360a082015160a0860152565b61056260c082015160c0860152565b61057160e082015160e0860152565b610582610100820151610100860152565b610593610120820151610120860152565b6105a4610140820151610140860152565b6105b5610160820151610160860152565b6105c6610180820151610180860152565b6105d76101a08201516101a0860152565b6105e86101c08201516101c0860152565b6105f96101e08201516101e0860152565b61060a610200820151610200860152565b0151910152565b610240810192916101fd91906104f9565b346101d85761024761063d610638366004610312565b615d8e565b60405191829182610611565b346101d8576102fa61065c366004610341565b906112b3565b906020828203126101d857610213916102a4565b346101d8576102fa610689366004610662565b61166e565b346101d85761069e36600461024b565b6102fa615269565b634e487b7160e01b600052604160045260246000fd5b90601f01601f1916810190811067ffffffffffffffff8211176106de57604052565b6106a6565b906101fd6106f060405190565b92836106bc565b67ffffffffffffffff81116106de57602090601f01601f19160190565b0190565b90826000939282370152565b90929192610739610734826106f7565b6106e3565b938185526020850190828401116101d8576101fd92610718565b9080601f830112156101d85781602061021393359101610724565b9190916040818403126101d85761078583826102a4565b92602082013567ffffffffffffffff81116101d8576102139201610753565b6102fa6107b236600461076e565b906119c7565b346101d8576107c836600461024b565b6102476102796114cc565b346101d8576107e336600461024b565b6102476102356119d1565b346101d8576107fe36600461024b565b610247600080516020615e4b833981519152610279565b610213916008021c6001600160a01b031690565b906102139154610815565b6102136000610192610829565b61021390610289906001600160a01b031682565b61021390610841565b61021390610855565b6102169061085e565b6020810192916101fd9190610867565b346101d85761089036600461024b565b61024761089b610834565b60405191829182610870565b346101d8576108b736600461024b565b6102fa6151f1565b91906040838203126101d857610213906108d98185610305565b93602001610305565b346101d8576102476108fe6108f83660046108bf565b90610f6e565b6040515b918291826001600160a01b03909116815260200190565b346101d85761024761023561092f366004610341565b90610ffe565b6102136102136102139290565b6102136000610935565b610213610942565b346101d85761096436600461024b565b61024761027961094c565b805182526101fd91906101a090819061098d60208201516020860152565b61099c60408201516040860152565b6109ab60608201516060860152565b6109ba60808201516080860152565b6109c960a082015160a0860152565b6109d860c082015160c0860152565b6109e760e082015160e0860152565b6109f8610100820151610100860152565b610a09610120820151610120860152565b610a1a610140820151610140860152565b610a2b610160820151610160860152565b61060a610180820151610180860152565b6101c0810192916101fd919061096f565b346101d857610a5d36600461024b565b610247610a686151bf565b60405191829182610a3c565b90610a94610a8d610a83845190565b8084529260200190565b9260200190565b9060005b818110610aa55750505090565b909192610acb610ac460019286516001600160a01b0316815260200190565b9460200190565b929101610a98565b90610ae2610a8d610a83845190565b9060005b818110610af35750505090565b909192610b09610ac46001928651815260200190565b929101610ae6565b80518252610213916101c0610c08610bf4610be0610bcc6101e08601610b3c60208901516020890152565b610b4b60408901516040890152565b610b5a60608901516060890152565b610b6960808901516080890152565b610b7860a089015160a0890152565b610b8760c089015160c0890152565b610b9660e089015160e0890152565b610ba7610100890151610100890152565b610bb8610120890151610120890152565b610140880151878203610140890152610a74565b610160870151868203610160880152610ad3565b610180860151858203610180870152610ad3565b6101a08501518482036101a0860152610ad3565b920151906101c0818403910152610ad3565b602080825261021392910190610b11565b346101d857610247610c46610c41366004610312565b6142d5565b60405191829182610c1a565b90815260406020820181905261021392910190610ad3565b346101d857610c7a36600461024b565b610c82614be8565b90610247610c8f60405190565b92839283610c52565b346101d857610247610279610cae366004610312565b610f8e565b6102136000610193610829565b346101d857610cd036600461024b565b61024761089b610cb3565b346101d8576102fa610cee366004610341565b9061122b565b6102136000610191610829565b346101d857610d1136600461024b565b61024761089b610cf4565b805182526101fd9190610300908190610d3a60208201516020860152565b610d4960408201516040860152565b610d5860608201516060860152565b610d6760808201516080860152565b610d7660a082015160a0860152565b610d8560c082015160c0860152565b610d9460e082015160e0860152565b610da5610100820151610100860152565b610db6610120820151610120860152565b610dc7610140820151610140860152565b610dd8610160820151610160860152565b610de9610180820151610180860152565b610dfa6101a08201516101a0860152565b610e0b6101c08201516101c0860152565b610e1c6101e08201516101e0860152565b610e2d610200820151610200860152565b610e3e610220820151610220860152565b610e4f610240820151610240860152565b610e60610260820151610260860152565b610e71610280820151610280860152565b610e826102a08201516102a0860152565b610e936102c08201516102c0860152565b61060a6102e08201516102e0860152565b610320810192916101fd9190610d1c565b346101d857610247610ed1610ecb3660046108bf565b90613603565b60405191829182610ea4565b6080818303126101d857610ef182826102a4565b92610213610f0284602085016102a4565b93610f1081604086016102a4565b936060016102a4565b346101d8576102fa610f2c366004610edd565b929190916123c8565b635a05180f60e01b6001600160e01b0319821614908115610f54575090565b6102139150610fa5565b905b600052602052604060002090565b90610f8961021361021393610f81600090565b506097610f5e565b612070565b610fa061021361021392610f81600090565b612039565b637965db0b60e01b6001600160e01b0319821614908115610fc4575090565b61021391506001600160e01b0319166301ffc9a760e01b1490565b90610f609061085e565b610213905b60ff1690565b6102139054610fe9565b61021391600061101b61102193611013600090565b506065610f5e565b01610fdf565b610ff4565b600161103761021392611013600090565b016103c2565b906101fd9161105361104e82611026565b61108b565b906101fd91611067565b906101fd9161103d565b906110836102136110889361107c8482611303565b6097610f5e565b611d99565b50565b6101fd903390611183565b61021390610935565b60005b8381106110b25750506000910152565b81810151838201526020016110a2565b6107146110da926020926110d4815190565b94859290565b9384910161109f565b611121610213939261111b61111b937f416363657373436f6e74726f6c3a206163636f756e7420000000000000000000815260170190565b906110c2565b7001034b99036b4b9b9b4b733903937b6329607d1b815260110190565b61115f61116860209361071493611153815190565b80835293849260200190565b9586910161109f565b601f01601f191690565b60208082526102139291019061113e565b906111956111918284610ffe565b1590565b61119d575050565b61120c916102136111b96111b36111f394611d6c565b92611096565b6111ce6020916111c883610935565b90611c22565b926111e76111db60405190565b948593840192836110e3565b908103825203826106bc565b6040515b62461bcd60e51b815291829160048301611172565b0390fd5b906101fd9161122161104e82611026565b906101fd91611235565b906101fd91611210565b9061124a6102136110889361107c848261137a565b611ed0565b1561125657565b60405162461bcd60e51b815260206004820152602f60248201527f416363657373436f6e74726f6c3a2063616e206f6e6c792072656e6f756e636560448201526e103937b632b9903337b91039b2b63360891b6064820152608490fd5b6101fd91906112d46112c433610289565b6001600160a01b0384161461124f565b611235565b9060ff905b9181191691161790565b906112f86102136112ff92151590565b82546112d9565b9055565b906113116111918284610ffe565b611319575050565b611334600161132f83600061101b876065610f5e565b6112e8565b339061136a6113646113647f2f8788117e7eff1d82e926ec794901d17c78024a50270940304540a733656f0d9590565b9261085e565b9261137460405190565b600090a4565b906113858183610ffe565b61138d575050565b6113a2600061132f838261101b876065610f5e565b339061136a6113646113647ff6391f5c32d9c69d2a47ea670b442974b53935d1edc7fd64eb21e047a839171b9590565b156113d957565b60405162461bcd60e51b815260206004820152603860248201527f555550535570677261646561626c653a206d757374206e6f742062652063616c60448201527f6c6564207468726f7567682064656c656761746563616c6c00000000000000006064820152608490fd5b610213906114956114543061085e565b61148f6001600160a01b037f0000000000000000000000000000000000000000000000000000000000000000165b916001600160a01b031690565b146113d2565b6114c3565b6102137f360894a13ba1a3210667c828492db98dca3e2076cc3735a920a3ca505d382bbc610935565b5061021361149a565b6102136000611444565b156114dd57565b60405162461bcd60e51b815260206004820152602c60248201527f46756e6374696f6e206d7573742062652063616c6c6564207468726f7567682060448201526b19195b1959d85d1958d85b1b60a21b6064820152608490fd5b1561153e57565b60405162461bcd60e51b815260206004820152602c60248201527f46756e6374696f6e206d7573742062652063616c6c6564207468726f7567682060448201526b6163746976652070726f787960a01b6064820152608490fd5b6101fd906116086115a83061085e565b6115e77f0000000000000000000000000000000000000000000000000000000000000000916115e0611482846001600160a01b031690565b14156114d6565b6116026114826115f561168a565b926001600160a01b031690565b14611537565b611647565b9061161a610734836106f7565b918252565b369037565b906101fd61163a6116348461160d565b936106f7565b601f19016020840161161f565b6101fd9061165481612503565b60009061166861166383610935565b611624565b90611754565b6101fd90611598565b61021390610289565b6102139054611677565b610213600061169a61021361149a565b01611680565b6102137f4910fdfa16fed3260ed0e7147f7cc6da11a60208b5b9406d12a635614ffd9143610935565b905051906101fd826102ff565b906020828203126101d857610213916116c9565b6040513d6000823e3d90fd5b156116fd57565b60405162461bcd60e51b815260206004820152602960248201527f45524331393637557067726164653a20756e737570706f727465642070726f786044820152681a58589b195555525160ba1b6064820152608490fd5b919061176c60006117666102136116a0565b01610ff4565b1561177c5750506101fd906118fa565b82602061179361178e6117ab9661085e565b61085e565b6352d1902d906117a260405190565b96879260e01b90565b825260049082905afa60009481611842575b5061181e5760405162461bcd60e51b815260206004820152602e60248201527f45524331393637557067726164653a206e657720696d706c656d656e7461746960448201526d6f6e206973206e6f74205555505360901b6064820152608490fd5b61183d6101fd9461183761183361021361149a565b9190565b146116f6565b611922565b61186491955060203d811161186b575b61185c81836106bc565b8101906116d6565b93386117bd565b503d611852565b1561187957565b60405162461bcd60e51b815260206004820152602d60248201527f455243313936373a206e657720696d706c656d656e746174696f6e206973206e60448201526c1bdd08184818dbdb9d1c9858dd609a1b6064820152608490fd5b906001600160a01b03906112de565b906118f36102136112ff9261085e565b82546118d4565b6101fd9061190f61190a826119db565b611872565b600061191c61021361149a565b016118e3565b9161192c8361195e565b815161193b6118336000610935565b11908115611956575b5061194d575050565b61108891611a38565b905038611944565b611967816118fa565b6119917fbc7cd75a20ee27fd9adebab32041f755214dbc6bffa90cc0225b39da2e5c2d3b9161085e565b9061199b60405190565b600090a2565b906101fd916119b26115a83061085e565b6101fd916119bf82612503565b600191611754565b906101fd916119a1565b61021360c9610ff4565b3b6119e96118336000610935565b1190565b6119f7602761160d565b7f416464726573733a206c6f772d6c6576656c2064656c65676174652063616c6c6020820152660819985a5b195960ca1b604082015290565b6102136119ed565b61021391611a44611a30565b91611a69565b3d15611a6457611a593d61160d565b903d6000602084013e565b606090565b6000806102139493611a79606090565b50805190602001845af4611a8b611a4a565b91611add565b15611a9857565b60405162461bcd60e51b815260206004820152601d60248201527f416464726573733a2063616c6c20746f206e6f6e2d636f6e74726163740000006044820152606490fd5b91929015611b0f57508151611af56118336000610935565b14611afe575090565b611b0a610213916119db565b611a91565b8290611b19825190565b611b266118336000610935565b1115611b355750805190602001fd5b61120c906111f760405190565b634e487b7160e01b600052601160045260246000fd5b9190611b63565b9290565b91808302928184041490151715611b7657565b611b42565b91908201809211611b7657565b90611b91825190565b8110156103b6570160200190565b8015611b76576000190190565b610fee6102136102139290565b61021390611bcd6118336102139460ff1690565b901c90565b15611bd957565b60405162461bcd60e51b81528061120c600482016020808252818101527f537472696e67733a20686578206c656e67746820696e73756666696369656e74604082015260600190565b9190600292611c4e611663611c3f84611c3a88610935565b611b58565b611c4887610935565b90611b7b565b916000906030611c66611c6084610935565b86611b88565b53611c9e611c95600f60fb1b92611c3a6001998a95871a611c8f611c8988610935565b8b611b88565b53610935565b611c4883610935565b905b611cc2575b5061021393945090611cbc61183361021393610935565b14611bd2565b91611ccc86610935565b831115611d3a576f181899199a1a9b1b9c1cb0b131b232b360811b611cf1600f610935565b82169060108210156103b6578792611d11611d2e92611d34941a60f81b90565b851a611d1d8789611b88565b53611d286004611bac565b90611bb9565b93611b9f565b90611ca0565b91611ca5565b6102139081906001600160a01b031681565b6102136014611bac565b6102136102136102139260ff1690565b611d89611d8461021392611d7e606090565b50610855565b611d40565b6111c8611d94611d52565b611d5c565b90611dc1611833611dbc611d84600061021396611db4600090565b500194610855565b610935565b611e5a565b80548210156103b6576103ad600191600052602060002090565b9160001960089290920291821b911b6112de565b9190611e036102136112ff9390565b908354611de0565b90815491680100000000000000008310156106de5782611e339160016101fd95018155611dc6565b90611df4565b90600019906112de565b90611e536102136112ff92610935565b8254611e39565b611e676111918383611ea0565b15611e9957611e9491611e8f906001611e8884611e848482611e0b565b5490565b9301610f5e565b611e43565b600190565b5050600090565b611ebe916001611eb992611eb2600090565b5001610f5e565b6103c2565b611ecb6118336000610935565b141590565b90611eeb611833611dbc611d84600061021396611db4600090565b611f7a565b91908203918211611b7657565b610213916008021c81565b906102139154611efd565b634e487b7160e01b600052603160045260246000fd5b6101fd91600091611df4565b80548015611f58576000190190611f55611f4f8383611dc6565b90611f29565b55565b611f13565b9190611e036102136112ff93610935565b6101fd91600091611f5d565b90611f8b611eb98260018501610f5e565b600092611f9784610935565b8214611fea5761021392611ff09492611ffb92611ff56001978893611fc4611fbe86610935565b82611ef0565b88850191611fe2611fd3845490565b611fdc89610935565b90611ef0565b828103612000575b50505090565b611f35565b01610f5e565b611f6e565b611e336120296120319461202061201a611e8f9589611dc6565b90611f08565b92839188611dc6565b888801610f5e565b388080611fea565b61204f60006102139261204a600090565b500190565b60006102139161205d600090565b50015490565b6102896102136102139290565b6120956120906102139361208b600061209a9561204a600090565b61209f565b611096565b612063565b610855565b61021391600061201a926120b1600090565b5001611dc6565b6102139060081c610fee565b61021390546120b8565b156120d557565b60405162461bcd60e51b815260206004820152602e60248201527f496e697469616c697a61626c653a20636f6e747261637420697320616c72656160448201526d191e481a5b9a5d1a585b1a5e995960921b6064820152608490fd5b610fee6102136102139260ff1690565b906112f86102136112ff92612131565b9061ff009060081b6112de565b9061216e6102136112ff92151590565b8254612151565b61021690611bac565b6020810192916101fd9190612175565b926121d991926121a161119160006120c4565b93848061227c575b8015612237575b6121b9906120ce565b600195856121d06121c989611bac565b6000612141565b612227576122a3565b6121e05750565b6121eb60008061215e565b6122227f7f26b83ff96e1f2b6a682f133852f6798a09c465da95921460cefb38474024989161221960405190565b9182918261217e565b0390a1565b61223287600061215e565b6122a3565b5061224c6111916122473061085e565b6119db565b80156121b057506121b96122606000610ff4565b61227461226d6001611bac565b9160ff1690565b1490506121b0565b506122876000610ff4565b61229461226d6001611bac565b106121a9565b61021390612063565b600092916122b08461229a565b916001600160a01b0383166001600160a01b0382161480156123ad575b8015612392575b612380576123289361178e6123186102899461178e612310612320966122f8612446565b612300612466565b6123086124aa565b61178e612446565b6101916118e3565b6101926118e3565b6101936118e3565b6001600160a01b038316149050612376576101fd905b61234a81611053610942565b61236281600080516020615e4b833981519152611053565b600080516020615e2b833981519152611053565b506101fd3361233e565b60405163d92e233d60e01b8152600490fd5b506001600160a01b0383166001600160a01b038516146122d4565b506001600160a01b0383166001600160a01b038316146122cd565b906101fd93929161218e565b156123db57565b60405162461bcd60e51b815260206004820152602b60248201527f496e697469616c697a61626c653a20636f6e7472616374206973206e6f74206960448201526a6e697469616c697a696e6760a81b6064820152608490fd5b6101fd61244160006120c4565b6123d4565b6101fd612434565b61245b61244160006120c4565b6101fd6101fd61248a565b6101fd61244e565b61247b61244160006120c4565b6101fd6101fd600060c96112e8565b6101fd61246e565b61249f61244160006120c4565b6101fd6101fd6124e3565b6101fd612492565b6124bf61244160006120c4565b6101fd6124d1565b6102136001610935565b6101fd6124dc6124c7565b60fb611e43565b6101fd6124b2565b506101fd600080516020615e4b83398151915261108b565b6101fd906124eb565b6101fd929190612529600080516020615e4b83398151915261108b565b612580565b604051642a37b5b2b760d91b815280600581015b03902090565b60405169476f7665726e616e636560b01b815280600a8101612542565b6040516754696d656c6f636b60c01b81528060088101612542565b6125d19161258e600061229a565b916001600160a01b0383166001600160a01b03821603612683575b506001600160a01b0382166001600160a01b03821603612631575b506001600160a01b031690565b6001600160a01b038216036125e35750565b6125ec9061085e565b6125f8816101936118e3565b7fa42de6429c1410f4470a8ff5afeeae27c734519ac1693e8eb58798a81715c947612621612565565b9061262b60405190565b600090a3565b61263a9061085e565b612646816101926118e3565b7fa42de6429c1410f4470a8ff5afeeae27c734519ac1693e8eb58798a81715c94761266f612548565b9061267960405190565b600090a3386125c4565b61268c9061085e565b612698816101916118e3565b7fa42de6429c1410f4470a8ff5afeeae27c734519ac1693e8eb58798a81715c9476126c161252e565b906126cb60405190565b600090a3386125a9565b906101fd929161250c565b6102136103206106e3565b6126f36126e0565b9060008252602082016000815260200160008152602001600081526020016000815260200160008152602001600081526020016000815260200160005b815260200160008152602001600081526020016000815260200160008152602001600081526020016000815260200160008152602001600081526020016000815260200160008152602001600081526020016000815260200160008152602001600081526020016000815260200160009052565b6102136126eb565b6102139291906127c9600080516020615e2b83398151915261108b565b9061021392916127d7613654565b612b6b565b6102136103e8610935565b6000198114611b765760010190565b600711156101d857565b905051906101fd826127f6565b906020828203126101d85761021391612800565b634e487b7160e01b600052602160045260246000fd5b6007111561284157565b612821565b906101fd82612837565b60ff81166101e9565b905051906101fd82612850565b65ffffffffffff81166101e9565b905051906101fd82612866565b905051906101fd82610295565b9092919261289e610734826106f7565b938185526020850190828401116101d8576101fd9261109f565b9080601f830112156101d85781516102139260200161288e565b9190916102a0818403126101d8576128eb6102a06106e3565b9260006128f88284612859565b90850152602061290a82828501612800565b90850152604061291c82828501612874565b90850152606061292e82828501612874565b908501526080612940828285016116c9565b9085015260a0612952828285016116c9565b9085015260c0612964828285016116c9565b9085015260e061297682828501612881565b90850152610100612989828285016116c9565b9085015261012061299c828285016116c9565b908501526101406129af828285016116c9565b9085015261016082015167ffffffffffffffff81116101d857816129d49184016128b8565b6101608501526101806129e982828501612881565b908501526101a08201519067ffffffffffffffff82116101d857612a1281612a959385016128b8565b6101a08601526101c0612a2782828601612881565b908601526101e0612a3a828286016116c9565b90860152610200612a4d82828601612881565b90860152610220612a60828286016116c9565b90860152610240612a73828286016116c9565b90860152610260612a86828286016116c9565b908601526102808093016116c9565b90830152565b906020828203126101d857815167ffffffffffffffff81116101d85761021392016128d2565b6102139051612846565b6102136102136102139265ffffffffffff1690565b60e0818303126101d857612af482826116c9565b92612b0283602084016116c9565b92612b1081604085016116c9565b92612b1e82606083016116c9565b92610213612b2f84608085016116c9565b93612b3d8160a08601612881565b9360c0016116c9565b634e487b7160e01b600052601260045260246000fd5b8115612b66570490565b612b46565b6102c0526102a091909152612b8461178e610192611680565b612b94611482610289600061229a565b146135f157806102a0511080156135cf575b6135bd57612bb46000610935565b6102e08190526102008190526101c08190526102608190526101e08190526102a051909283928392839283928392839283928392839283929091612c1290612c0b90612c01908490611ef0565b611c486001610935565b6102c05152565b610220525b6102a051610220511161333c57612c4f6020612c3761178e610192611680565b639080936f90612c4660405190565b93849260e01b90565b825261022051600483015260249082905afa908160006102805261330b575b50612c89575b612c80610220516127e7565b61022052612c17565b612c936000612846565b612c9f61028051612846565b036131e657612cbe60206102c05101610216612cb9825190565b6127e7565b612ce06000612cd161178e610192611680565b630a49484090612c4660405190565b825261022051600483015260249082905afa90816000610240526131c0575b5015600003612c7457612d1760206102405101612ac1565b612d2a612d246000612846565b91612846565b03612f4057612d456101006102c05101610216612cb9825190565b612d516101c0516127e7565b6101c052612d5f6005612846565b612d6b61028051612846565b14612f2b575b612d9f612d9642611fdc612d91606061024051015165ffffffffffff1690565b612acb565b6102e051611b7b565b6102e052612e21612dd4612dc7612dba608061024051015190565b6102405160a00151611c48565b6102405160c00151611c48565b60e0612de461178e610191611680565b639fa4750290612e13612dfc61010061024051015190565b92612e0660405190565b9687948593849360e01b90565b835260048301526024820190565b03915afa60009281612ef5575b50612eeb57612e6091506020612e4861178e610191611680565b6318160ddd90612e5760405190565b94859260e01b90565b825260049082905afa918215612ee657600092612ec6575b50612e836000610935565b8211612e91575b5050612c74565b612ebb91612ead612eb292612ea7612710610935565b90611b58565b612b5c565b61020051611b7b565b610200523880612e8a565b612edf91925060203d811161186b5761185c81836106bc565b9038612e78565b6116ea565b612e836000610935565b612f1791935060e03d8111612f24575b612f0f81836106bc565b810190612ae0565b5050505050929092612e2e565b503d612f05565b612f37610260516127e7565b61026052612d71565b99612f5060206102405101612ac1565b612f5d612d246001612846565b03612fb357612f7c90612cb96101206102c05101610216612cb9825190565b99612f876005612846565b612f9361028051612846565b14612f9e575b612d71565b612faa6101e0516127e7565b6101e052612d71565b9998612fc460206102405101612ac1565b612fd1612d246002612846565b0361301c57612ff090612cb96101406102c05101610216612cb9825190565b98612ffb6005612846565b61300761028051612846565b03612d71579a613016906127e7565b9a612d71565b989661302d60206102405101612ac1565b61303a612d246003612846565b036130855761305990612cb96101606102c05101610216612cb9825190565b966130646005612846565b61307061028051612846565b03612d71579761307f906127e7565b97612d71565b969461309660206102405101612ac1565b6130a3612d246004612846565b036130ee576130c290612cb96101806102c05101610216612cb9825190565b946130cd6005612846565b6130d961028051612846565b03612f9957956130e8906127e7565b95612d71565b94926130ff60206102405101612ac1565b61310c612d246005612846565b036131575761312b90612cb96101a06102c05101610216612cb9825190565b926131366005612846565b61314261028051612846565b03612d715793613151906127e7565b93612d71565b9261316760206102405101612ac1565b613174612d246006612846565b03612f99579061319490612cb96101c06102c05101610216612cb9825190565b9061319f6005612846565b6131ab61028051612846565b03612f9957916131ba906127e7565b91612d71565b6131dc903d806000833e6131d481836106bc565b810190612a9b565b6102405238612cff565b6131f06001612846565b6131fc61028051612846565b0361321b5761321660406102c05101610216612cb9825190565b612cbe565b6132256002612846565b61323161028051612846565b0361324b5761321660606102c05101610216612cb9825190565b6132556003612846565b61326161028051612846565b0361327b5761321660806102c05101610216612cb9825190565b6132856004612846565b61329161028051612846565b036132ab5761321660a06102c05101610216612cb9825190565b6132b56005612846565b6132c161028051612846565b036132db5761321660c06102c05101610216612cb9825190565b6132e56006612846565b6132f161028051612846565b036132165761321660e06102c05101610216612cb9825190565b61332b9060203d8111613335575b61332381836106bc565b81019061280d565b6102805238612c6e565b503d613319565b9a976134ca97613434613466939a61349897999698959c6134026134fc9f61336860006102c051015190565b6133756118336000610935565b11613578575b6133856000610935565b6101c0511160009060001461356757506133c76133bc6133b26133a9612710610935565b61026051611b58565b6101c05190612b5c565b6101e06102c0510152565b6133d16000610935565b60009082111561355857506133f790612ead6133ee612710610935565b6101e051611b58565b6102006102c0510152565b61340c6000610935565b6000908211156135475750612ead61342992612ea7612710610935565b6102206102c0510152565b61343e6000610935565b6000908211156135365750612ead61345b92612ea7612710610935565b6102406102c0510152565b6134706000610935565b6000908211156135255750612ead61348d92612ea7612710610935565b6102606102c0510152565b6134a26000610935565b6000908211156135145750612ead6134bf92612ea7612710610935565b6102806102c0510152565b6134d46000610935565b6000908211156135035750612ead6134f192612ea7612710610935565b6102a06102c0510152565b6102c05190565b905061350f9150610935565b6134f1565b90506135209150610935565b6134bf565b90506135319150610935565b61348d565b90506135429150610935565b61345b565b90506135539150610935565b613429565b6135629150610935565b6133f7565b6135736133c791610935565b6133bc565b6102c051516135979061358e906102e051612b5c565b6102c080510152565b6102c051516135b8906135ad9061020051612b5c565b6103006102c0510152565b61337b565b604051630e52390960e41b8152600490fd5b506135dd816102a051611ef0565b6135eb6118336102136127dc565b11612ba6565b604051632301a96b60e21b8152600490fd5b90610213916136106127a4565b6127ac565b1561361c57565b60405162461bcd60e51b815260206004820152601060248201526f14185d5cd8589b194e881c185d5cd95960821b6044820152606490fd5b6101fd6136626111916119d1565b613615565b6102136101e06106e3565b61367a613667565b9060008252602082016000815260200160008152602001600081526020016000815260200160008152602001600081526020016000815260200160008152602001600081526020016060815260200160608152602001606081526020016060815260200160609052565b610213613672565b6102139190613708600080516020615e2b83398151915261108b565b9061021391613715613654565b6137c1565b67ffffffffffffffff81116106de5760208091020190565b9061161a6107348361371a565b906101fd61163a61374f84613732565b9361371a565b9061071461161a60209369676f7665726e616e636560b01b8152600a0190565b9061071461161a602093643b37ba32b960d91b815260050190565b6001600160a01b0391821691168115612b66570690565b906137b0825190565b8110156103b6576020809102010190565b9060a052806137d461178e610192611680565b6137de600061229a565b610180526137f8611482610180516001600160a01b031690565b146135f15761380b61178e610191611680565b613821611482610180516001600160a01b031690565b146142c3576138306000610935565b60a0511480156142ae575b6135bd57613847615d9f565b6101c0526138556000610935565b6101c051146142a9575060a0516101c05160006101a0521061429657613883612c0160a0516101c051611ef0565b6101a0525b6138926064610935565b610220526138a26102205161373f565b906138af6102205161373f565b610140526138bf6102205161373f565b610260526138cf6102205161373f565b610200526138df6102205161373f565b6102e0526138ed6000610935565b6102c0526102c051610280525b6139046014610935565b610280511015613cfc5760006102405261391c600090565b6102405261392a600a610935565b610280511015613ccc5761397361209a61209561394660405190565b61395b81602081016111e76102805182613775565b61396d613966825190565b9160200190565b20611096565b610240525b6139826000610935565b6101e0526101e0516102a0526101e0516080526101e05160c0526000610100526101a05160e0525b6101c05160e05111613c05576139c06000610935565b506139e360206139d461178e610192611680565b63643aa8b390612c4660405190565b82526102405160e05160048401526001600160a01b0316602483015260449082905afa60009181613be5575b50613a2957505b613a2160e0516127e7565b60e0526139aa565b613a366118336000610935565b1115613a1657600161010052613a4e6101e0516127e7565b6101e052613a656000612cd161178e610192611680565b825260e051600483015260249082905afa9081600061012052613bc7575b50613b1a57613a9461024051610855565b61016052613aae613aa56003612063565b61016051613790565b613abb6114826000612063565b03613ad557613acc6102a0516127e7565b6102a052613a16565b613ae2613aa56003612063565b613aef6114826001612063565b03613b0757613aff6080516127e7565b608052613a16565b613b1260c0516127e7565b60c052613a16565b6101205160800151613b3661183361021360a061012051015190565b1180613ba4575b15613b4e57613acc6102a0516127e7565b6101205160a00151613b6a611833610213608061012051015190565b1180613b81575b15613b0757613aff6080516127e7565b506101205160a00151613b9e61183361021360c061012051015190565b11613b71565b506101205160800151613bc161183361021360c061012051015190565b11613b3d565b613bdb903d806000833e6131d481836106bc565b6101205238613a83565b613bfe91925060203d811161186b5761185c81836106bc565b9038613a0f565b6101005180613cbd575b613c29575b613c20610280516127e7565b610280526138fa565b613c4b61024051613c3d6102c051856137a7565b906001600160a01b03169052565b613c656101e051613c626102c051610140516137a7565b52565b613c7c6102a051613c626102c051610260516137a7565b613c92608051613c626102c051610200516137a7565b613ca860c051613c626102c0516102e0516137a7565b613cb46102c0516127e7565b6102c052613c14565b50610220516102c05110613c0f565b613cf361209a612095613cde60405190565b61395b81602081016111e76102805182613755565b61024052613978565b610220516102c051106140b7575b6102c05181526102c0516020820152613d3b613d31613d296050610935565b60a051611b58565b6102205190612b5c565b80613d496118336000610935565b14806140a3575b614093575b613d5f6000610935565b6102c051811015613f605780613d82613d7e613db193610140516137a7565b5190565b831115613f49575b613d9a613d7e82610140516137a7565b613da76118336000610935565b11613db6576127e7565b613d5f565b613dec613dd6613dcc613d7e84610260516137a7565b6102205190611b58565b613de6613d7e84610140516137a7565b90612b5c565b613e12613e02613dcc613d7e85610200516137a7565b613de6613d7e85610140516137a7565b90613e39613e29613dcc613d7e866102e0516137a7565b613de6613d7e86610140516137a7565b50604290613e4961183383610935565b10613f0f575050613e6260808501610216612cb9825190565b613e72613d7e82610260516137a7565b80613e89611833611b5f613d7e86610200516137a7565b11613ef9575b613e9f613d7e836102e0516137a7565b8110613ee3575b613ecc611833610213613d31613ec2613d7e87610140516137a7565b612ea76050610935565b106127e757612cb960608501610216612cb9825190565b50613ef4613d7e826102e0516137a7565b613ea6565b50613f0a613d7e82610200516137a7565b613e8f565b611833613f1b91610935565b10613f3757613f3260a08501610216612cb9825190565b613e62565b613f3260c08501610216612cb9825190565b613f5b60408501610216612cb9825190565b613d8a565b505090613f6f6102c05161373f565b6101408301908152613f836102c05161373f565b6101608401908152613f976102c05161373f565b916101808501928352613fac6102c05161373f565b936101a08601948552613fc16102c05161373f565b966101c08701978852613fd46000610935565b6102c051811015614088578061400b614000613ff361408394876137a7565b516001600160a01b031690565b613c3d8388516137a7565b61402961401e613d7e83610140516137a7565b613c628389516137a7565b61404761403c613d7e83610260516137a7565b613c62838a516137a7565b61406561405a613d7e83610200516137a7565b613c62838b516137a7565b612cb9614078613d7e836102e0516137a7565b613c62838d516137a7565b613fd4565b509650505050505090565b5061409e6001610935565b613d55565b506140ae6000610935565b60a05111613d50565b90916101a0515b6101c05181111580614287575b1561427f576140de61178e610192611680565b60006140e960405190565b6229252160e61b81526004810184905291829060249082905afa60009181614264575b50614120575061411b906127e7565b6140be565b60e061413991959392949501516001600160a01b031690565b9061414d610180516001600160a01b031690565b6001600160a01b038316146142575760009461416886610935565b6102c05181101561424657614180613ff382876137a7565b6141926001600160a01b038616611482565b146141a5576141a0906127e7565b614168565b50929450919261411b9160005b6141bd575b506127e7565b6141ce90613c3d6102c051886137a7565b6141ff6141db6001610935565b6141ef81613c626102c051610140516137a7565b613c626102c051610260516137a7565b61423061420c6000610935565b61422081613c626102c051610200516137a7565b613c626102c0516102e0516137a7565b61423c6102c0516127e7565b6102c052386141b7565b5093909294916141b261411b931590565b91939261411b91506127e7565b61427891923d8091833e6131d481836106bc565b903861410c565b509190613d0a565b50610220516102c051106140cb565b6142a06001610935565b6101a052613888565b905090565b506142ba6102136127dc565b60a0511161383b565b6040516379d93f4960e01b8152600490fd5b610213906142e16136e4565b6136ec565b6143079190614302600080516020615e2b83398151915261108b565b61430b565b9091565b9061430791614318613654565b61442e565b67ffffffffffffffff81116106de5760200290565b6107346102139161431d565b906101fd61435461434e84614332565b9361431d565b8361161f565b610213600461433e565b61021390612846565b610213906143816118336102139460ff1690565b901b90565b600411156101d857565b905051906101fd82614386565b906020828203126101d85761021391614390565b6001600160a01b039091168152610213916040820191602081840391015261113e565b6004111561284157565b906101fd826143d4565b610213906143de565b9060048110156103b6576020020190565b60ff1660ff8114611b765760010190565b61441f9060ff1661226d565b029060ff8216918203611b7657565b505060059061443c82610935565b906144468261373f565b9182614464614453615d9f565b946020612e4861178e610191611680565b825260049082905afa918215612ee657600092614bc8575b5060009261448984610935565b87148015614bb7575b614ba6575083861115614b96576144ac612c018588611ef0565b905b60009283848593869987996144c161435a565b989788908e5b81116147c9578f8c8c6144e282612cd161178e610192611680565b82526004820188905260249082905afa8391816147ad575b501583146145f5575b505061452890602061451961178e610192611680565b639080936f90612e5760405190565b82526004820187905260249082905afa809282936145d5575b5015811461455c575b505050614556906127e7565b8e6144c7565b61456590612846565b61456e82612846565b1415806145ba575b614581575b8d61454a565b909d612d24614592614598926127e7565b9f612846565b146145a5575b8f3861457b565b9c6145b2614556916127e7565b9d905061459e565b506145c56004612846565b6145ce82612846565b1415614576565b6145ee91935060203d81116133355761332381836106bc565b9138614541565b9091999861460561463d916127e7565b99611c488d612ead61463261462861461e608089015190565b60a0890151611c48565b60c0880151611c48565b612ea7612710610935565b9961465261464d60208401612ac1565b614364565b61465c6008611bac565b60ff821610614787575b5061014082015161467c61183361021384610935565b03614689575b9190614503565b602061469961178e610193611680565b92635e6a2295936146d86101a06146bb6101808501516001600160a01b031690565b930151956146e36146cb60405190565b9788958694859460e01b90565b8452600484016143b1565b03915afa80928293614757575b5015146146fe575b8e614682565b61474f929c91614747614713612cb9936143e8565b9161474161473b61473661472f61472987611d5c565b856143f1565b5160ff1690565b614402565b93611d5c565b906143f1565b9060ff169052565b998b386146f8565b61477991935060203d8111614780575b61477181836106bc565b81019061439d565b91386146f0565b503d614767565b6147a06147a591929e9261479b6001610935565b61436d565b611bac565b179b38614666565b6147c29192503d8086833e6131d481836106bc565b90386144fa565b509694919c5098999a9491809d50614863936147e48c610935565b8111614b5d575b5050506103e8856148046147fe83610935565b82612b5c565b9261480e8c610935565b821115614b515761483a61484061485394613de661483a61484e95612ead600a98612ea7612710610935565b91610935565b61484984610935565b611ef0565b614bf4565b8c98969492919997959399611b7b565b9761487c600199613c626148768c610935565b8b6137a7565b82908961488889611bac565b905b614ac8575b50506148c3996148c96148b76148b06148aa8a601496611b58565b94610935565b9384614bf4565b613c6260029d8e610935565b8c6137a7565b6148d288610935565b8111614a9d575b5050506148e585610935565b8211614964575b5050505092611c48613d7e61493261492661494e96611c48613d7e61492c614926613d7e6149389b6149206118339f610935565b906137a7565b93610935565b8d6137a7565b886137a7565b611c48613d7e6149486003610935565b876137a7565b611c48613d7e61495e6004610935565b866137a7565b9086919261497186611bac565b925b614a00575b50505061493261492661494e96611c48613d7e61492c614926613d7e6149389b6149206118339f9c611c489c613d7e9c6064916149b483610935565b82106149e8575050506149d66149c982610935565b613c6261495e6004610935565b9c9f50509b50505050505096506148ec565b612ead6149fb926148496149d695610935565b6149c9565b91939495614a116004949294611bac565b60ff86161015614a92575090614a7a614a748493614a558a96612ead611d94614a4561472f614a3f8d611d5c565b8a6143f1565b614a4f6064611bac565b90614413565b601990614a6182610935565b811115614a8657611fdc611c4892610935565b94614402565b91908a96959493614973565b614849611c4892610935565b959493819350614978565b612ead614aad92614ac094611b58565b613c62614aba6003610935565b896137a7565b3880806148d9565b9091939597999a92949698614add6008611bac565b60ff83161015614b4257509081614af88c9361479b85610935565b614b0183611d5c565b16614b0e6118338d610935565b03614b2d575b614b1d90614402565b8d999795939b9a9896949261488a565b93614b3a614b1d916127e7565b949050614b14565b989694929a999795939161488f565b50505061485389610935565b614b84613c6291613de6614b78614b8e96612ea76014610935565b91612ea7612710610935565b916149208d610935565b388c816147eb565b614ba06001610935565b906144ae565b965050509050611833919250610935565b50614bc184610935565b8314614492565b614be191925060203d811161186b5761185c81836106bc565b903861447c565b614307606060006142e6565b90808210156142a9575090565b6102136101c06106e3565b60209081808080808080808080808080614c24614c01565b9e8f60008152016000815201600081520160008152016000815201600081520160008152016000815201600081520160008152016000815201600081520160008152016000905250565b610213614c0c565b61021390614c91600080516020615e2b83398151915261108b565b61021390614c9d613654565b614cd2565b9061071461161a602093653437b63232b960d11b815260060190565b610213600a610935565b6102136032610935565b9081614ce261178e610191611680565b91600093614cef8561229a565b93614d026001600160a01b038616611482565b146142c357614d296020614d1a61178e610191611680565b6318160ddd90612c4660405190565b825260049082905afa8015612ee657614d4f9187916151a1575b50613d7e878401918252565b614d5b61183387610935565b1461519a5750614d6b6064610935565b90614d758261373f565b90614d7f8361373f565b92614d8987610935565b81811015614f2c57614e0390614dc6614dbc61209a612095614daa60405190565b61395b81602081016111e78982614ca2565b613c3d83886137a7565b6020614dd661178e610191611680565b6370a0823190614dec612dfc613ff3868b6137a7565b83526001600160a01b031660048301526024820190565b03915afa918215612ee657614e8f92614e28918b91614f0e575b50613c6283896137a7565b614e44614e3b614632613d7e848a6137a7565b888b0151613de6565b614e4f610213614cbe565b811015614e945750614e6960a08801610216612cb9825190565b612cb9614e79613d7e83896137a7565b6102166101008a0191614e8a835190565b611b7b565b614d89565b614ea2611833610213614cc8565b1015614edb57614eba60c08801610216612cb9825190565b612cb9614eca613d7e83896137a7565b6102166101208a0191614e8a835190565b614eed60e08801610216612cb9825190565b612cb9614efd613d7e83896137a7565b6102166101408a0191614e8a835190565b614f26915060203d811161186b5761185c81836106bc565b38614e1d565b5093949150949150614f3c600090565b50614f5f6020614f5061178e610191611680565b635439ad8690612c4660405190565b825260049082905afa83918161517a575b501583146150df575b50614f90614f88610fa0610935565b610180860152565b614fa7614f9f61014086015190565b6101a0860152565b614fbb6114826115f561178e610192611680565b03615063575b61502361502d9161021393614fd7608087015190565b91614ff481880193611c48614fea865190565b613de66005610935565b9061500160608901928352565b815161500f61183383610935565b119081615051575b50615034575b50505190565b6040840151611fdc565b6020830152565b5161504a9161504291612b5c565b610160870152565b388061501d565b61505b9150610935565b821138615017565b61508e90602061507761178e610191611680565b6370a0823190614dec612dfc61178e610192611680565b03915afa908115612ee657610213936150b76150239361502d9584916150c1575b506040880152565b9350915050614fc1565b6150d9915060203d811161186b5761185c81836106bc565b386150af565b6151129060e0906150f461178e610191611680565b612e13639fa4750261510560405190565b9586948593849360e01b90565b03915afa839181615155575b5061514b575061514561513e6151348487015190565b613de66003610935565b6080860152565b38614f79565b6080850152615145565b61516e91925060e03d8111612f2457612f0f81836106bc565b5050509392505061511e565b61519391925060203d811161186b5761185c81836106bc565b9038614f70565b9350915050565b6151b9915060203d811161186b5761185c81836106bc565b38614d43565b6102136151ca614c6e565b614c76565b6151e6600080516020615e4b83398151915261108b565b6101fd6101fd61523f565b6101fd6151cf565b615201613654565b6101fd615210600160c96112e8565b336122227f62e78cea01bee320cd4e420270b5ea74000d11b0c9f74754ebdbfc544b05a2589161090260405190565b6101fd6151f9565b61525e600080516020615e4b83398151915261108b565b6101fd6101fd6152b7565b6101fd615247565b615279615302565b6101fd615288600060c96112e8565b336122227f5db9ee0a495bf2e6ff9c91a7834c1ba4fdd244a5e8aa4e537bd38aeae4b073aa9161090260405190565b6101fd615271565b156152c657565b60405162461bcd60e51b815260206004820152601460248201527314185d5cd8589b194e881b9bdd081c185d5cd95960621b6044820152606490fd5b6101fd61530d6119d1565b6152bf565b6102136102406106e3565b615325615312565b9060008252602082016000612730565b61021361531d565b6102139190615359600080516020615e2b83398151915261108b565b9061021391615366613654565b6153f3565b8015156101e9565b905051906101fd8261536b565b906020828203126101d85761021391615373565b919060a0838203126101d8576153aa8184612881565b926153b882602083016116c9565b92604082015167ffffffffffffffff81116101d8576153dc846102139285016128b8565b936153ea81606086016116c9565b93608001615373565b6102a0526102c05261540961178e610193611680565b615419611482610289600061229a565b14615d7c576154286000610935565b6102c051148015615d66575b6135bd5761545b90602061544c61178e610193611680565b632bfec3d390612e5760405190565b825260049082905afa918215612ee65761549a9260006101c052615d45575b50602061548b61178e610193611680565b637bd3f68690612e5760405190565b825260049082905afa918215612ee6576154d992600061020052615d24575b5060206154ca61178e610193611680565b636e34fdd890612e5760405190565b825260049082905afa918215612ee6576155189260006101e052615d03575b50602061550961178e610193611680565b6373355bff90612e5760405190565b825260049082905afa918215612ee657600092615ce3575b50615553602061554461178e610193611680565b63a06db7dc90612c4660405190565b825260049082905afa8015612ee657600061022052615cc2575b5060006101005261557c600090565b6101008190526102e08190526101208190526101808190526101608190526101408190526102808190529182918291908290819081906155bd6103e8610935565b610240525b6155cc6000610935565b610240511180615ca9575b15615a1b576155ef6000612cd161178e610192611680565b825261024051600483015260249082905afa60009181615a00575b5061562657505b61561d61024051611b9f565b610240526155c2565b61014001516156386102136000610935565b81146159fa5761566190602061565261178e610193611680565b63f2b0653790612e5760405190565b82526004820184905260249082905afa908115612ee6576156a7926000926159c7575b5060009061569661178e610193611680565b612e13634aae13ca612e0660405190565b03915afa9160009081938291818461026052615999575b506156cc5750505050615611565b6020926156e460006102a05101610216612cb9825190565b6102605115615934575050615703826102a05101610216612cb9825190565b61571161178e610193611680565b6146d8635e6a229561573261572560405190565b9687958694859460e01b90565b03915afa8015612ee65760006101a052615913575b5061575260006143de565b61575e6101a0516143de565b036157c05761577860a06102a05101610216612cb9825190565b615784610100516127e7565b61010052610260516157ab575b6157a16101c05161014051611b7b565b610140525b615611565b6157b7610180516127e7565b61018052615791565b6157ca60016143de565b6157d66101a0516143de565b03615837576157f060c06102a05101610216612cb9825190565b6157fc6102e0516127e7565b6102e05261026051615822575b6158196102005161028051611b7b565b61028052615611565b61582e610160516127e7565b61016052615809565b9561584260026143de565b61584e6101a0516143de565b036158a95761586860e06102a05101610216612cb9825190565b615874610120516127e7565b6101205261026051615894575b6101e05161588e91611b7b565b95615611565b946158a161588e916127e7565b959050615881565b956158b460036143de565b6158c06101a0516143de565b036157a65792966158e28591612cb96101006102a05101610216612cb9825190565b97610260516158fc575b906158f691611b7b565b92615611565b929061590a6158f6926127e7565b939091506158ec565b61592a9060203d81116147805761477181836106bc565b6101a05238615747565b15615954575061594f60406102a05101610216612cb9825190565b615703565b61596961183361021342936102205190611b7b565b11156159845761594f60806102a05101610216612cb9825190565b61594f60606102a05101610216612cb9825190565b915093506159b8913d8091833e6159b081836106bc565b810190615394565b610260529094909150386156be565b60009192506159ec9060203d81116159f3575b6159e481836106bc565b810190615380565b9190615684565b503d6159da565b50615611565b615a1491923d8091833e6131d481836106bc565b903861560a565b9695919493505060a06102a05101615a31815190565b615a3e6118336000610935565b11615c81575b506102a05160c0018051615a5b6118336000610935565b11615c59575b506102a05160e0018051615a786118336000610935565b11615c34575b506102a051610100018051615a966118336000610935565b11615c0f575b506102a0518051615ab06118336000610935565b11615bd6575b505050615ac36000610935565b6101005111615b9f575b615ad76000610935565b6102e05111615b68575b615aeb6000610935565b6101205111615b38575b50615b006000610935565b8211615b10575b50506102a05190565b615b3191612ead615b2692612ea7612710610935565b6102206102a0510152565b3880615b07565b615b57615b4d615b6292612ea7612710610935565b6101205190612b5c565b6102006102a0510152565b38615af5565b615b9a615b8f615b85615b7c612710610935565b61016051611b58565b6102e05190612b5c565b6101e06102a0510152565b615ae1565b615bd1615bc6615bbc615bb3612710610935565b61018051611b58565b6101005190612b5c565b6101c06102a0510152565b615acd565b613de6615bf7615c0794614e8a615bfc95614e8a6102805161014051611b7b565b915190565b6101206102a0510152565b388080615ab6565b615c23615c1d615c2e925190565b84612b5c565b6101a06102a0510152565b38615a9c565b615c48615c42615c53925190565b83612b5c565b6101806102a0510152565b38615a7e565b615c70615c67615c7b925190565b61028051612b5c565b6101606102a0510152565b38615a61565b615c98615c8f615ca3925190565b61014051612b5c565b6101406102a0510152565b38615a44565b506102a05151615cbc6118336102c05190565b106155d7565b615cd99060203d811161186b5761185c81836106bc565b610220523861556d565b615cfc91925060203d811161186b5761185c81836106bc565b9038615530565b615d1a9060203d811161186b5761185c81836106bc565b6101e052386154f8565b615d3b9060203d811161186b5761185c81836106bc565b61020052386154b9565b615d5c9060203d811161186b5761185c81836106bc565b6101c0523861547a565b50615d726102136127dc565b6102c05111615434565b604051634f6c118560e01b8152600490fd5b61021390615d9a615335565b61533d565b6000615daa81610935565b90615db66103e8610935565b615dbf82610935565b811115615e2557615dd96020612c3761178e610192611680565b82526004820185905260249082905afa9081615e09575b50615e0357615dfe90611b9f565b615db6565b91505090565b615e209060203d81116133355761332381836106bc565b615df0565b50509056fe1392683b4fe604b030f727da71b11fe86de118903712aeeae60f8bf8183bbf1ba49807205ce4d355092ef5a8a18f56e8913cf4a201fbe287825b095693c21775a164736f6c6343000814000a",
  "linkReferences": {},
  "deployedLinkReferences": {}
}